{
	"verifier.sol": {
		"Verifier": {
			"abi": [
				{
					"inputs": [
						{
							"components": [
								{
									"components": [
										{
											"internalType": "uint256",
											"name": "X",
											"type": "uint256"
										},
										{
											"internalType": "uint256",
											"name": "Y",
											"type": "uint256"
										}
									],
									"internalType": "struct Pairing.G1Point",
									"name": "a",
									"type": "tuple"
								},
								{
									"components": [
										{
											"internalType": "uint256[2]",
											"name": "X",
											"type": "uint256[2]"
										},
										{
											"internalType": "uint256[2]",
											"name": "Y",
											"type": "uint256[2]"
										}
									],
									"internalType": "struct Pairing.G2Point",
									"name": "b",
									"type": "tuple"
								},
								{
									"components": [
										{
											"internalType": "uint256",
											"name": "X",
											"type": "uint256"
										},
										{
											"internalType": "uint256",
											"name": "Y",
											"type": "uint256"
										}
									],
									"internalType": "struct Pairing.G1Point",
									"name": "c",
									"type": "tuple"
								}
							],
							"internalType": "struct Verifier.Proof",
							"name": "proof",
							"type": "tuple"
						},
						{
							"internalType": "uint256[2]",
							"name": "input",
							"type": "uint256[2]"
						}
					],
					"name": "verifyTx",
					"outputs": [
						{
							"internalType": "bool",
							"name": "r",
							"type": "bool"
						}
					],
					"stateMutability": "view",
					"type": "function"
				}
			],
			"devdoc": {
				"kind": "dev",
				"methods": {},
				"version": 1
			},
			"evm": {
				"assembly": "    /* \"verifier.sol\":6234:9865  contract Verifier {... */\n  mstore(0x40, 0x80)\n  callvalue\n  dup1\n  iszero\n  tag_1\n  jumpi\n  0x00\n  dup1\n  revert\ntag_1:\n  pop\n  dataSize(sub_0)\n  dup1\n  dataOffset(sub_0)\n  0x00\n  codecopy\n  0x00\n  return\nstop\n\nsub_0: assembly {\n        /* \"verifier.sol\":6234:9865  contract Verifier {... */\n      mstore(0x40, 0x80)\n      callvalue\n      dup1\n      iszero\n      tag_1\n      jumpi\n      0x00\n      dup1\n      revert\n    tag_1:\n      pop\n      jumpi(tag_2, lt(calldatasize, 0x04))\n      shr(0xe0, calldataload(0x00))\n      dup1\n      0x43cd76fc\n      eq\n      tag_3\n      jumpi\n    tag_2:\n      0x00\n      dup1\n      revert\n        /* \"verifier.sol\":9463:9863  function verifyTx(... */\n    tag_3:\n      tag_4\n      0x04\n      dup1\n      calldatasize\n      sub\n      dup2\n      add\n      swap1\n      tag_5\n      swap2\n      swap1\n      tag_6\n      jump\t// in\n    tag_5:\n      tag_7\n      jump\t// in\n    tag_4:\n      mload(0x40)\n      tag_8\n      swap2\n      swap1\n      tag_9\n      jump\t// in\n    tag_8:\n      mload(0x40)\n      dup1\n      swap2\n      sub\n      swap1\n      return\n    tag_7:\n        /* \"verifier.sol\":9566:9572  bool r */\n      0x00\n        /* \"verifier.sol\":9584:9609  uint[] memory inputValues */\n      dup1\n        /* \"verifier.sol\":9623:9624  2 */\n      0x02\n        /* \"verifier.sol\":9612:9625  new uint[](2) */\n      0xffffffffffffffff\n      dup2\n      gt\n      iszero\n      tag_11\n      jumpi\n      tag_12\n      tag_13\n      jump\t// in\n    tag_12:\n    tag_11:\n      mload(0x40)\n      swap1\n      dup1\n      dup3\n      mstore\n      dup1\n      0x20\n      mul\n      0x20\n      add\n      dup3\n      add\n      0x40\n      mstore\n      dup1\n      iszero\n      tag_14\n      jumpi\n      dup2\n      0x20\n      add\n      0x20\n      dup3\n      mul\n      dup1\n      calldatasize\n      dup4\n      calldatacopy\n      dup1\n      dup3\n      add\n      swap2\n      pop\n      pop\n      swap1\n      pop\n    tag_14:\n      pop\n        /* \"verifier.sol\":9584:9625  uint[] memory inputValues = new uint[](2) */\n      swap1\n      pop\n        /* \"verifier.sol\":9648:9654  uint i */\n      0x00\n        /* \"verifier.sol\":9644:9732  for(uint i = 0; i < input.length; i++){... */\n    tag_15:\n        /* \"verifier.sol\":9664:9676  input.length */\n      0x02\n        /* \"verifier.sol\":9660:9661  i */\n      dup2\n        /* \"verifier.sol\":9660:9676  i < input.length */\n      lt\n        /* \"verifier.sol\":9644:9732  for(uint i = 0; i < input.length; i++){... */\n      iszero\n      tag_16\n      jumpi\n        /* \"verifier.sol\":9713:9718  input */\n      dup4\n        /* \"verifier.sol\":9719:9720  i */\n      dup2\n        /* \"verifier.sol\":9713:9721  input[i] */\n      0x02\n      dup2\n      lt\n      tag_18\n      jumpi\n      tag_19\n      tag_20\n      jump\t// in\n    tag_19:\n    tag_18:\n      0x20\n      mul\n      add\n      mload\n        /* \"verifier.sol\":9696:9707  inputValues */\n      dup3\n        /* \"verifier.sol\":9708:9709  i */\n      dup3\n        /* \"verifier.sol\":9696:9710  inputValues[i] */\n      dup2\n      mload\n      dup2\n      lt\n      tag_21\n      jumpi\n      tag_22\n      tag_20\n      jump\t// in\n    tag_22:\n    tag_21:\n      0x20\n      mul\n      0x20\n      add\n      add\n        /* \"verifier.sol\":9696:9721  inputValues[i] = input[i] */\n      dup2\n      dup2\n      mstore\n      pop\n      pop\n        /* \"verifier.sol\":9678:9681  i++ */\n      dup1\n      dup1\n      0x01\n      add\n      swap2\n      pop\n      pop\n        /* \"verifier.sol\":9644:9732  for(uint i = 0; i < input.length; i++){... */\n      jump(tag_15)\n    tag_16:\n      pop\n        /* \"verifier.sol\":9775:9776  0 */\n      0x00\n        /* \"verifier.sol\":9745:9771  verify(inputValues, proof) */\n      tag_23\n        /* \"verifier.sol\":9752:9763  inputValues */\n      dup3\n        /* \"verifier.sol\":9765:9770  proof */\n      dup7\n        /* \"verifier.sol\":9745:9751  verify */\n      tag_24\n        /* \"verifier.sol\":9745:9771  verify(inputValues, proof) */\n      jump\t// in\n    tag_23:\n        /* \"verifier.sol\":9745:9776  verify(inputValues, proof) == 0 */\n      sub\n        /* \"verifier.sol\":9741:9857  if (verify(inputValues, proof) == 0) {... */\n      tag_25\n      jumpi\n        /* \"verifier.sol\":9799:9803  true */\n      0x01\n        /* \"verifier.sol\":9792:9803  return true */\n      swap2\n      pop\n      pop\n      jump(tag_10)\n        /* \"verifier.sol\":9741:9857  if (verify(inputValues, proof) == 0) {... */\n    tag_25:\n        /* \"verifier.sol\":9841:9846  false */\n      0x00\n        /* \"verifier.sol\":9834:9846  return false */\n      swap2\n      pop\n      pop\n        /* \"verifier.sol\":9463:9863  function verifyTx(... */\n    tag_10:\n      swap3\n      swap2\n      pop\n      pop\n      jump\t// out\n        /* \"verifier.sol\":8537:9458  function verify(uint[] memory input, Proof memory proof) internal view returns (uint) {... */\n    tag_24:\n        /* \"verifier.sol\":8617:8621  uint */\n      0x00\n        /* \"verifier.sol\":8633:8659  uint256 snark_scalar_field */\n      dup1\n        /* \"verifier.sol\":8662:8739  21888242871839275222246405745257275088548364400416034343698204186575808495617 */\n      0x30644e72e131a029b85045b68181585d2833e84879b9709143e1f593f0000001\n        /* \"verifier.sol\":8633:8739  uint256 snark_scalar_field = 21888242871839275222246405745257275088548364400416034343698204186575808495617 */\n      swap1\n      pop\n        /* \"verifier.sol\":8749:8771  VerifyingKey memory vk */\n      0x00\n        /* \"verifier.sol\":8774:8788  verifyingKey() */\n      tag_28\n        /* \"verifier.sol\":8774:8786  verifyingKey */\n      tag_29\n        /* \"verifier.sol\":8774:8788  verifyingKey() */\n      jump\t// in\n    tag_28:\n        /* \"verifier.sol\":8749:8788  VerifyingKey memory vk = verifyingKey() */\n      swap1\n      pop\n        /* \"verifier.sol\":8826:8828  vk */\n      dup1\n        /* \"verifier.sol\":8826:8838  vk.gamma_abc */\n      0x80\n      add\n      mload\n        /* \"verifier.sol\":8826:8845  vk.gamma_abc.length */\n      mload\n        /* \"verifier.sol\":8821:8822  1 */\n      0x01\n        /* \"verifier.sol\":8806:8811  input */\n      dup7\n        /* \"verifier.sol\":8806:8818  input.length */\n      mload\n        /* \"verifier.sol\":8806:8822  input.length + 1 */\n      tag_30\n      swap2\n      swap1\n      tag_31\n      jump\t// in\n    tag_30:\n        /* \"verifier.sol\":8806:8845  input.length + 1 == vk.gamma_abc.length */\n      eq\n        /* \"verifier.sol\":8798:8846  require(input.length + 1 == vk.gamma_abc.length) */\n      tag_32\n      jumpi\n      0x00\n      dup1\n      revert\n    tag_32:\n        /* \"verifier.sol\":8903:8930  Pairing.G1Point memory vk_x */\n      0x00\n        /* \"verifier.sol\":8933:8954  Pairing.G1Point(0, 0) */\n      mload(0x40)\n      dup1\n      0x40\n      add\n      0x40\n      mstore\n      dup1\n        /* \"verifier.sol\":8949:8950  0 */\n      0x00\n        /* \"verifier.sol\":8933:8954  Pairing.G1Point(0, 0) */\n      dup2\n      mstore\n      0x20\n      add\n        /* \"verifier.sol\":8952:8953  0 */\n      0x00\n        /* \"verifier.sol\":8933:8954  Pairing.G1Point(0, 0) */\n      dup2\n      mstore\n      pop\n        /* \"verifier.sol\":8903:8954  Pairing.G1Point memory vk_x = Pairing.G1Point(0, 0) */\n      swap1\n      pop\n        /* \"verifier.sol\":8969:8975  uint i */\n      0x00\n        /* \"verifier.sol\":8964:9161  for (uint i = 0; i < input.length; i++) {... */\n    tag_33:\n        /* \"verifier.sol\":8985:8990  input */\n      dup7\n        /* \"verifier.sol\":8985:8997  input.length */\n      mload\n        /* \"verifier.sol\":8981:8982  i */\n      dup2\n        /* \"verifier.sol\":8981:8997  i < input.length */\n      lt\n        /* \"verifier.sol\":8964:9161  for (uint i = 0; i < input.length; i++) {... */\n      iszero\n      tag_34\n      jumpi\n        /* \"verifier.sol\":9037:9055  snark_scalar_field */\n      dup4\n        /* \"verifier.sol\":9026:9031  input */\n      dup8\n        /* \"verifier.sol\":9032:9033  i */\n      dup3\n        /* \"verifier.sol\":9026:9034  input[i] */\n      dup2\n      mload\n      dup2\n      lt\n      tag_36\n      jumpi\n      tag_37\n      tag_20\n      jump\t// in\n    tag_37:\n    tag_36:\n      0x20\n      mul\n      0x20\n      add\n      add\n      mload\n        /* \"verifier.sol\":9026:9055  input[i] < snark_scalar_field */\n      lt\n        /* \"verifier.sol\":9018:9056  require(input[i] < snark_scalar_field) */\n      tag_38\n      jumpi\n      0x00\n      dup1\n      revert\n    tag_38:\n        /* \"verifier.sol\":9077:9150  Pairing.addition(vk_x, Pairing.scalar_mul(vk.gamma_abc[i + 1], input[i])) */\n      tag_39\n        /* \"verifier.sol\":9094:9098  vk_x */\n      dup3\n        /* \"verifier.sol\":9100:9149  Pairing.scalar_mul(vk.gamma_abc[i + 1], input[i]) */\n      tag_40\n        /* \"verifier.sol\":9119:9121  vk */\n      dup6\n        /* \"verifier.sol\":9119:9131  vk.gamma_abc */\n      0x80\n      add\n      mload\n        /* \"verifier.sol\":9136:9137  1 */\n      0x01\n        /* \"verifier.sol\":9132:9133  i */\n      dup6\n        /* \"verifier.sol\":9132:9137  i + 1 */\n      tag_41\n      swap2\n      swap1\n      tag_31\n      jump\t// in\n    tag_41:\n        /* \"verifier.sol\":9119:9138  vk.gamma_abc[i + 1] */\n      dup2\n      mload\n      dup2\n      lt\n      tag_42\n      jumpi\n      tag_43\n      tag_20\n      jump\t// in\n    tag_43:\n    tag_42:\n      0x20\n      mul\n      0x20\n      add\n      add\n      mload\n        /* \"verifier.sol\":9140:9145  input */\n      dup11\n        /* \"verifier.sol\":9146:9147  i */\n      dup6\n        /* \"verifier.sol\":9140:9148  input[i] */\n      dup2\n      mload\n      dup2\n      lt\n      tag_44\n      jumpi\n      tag_45\n      tag_20\n      jump\t// in\n    tag_45:\n    tag_44:\n      0x20\n      mul\n      0x20\n      add\n      add\n      mload\n        /* \"verifier.sol\":9100:9118  Pairing.scalar_mul */\n      tag_46\n        /* \"verifier.sol\":9100:9149  Pairing.scalar_mul(vk.gamma_abc[i + 1], input[i]) */\n      jump\t// in\n    tag_40:\n        /* \"verifier.sol\":9077:9093  Pairing.addition */\n      tag_47\n        /* \"verifier.sol\":9077:9150  Pairing.addition(vk_x, Pairing.scalar_mul(vk.gamma_abc[i + 1], input[i])) */\n      jump\t// in\n    tag_39:\n        /* \"verifier.sol\":9070:9150  vk_x = Pairing.addition(vk_x, Pairing.scalar_mul(vk.gamma_abc[i + 1], input[i])) */\n      swap2\n      pop\n        /* \"verifier.sol\":8999:9002  i++ */\n      dup1\n      dup1\n      0x01\n      add\n      swap2\n      pop\n      pop\n        /* \"verifier.sol\":8964:9161  for (uint i = 0; i < input.length; i++) {... */\n      jump(tag_33)\n    tag_34:\n      pop\n        /* \"verifier.sol\":9177:9216  Pairing.addition(vk_x, vk.gamma_abc[0]) */\n      tag_48\n        /* \"verifier.sol\":9194:9198  vk_x */\n      dup2\n        /* \"verifier.sol\":9200:9202  vk */\n      dup4\n        /* \"verifier.sol\":9200:9212  vk.gamma_abc */\n      0x80\n      add\n      mload\n        /* \"verifier.sol\":9213:9214  0 */\n      0x00\n        /* \"verifier.sol\":9200:9215  vk.gamma_abc[0] */\n      dup2\n      mload\n      dup2\n      lt\n      tag_49\n      jumpi\n      tag_50\n      tag_20\n      jump\t// in\n    tag_50:\n    tag_49:\n      0x20\n      mul\n      0x20\n      add\n      add\n      mload\n        /* \"verifier.sol\":9177:9193  Pairing.addition */\n      tag_47\n        /* \"verifier.sol\":9177:9216  Pairing.addition(vk_x, vk.gamma_abc[0]) */\n      jump\t// in\n    tag_48:\n        /* \"verifier.sol\":9170:9216  vk_x = Pairing.addition(vk_x, vk.gamma_abc[0]) */\n      swap1\n      pop\n        /* \"verifier.sol\":9230:9423  Pairing.pairingProd4(... */\n      tag_51\n        /* \"verifier.sol\":9265:9270  proof */\n      dup6\n        /* \"verifier.sol\":9265:9272  proof.a */\n      0x00\n      add\n      mload\n        /* \"verifier.sol\":9274:9279  proof */\n      dup7\n        /* \"verifier.sol\":9274:9281  proof.b */\n      0x20\n      add\n      mload\n        /* \"verifier.sol\":9296:9316  Pairing.negate(vk_x) */\n      tag_52\n        /* \"verifier.sol\":9311:9315  vk_x */\n      dup5\n        /* \"verifier.sol\":9296:9310  Pairing.negate */\n      tag_53\n        /* \"verifier.sol\":9296:9316  Pairing.negate(vk_x) */\n      jump\t// in\n    tag_52:\n        /* \"verifier.sol\":9318:9320  vk */\n      dup6\n        /* \"verifier.sol\":9318:9326  vk.gamma */\n      0x40\n      add\n      mload\n        /* \"verifier.sol\":9341:9364  Pairing.negate(proof.c) */\n      tag_54\n        /* \"verifier.sol\":9356:9361  proof */\n      dup11\n        /* \"verifier.sol\":9356:9363  proof.c */\n      0x40\n      add\n      mload\n        /* \"verifier.sol\":9341:9355  Pairing.negate */\n      tag_53\n        /* \"verifier.sol\":9341:9364  Pairing.negate(proof.c) */\n      jump\t// in\n    tag_54:\n        /* \"verifier.sol\":9366:9368  vk */\n      dup8\n        /* \"verifier.sol\":9366:9374  vk.delta */\n      0x60\n      add\n      mload\n        /* \"verifier.sol\":9389:9413  Pairing.negate(vk.alpha) */\n      tag_55\n        /* \"verifier.sol\":9404:9406  vk */\n      dup10\n        /* \"verifier.sol\":9404:9412  vk.alpha */\n      0x00\n      add\n      mload\n        /* \"verifier.sol\":9389:9403  Pairing.negate */\n      tag_53\n        /* \"verifier.sol\":9389:9413  Pairing.negate(vk.alpha) */\n      jump\t// in\n    tag_55:\n        /* \"verifier.sol\":9415:9417  vk */\n      dup10\n        /* \"verifier.sol\":9415:9422  vk.beta */\n      0x20\n      add\n      mload\n        /* \"verifier.sol\":9230:9250  Pairing.pairingProd4 */\n      tag_56\n        /* \"verifier.sol\":9230:9423  Pairing.pairingProd4(... */\n      jump\t// in\n    tag_51:\n        /* \"verifier.sol\":9226:9433  if(!Pairing.pairingProd4(... */\n      tag_57\n      jumpi\n        /* \"verifier.sol\":9432:9433  1 */\n      0x01\n        /* \"verifier.sol\":9425:9433  return 1 */\n      swap4\n      pop\n      pop\n      pop\n      pop\n      jump(tag_27)\n        /* \"verifier.sol\":9226:9433  if(!Pairing.pairingProd4(... */\n    tag_57:\n        /* \"verifier.sol\":9450:9451  0 */\n      0x00\n        /* \"verifier.sol\":9443:9451  return 0 */\n      swap4\n      pop\n      pop\n      pop\n      pop\n        /* \"verifier.sol\":8537:9458  function verify(uint[] memory input, Proof memory proof) internal view returns (uint) {... */\n    tag_27:\n      swap3\n      swap2\n      pop\n      pop\n      jump\t// out\n        /* \"verifier.sol\":6581:8532  function verifyingKey() pure internal returns (VerifyingKey memory vk) {... */\n    tag_29:\n        /* \"verifier.sol\":6628:6650  VerifyingKey memory vk */\n      tag_58\n      tag_59\n      jump\t// in\n    tag_58:\n        /* \"verifier.sol\":6673:6842  Pairing.G1Point(uint256(0x26bb205c498a22925f9eb016398053b04955739048d66015901f9b51d1004876), uint256(0x060c7e0b412fc46bf989391baefecfbf7690a9c1fd008b3555bef3467833325b)) */\n      mload(0x40)\n      dup1\n      0x40\n      add\n      0x40\n      mstore\n      dup1\n        /* \"verifier.sol\":6697:6763  0x26bb205c498a22925f9eb016398053b04955739048d66015901f9b51d1004876 */\n      0x26bb205c498a22925f9eb016398053b04955739048d66015901f9b51d1004876\n        /* \"verifier.sol\":6673:6842  Pairing.G1Point(uint256(0x26bb205c498a22925f9eb016398053b04955739048d66015901f9b51d1004876), uint256(0x060c7e0b412fc46bf989391baefecfbf7690a9c1fd008b3555bef3467833325b)) */\n      dup2\n      mstore\n      0x20\n      add\n        /* \"verifier.sol\":6774:6840  0x060c7e0b412fc46bf989391baefecfbf7690a9c1fd008b3555bef3467833325b */\n      0x060c7e0b412fc46bf989391baefecfbf7690a9c1fd008b3555bef3467833325b\n        /* \"verifier.sol\":6673:6842  Pairing.G1Point(uint256(0x26bb205c498a22925f9eb016398053b04955739048d66015901f9b51d1004876), uint256(0x060c7e0b412fc46bf989391baefecfbf7690a9c1fd008b3555bef3467833325b)) */\n      dup2\n      mstore\n      pop\n        /* \"verifier.sol\":6662:6664  vk */\n      dup2\n        /* \"verifier.sol\":6662:6670  vk.alpha */\n      0x00\n      add\n        /* \"verifier.sol\":6662:6842  vk.alpha = Pairing.G1Point(uint256(0x26bb205c498a22925f9eb016398053b04955739048d66015901f9b51d1004876), uint256(0x060c7e0b412fc46bf989391baefecfbf7690a9c1fd008b3555bef3467833325b)) */\n      dup2\n      swap1\n      mstore\n      pop\n        /* \"verifier.sol\":6862:7189  Pairing.G2Point([uint256(0x07455afd10e48d8adc94c6cb955f7a13056cbeabe270c60696cd586838f636d7), uint256(0x160ae88dcd3c4fe37fde12f5d044e1fefb4310ec954b5d1d6c8ec23d5b3de0cf)], [uint256(0x0c3e3f64aabf0b0ae49fc5b2385c0a5359528c960bd88ee56328ccf699116425), uint256(0x25aca19f499752f75387c0c6901d2ba83cc1dc78671797f5de5f8b5f3909e79c)]) */\n      mload(0x40)\n      dup1\n      0x40\n      add\n      0x40\n      mstore\n      dup1\n      mload(0x40)\n      dup1\n      0x40\n      add\n      0x40\n      mstore\n      dup1\n        /* \"verifier.sol\":6887:6953  0x07455afd10e48d8adc94c6cb955f7a13056cbeabe270c60696cd586838f636d7 */\n      0x07455afd10e48d8adc94c6cb955f7a13056cbeabe270c60696cd586838f636d7\n        /* \"verifier.sol\":6862:7189  Pairing.G2Point([uint256(0x07455afd10e48d8adc94c6cb955f7a13056cbeabe270c60696cd586838f636d7), uint256(0x160ae88dcd3c4fe37fde12f5d044e1fefb4310ec954b5d1d6c8ec23d5b3de0cf)], [uint256(0x0c3e3f64aabf0b0ae49fc5b2385c0a5359528c960bd88ee56328ccf699116425), uint256(0x25aca19f499752f75387c0c6901d2ba83cc1dc78671797f5de5f8b5f3909e79c)]) */\n      dup2\n      mstore\n      0x20\n      add\n        /* \"verifier.sol\":6964:7030  0x160ae88dcd3c4fe37fde12f5d044e1fefb4310ec954b5d1d6c8ec23d5b3de0cf */\n      0x160ae88dcd3c4fe37fde12f5d044e1fefb4310ec954b5d1d6c8ec23d5b3de0cf\n        /* \"verifier.sol\":6862:7189  Pairing.G2Point([uint256(0x07455afd10e48d8adc94c6cb955f7a13056cbeabe270c60696cd586838f636d7), uint256(0x160ae88dcd3c4fe37fde12f5d044e1fefb4310ec954b5d1d6c8ec23d5b3de0cf)], [uint256(0x0c3e3f64aabf0b0ae49fc5b2385c0a5359528c960bd88ee56328ccf699116425), uint256(0x25aca19f499752f75387c0c6901d2ba83cc1dc78671797f5de5f8b5f3909e79c)]) */\n      dup2\n      mstore\n      pop\n      dup2\n      mstore\n      0x20\n      add\n      mload(0x40)\n      dup1\n      0x40\n      add\n      0x40\n      mstore\n      dup1\n        /* \"verifier.sol\":7043:7109  0x0c3e3f64aabf0b0ae49fc5b2385c0a5359528c960bd88ee56328ccf699116425 */\n      0x0c3e3f64aabf0b0ae49fc5b2385c0a5359528c960bd88ee56328ccf699116425\n        /* \"verifier.sol\":6862:7189  Pairing.G2Point([uint256(0x07455afd10e48d8adc94c6cb955f7a13056cbeabe270c60696cd586838f636d7), uint256(0x160ae88dcd3c4fe37fde12f5d044e1fefb4310ec954b5d1d6c8ec23d5b3de0cf)], [uint256(0x0c3e3f64aabf0b0ae49fc5b2385c0a5359528c960bd88ee56328ccf699116425), uint256(0x25aca19f499752f75387c0c6901d2ba83cc1dc78671797f5de5f8b5f3909e79c)]) */\n      dup2\n      mstore\n      0x20\n      add\n        /* \"verifier.sol\":7120:7186  0x25aca19f499752f75387c0c6901d2ba83cc1dc78671797f5de5f8b5f3909e79c */\n      0x25aca19f499752f75387c0c6901d2ba83cc1dc78671797f5de5f8b5f3909e79c\n        /* \"verifier.sol\":6862:7189  Pairing.G2Point([uint256(0x07455afd10e48d8adc94c6cb955f7a13056cbeabe270c60696cd586838f636d7), uint256(0x160ae88dcd3c4fe37fde12f5d044e1fefb4310ec954b5d1d6c8ec23d5b3de0cf)], [uint256(0x0c3e3f64aabf0b0ae49fc5b2385c0a5359528c960bd88ee56328ccf699116425), uint256(0x25aca19f499752f75387c0c6901d2ba83cc1dc78671797f5de5f8b5f3909e79c)]) */\n      dup2\n      mstore\n      pop\n      dup2\n      mstore\n      pop\n        /* \"verifier.sol\":6852:6854  vk */\n      dup2\n        /* \"verifier.sol\":6852:6859  vk.beta */\n      0x20\n      add\n        /* \"verifier.sol\":6852:7189  vk.beta = Pairing.G2Point([uint256(0x07455afd10e48d8adc94c6cb955f7a13056cbeabe270c60696cd586838f636d7), uint256(0x160ae88dcd3c4fe37fde12f5d044e1fefb4310ec954b5d1d6c8ec23d5b3de0cf)], [uint256(0x0c3e3f64aabf0b0ae49fc5b2385c0a5359528c960bd88ee56328ccf699116425), uint256(0x25aca19f499752f75387c0c6901d2ba83cc1dc78671797f5de5f8b5f3909e79c)]) */\n      dup2\n      swap1\n      mstore\n      pop\n        /* \"verifier.sol\":7210:7537  Pairing.G2Point([uint256(0x2ea0755cdafbcdf3618a816638cfbb3e8b9bc2b9d9fdbb567fd9c59d3d62b89c), uint256(0x2df3f0489ee7459dcd5b8782beb2364dea66e1ada8743c537b5a4ccc2a87490d)], [uint256(0x241839646b28f60b6c5b8ed4b53ce041def39b7c6c8f355cdf22f60a8f7c8a97), uint256(0x1231f39bdf173426047abca3739c01b6d12ed0aea06569d092cbe4f9e875a52b)]) */\n      mload(0x40)\n      dup1\n      0x40\n      add\n      0x40\n      mstore\n      dup1\n      mload(0x40)\n      dup1\n      0x40\n      add\n      0x40\n      mstore\n      dup1\n        /* \"verifier.sol\":7235:7301  0x2ea0755cdafbcdf3618a816638cfbb3e8b9bc2b9d9fdbb567fd9c59d3d62b89c */\n      0x2ea0755cdafbcdf3618a816638cfbb3e8b9bc2b9d9fdbb567fd9c59d3d62b89c\n        /* \"verifier.sol\":7210:7537  Pairing.G2Point([uint256(0x2ea0755cdafbcdf3618a816638cfbb3e8b9bc2b9d9fdbb567fd9c59d3d62b89c), uint256(0x2df3f0489ee7459dcd5b8782beb2364dea66e1ada8743c537b5a4ccc2a87490d)], [uint256(0x241839646b28f60b6c5b8ed4b53ce041def39b7c6c8f355cdf22f60a8f7c8a97), uint256(0x1231f39bdf173426047abca3739c01b6d12ed0aea06569d092cbe4f9e875a52b)]) */\n      dup2\n      mstore\n      0x20\n      add\n        /* \"verifier.sol\":7312:7378  0x2df3f0489ee7459dcd5b8782beb2364dea66e1ada8743c537b5a4ccc2a87490d */\n      0x2df3f0489ee7459dcd5b8782beb2364dea66e1ada8743c537b5a4ccc2a87490d\n        /* \"verifier.sol\":7210:7537  Pairing.G2Point([uint256(0x2ea0755cdafbcdf3618a816638cfbb3e8b9bc2b9d9fdbb567fd9c59d3d62b89c), uint256(0x2df3f0489ee7459dcd5b8782beb2364dea66e1ada8743c537b5a4ccc2a87490d)], [uint256(0x241839646b28f60b6c5b8ed4b53ce041def39b7c6c8f355cdf22f60a8f7c8a97), uint256(0x1231f39bdf173426047abca3739c01b6d12ed0aea06569d092cbe4f9e875a52b)]) */\n      dup2\n      mstore\n      pop\n      dup2\n      mstore\n      0x20\n      add\n      mload(0x40)\n      dup1\n      0x40\n      add\n      0x40\n      mstore\n      dup1\n        /* \"verifier.sol\":7391:7457  0x241839646b28f60b6c5b8ed4b53ce041def39b7c6c8f355cdf22f60a8f7c8a97 */\n      0x241839646b28f60b6c5b8ed4b53ce041def39b7c6c8f355cdf22f60a8f7c8a97\n        /* \"verifier.sol\":7210:7537  Pairing.G2Point([uint256(0x2ea0755cdafbcdf3618a816638cfbb3e8b9bc2b9d9fdbb567fd9c59d3d62b89c), uint256(0x2df3f0489ee7459dcd5b8782beb2364dea66e1ada8743c537b5a4ccc2a87490d)], [uint256(0x241839646b28f60b6c5b8ed4b53ce041def39b7c6c8f355cdf22f60a8f7c8a97), uint256(0x1231f39bdf173426047abca3739c01b6d12ed0aea06569d092cbe4f9e875a52b)]) */\n      dup2\n      mstore\n      0x20\n      add\n        /* \"verifier.sol\":7468:7534  0x1231f39bdf173426047abca3739c01b6d12ed0aea06569d092cbe4f9e875a52b */\n      0x1231f39bdf173426047abca3739c01b6d12ed0aea06569d092cbe4f9e875a52b\n        /* \"verifier.sol\":7210:7537  Pairing.G2Point([uint256(0x2ea0755cdafbcdf3618a816638cfbb3e8b9bc2b9d9fdbb567fd9c59d3d62b89c), uint256(0x2df3f0489ee7459dcd5b8782beb2364dea66e1ada8743c537b5a4ccc2a87490d)], [uint256(0x241839646b28f60b6c5b8ed4b53ce041def39b7c6c8f355cdf22f60a8f7c8a97), uint256(0x1231f39bdf173426047abca3739c01b6d12ed0aea06569d092cbe4f9e875a52b)]) */\n      dup2\n      mstore\n      pop\n      dup2\n      mstore\n      pop\n        /* \"verifier.sol\":7199:7201  vk */\n      dup2\n        /* \"verifier.sol\":7199:7207  vk.gamma */\n      0x40\n      add\n        /* \"verifier.sol\":7199:7537  vk.gamma = Pairing.G2Point([uint256(0x2ea0755cdafbcdf3618a816638cfbb3e8b9bc2b9d9fdbb567fd9c59d3d62b89c), uint256(0x2df3f0489ee7459dcd5b8782beb2364dea66e1ada8743c537b5a4ccc2a87490d)], [uint256(0x241839646b28f60b6c5b8ed4b53ce041def39b7c6c8f355cdf22f60a8f7c8a97), uint256(0x1231f39bdf173426047abca3739c01b6d12ed0aea06569d092cbe4f9e875a52b)]) */\n      dup2\n      swap1\n      mstore\n      pop\n        /* \"verifier.sol\":7558:7885  Pairing.G2Point([uint256(0x2658ffb02a5761000a58fedefdff81229b1c9a65005391e9fcf97cb1dad76db0), uint256(0x0e554ce08c1a2da9855359b951b92f09c10edf8bba7e7bef0c929e7e460e3d05)], [uint256(0x236199e5293dae8270c322b940144d4c12994be1f86aff50869af957e54a877e), uint256(0x20efc074b3d67fa539ce9662bc4dc5714e95f61bb781ddc351f86cdf031437e3)]) */\n      mload(0x40)\n      dup1\n      0x40\n      add\n      0x40\n      mstore\n      dup1\n      mload(0x40)\n      dup1\n      0x40\n      add\n      0x40\n      mstore\n      dup1\n        /* \"verifier.sol\":7583:7649  0x2658ffb02a5761000a58fedefdff81229b1c9a65005391e9fcf97cb1dad76db0 */\n      0x2658ffb02a5761000a58fedefdff81229b1c9a65005391e9fcf97cb1dad76db0\n        /* \"verifier.sol\":7558:7885  Pairing.G2Point([uint256(0x2658ffb02a5761000a58fedefdff81229b1c9a65005391e9fcf97cb1dad76db0), uint256(0x0e554ce08c1a2da9855359b951b92f09c10edf8bba7e7bef0c929e7e460e3d05)], [uint256(0x236199e5293dae8270c322b940144d4c12994be1f86aff50869af957e54a877e), uint256(0x20efc074b3d67fa539ce9662bc4dc5714e95f61bb781ddc351f86cdf031437e3)]) */\n      dup2\n      mstore\n      0x20\n      add\n        /* \"verifier.sol\":7660:7726  0x0e554ce08c1a2da9855359b951b92f09c10edf8bba7e7bef0c929e7e460e3d05 */\n      0x0e554ce08c1a2da9855359b951b92f09c10edf8bba7e7bef0c929e7e460e3d05\n        /* \"verifier.sol\":7558:7885  Pairing.G2Point([uint256(0x2658ffb02a5761000a58fedefdff81229b1c9a65005391e9fcf97cb1dad76db0), uint256(0x0e554ce08c1a2da9855359b951b92f09c10edf8bba7e7bef0c929e7e460e3d05)], [uint256(0x236199e5293dae8270c322b940144d4c12994be1f86aff50869af957e54a877e), uint256(0x20efc074b3d67fa539ce9662bc4dc5714e95f61bb781ddc351f86cdf031437e3)]) */\n      dup2\n      mstore\n      pop\n      dup2\n      mstore\n      0x20\n      add\n      mload(0x40)\n      dup1\n      0x40\n      add\n      0x40\n      mstore\n      dup1\n        /* \"verifier.sol\":7739:7805  0x236199e5293dae8270c322b940144d4c12994be1f86aff50869af957e54a877e */\n      0x236199e5293dae8270c322b940144d4c12994be1f86aff50869af957e54a877e\n        /* \"verifier.sol\":7558:7885  Pairing.G2Point([uint256(0x2658ffb02a5761000a58fedefdff81229b1c9a65005391e9fcf97cb1dad76db0), uint256(0x0e554ce08c1a2da9855359b951b92f09c10edf8bba7e7bef0c929e7e460e3d05)], [uint256(0x236199e5293dae8270c322b940144d4c12994be1f86aff50869af957e54a877e), uint256(0x20efc074b3d67fa539ce9662bc4dc5714e95f61bb781ddc351f86cdf031437e3)]) */\n      dup2\n      mstore\n      0x20\n      add\n        /* \"verifier.sol\":7816:7882  0x20efc074b3d67fa539ce9662bc4dc5714e95f61bb781ddc351f86cdf031437e3 */\n      0x20efc074b3d67fa539ce9662bc4dc5714e95f61bb781ddc351f86cdf031437e3\n        /* \"verifier.sol\":7558:7885  Pairing.G2Point([uint256(0x2658ffb02a5761000a58fedefdff81229b1c9a65005391e9fcf97cb1dad76db0), uint256(0x0e554ce08c1a2da9855359b951b92f09c10edf8bba7e7bef0c929e7e460e3d05)], [uint256(0x236199e5293dae8270c322b940144d4c12994be1f86aff50869af957e54a877e), uint256(0x20efc074b3d67fa539ce9662bc4dc5714e95f61bb781ddc351f86cdf031437e3)]) */\n      dup2\n      mstore\n      pop\n      dup2\n      mstore\n      pop\n        /* \"verifier.sol\":7547:7549  vk */\n      dup2\n        /* \"verifier.sol\":7547:7555  vk.delta */\n      0x60\n      add\n        /* \"verifier.sol\":7547:7885  vk.delta = Pairing.G2Point([uint256(0x2658ffb02a5761000a58fedefdff81229b1c9a65005391e9fcf97cb1dad76db0), uint256(0x0e554ce08c1a2da9855359b951b92f09c10edf8bba7e7bef0c929e7e460e3d05)], [uint256(0x236199e5293dae8270c322b940144d4c12994be1f86aff50869af957e54a877e), uint256(0x20efc074b3d67fa539ce9662bc4dc5714e95f61bb781ddc351f86cdf031437e3)]) */\n      dup2\n      swap1\n      mstore\n      pop\n        /* \"verifier.sol\":7932:7933  3 */\n      0x03\n        /* \"verifier.sol\":7910:7934  new Pairing.G1Point[](3) */\n      0xffffffffffffffff\n      dup2\n      gt\n      iszero\n      tag_61\n      jumpi\n      tag_62\n      tag_13\n      jump\t// in\n    tag_62:\n    tag_61:\n      mload(0x40)\n      swap1\n      dup1\n      dup3\n      mstore\n      dup1\n      0x20\n      mul\n      0x20\n      add\n      dup3\n      add\n      0x40\n      mstore\n      dup1\n      iszero\n      tag_63\n      jumpi\n      dup2\n      0x20\n      add\n    tag_64:\n      tag_65\n      tag_66\n      jump\t// in\n    tag_65:\n      dup2\n      mstore\n      0x20\n      add\n      swap1\n      0x01\n      swap1\n      sub\n      swap1\n      dup2\n      tag_64\n      jumpi\n      swap1\n      pop\n    tag_63:\n      pop\n        /* \"verifier.sol\":7895:7897  vk */\n      dup2\n        /* \"verifier.sol\":7895:7907  vk.gamma_abc */\n      0x80\n      add\n        /* \"verifier.sol\":7895:7934  vk.gamma_abc = new Pairing.G1Point[](3) */\n      dup2\n      swap1\n      mstore\n      pop\n        /* \"verifier.sol\":7962:8131  Pairing.G1Point(uint256(0x2449b06d27b48336767b5d8bc4d52ce228cc60ee92630a6c222ef9e503d7cea5), uint256(0x1ca11db41c01dbcd955f04fbea589ac80c864c58ca5aa5285d6b2e3302245750)) */\n      mload(0x40)\n      dup1\n      0x40\n      add\n      0x40\n      mstore\n      dup1\n        /* \"verifier.sol\":7986:8052  0x2449b06d27b48336767b5d8bc4d52ce228cc60ee92630a6c222ef9e503d7cea5 */\n      0x2449b06d27b48336767b5d8bc4d52ce228cc60ee92630a6c222ef9e503d7cea5\n        /* \"verifier.sol\":7962:8131  Pairing.G1Point(uint256(0x2449b06d27b48336767b5d8bc4d52ce228cc60ee92630a6c222ef9e503d7cea5), uint256(0x1ca11db41c01dbcd955f04fbea589ac80c864c58ca5aa5285d6b2e3302245750)) */\n      dup2\n      mstore\n      0x20\n      add\n        /* \"verifier.sol\":8063:8129  0x1ca11db41c01dbcd955f04fbea589ac80c864c58ca5aa5285d6b2e3302245750 */\n      0x1ca11db41c01dbcd955f04fbea589ac80c864c58ca5aa5285d6b2e3302245750\n        /* \"verifier.sol\":7962:8131  Pairing.G1Point(uint256(0x2449b06d27b48336767b5d8bc4d52ce228cc60ee92630a6c222ef9e503d7cea5), uint256(0x1ca11db41c01dbcd955f04fbea589ac80c864c58ca5aa5285d6b2e3302245750)) */\n      dup2\n      mstore\n      pop\n        /* \"verifier.sol\":7944:7946  vk */\n      dup2\n        /* \"verifier.sol\":7944:7956  vk.gamma_abc */\n      0x80\n      add\n      mload\n        /* \"verifier.sol\":7957:7958  0 */\n      0x00\n        /* \"verifier.sol\":7944:7959  vk.gamma_abc[0] */\n      dup2\n      mload\n      dup2\n      lt\n      tag_67\n      jumpi\n      tag_68\n      tag_20\n      jump\t// in\n    tag_68:\n    tag_67:\n      0x20\n      mul\n      0x20\n      add\n      add\n        /* \"verifier.sol\":7944:8131  vk.gamma_abc[0] = Pairing.G1Point(uint256(0x2449b06d27b48336767b5d8bc4d52ce228cc60ee92630a6c222ef9e503d7cea5), uint256(0x1ca11db41c01dbcd955f04fbea589ac80c864c58ca5aa5285d6b2e3302245750)) */\n      dup2\n      swap1\n      mstore\n      pop\n        /* \"verifier.sol\":8159:8328  Pairing.G1Point(uint256(0x17a9beae3e09c309278103e632111b91b6c9d640f951d3aeac03591da8ae40b5), uint256(0x206e10fcb53fb98deea10f1d28f421df58f36c8e112377605ec75c6ae659ba16)) */\n      mload(0x40)\n      dup1\n      0x40\n      add\n      0x40\n      mstore\n      dup1\n        /* \"verifier.sol\":8183:8249  0x17a9beae3e09c309278103e632111b91b6c9d640f951d3aeac03591da8ae40b5 */\n      0x17a9beae3e09c309278103e632111b91b6c9d640f951d3aeac03591da8ae40b5\n        /* \"verifier.sol\":8159:8328  Pairing.G1Point(uint256(0x17a9beae3e09c309278103e632111b91b6c9d640f951d3aeac03591da8ae40b5), uint256(0x206e10fcb53fb98deea10f1d28f421df58f36c8e112377605ec75c6ae659ba16)) */\n      dup2\n      mstore\n      0x20\n      add\n        /* \"verifier.sol\":8260:8326  0x206e10fcb53fb98deea10f1d28f421df58f36c8e112377605ec75c6ae659ba16 */\n      0x206e10fcb53fb98deea10f1d28f421df58f36c8e112377605ec75c6ae659ba16\n        /* \"verifier.sol\":8159:8328  Pairing.G1Point(uint256(0x17a9beae3e09c309278103e632111b91b6c9d640f951d3aeac03591da8ae40b5), uint256(0x206e10fcb53fb98deea10f1d28f421df58f36c8e112377605ec75c6ae659ba16)) */\n      dup2\n      mstore\n      pop\n        /* \"verifier.sol\":8141:8143  vk */\n      dup2\n        /* \"verifier.sol\":8141:8153  vk.gamma_abc */\n      0x80\n      add\n      mload\n        /* \"verifier.sol\":8154:8155  1 */\n      0x01\n        /* \"verifier.sol\":8141:8156  vk.gamma_abc[1] */\n      dup2\n      mload\n      dup2\n      lt\n      tag_69\n      jumpi\n      tag_70\n      tag_20\n      jump\t// in\n    tag_70:\n    tag_69:\n      0x20\n      mul\n      0x20\n      add\n      add\n        /* \"verifier.sol\":8141:8328  vk.gamma_abc[1] = Pairing.G1Point(uint256(0x17a9beae3e09c309278103e632111b91b6c9d640f951d3aeac03591da8ae40b5), uint256(0x206e10fcb53fb98deea10f1d28f421df58f36c8e112377605ec75c6ae659ba16)) */\n      dup2\n      swap1\n      mstore\n      pop\n        /* \"verifier.sol\":8356:8525  Pairing.G1Point(uint256(0x11314268e0c3005c6ca1091e87af9b5a4d47b502fd78438ce37ce21c695a150f), uint256(0x0990366392596fe4448bfac48faf76b4ef813f4af858627007105c6bc94cef7c)) */\n      mload(0x40)\n      dup1\n      0x40\n      add\n      0x40\n      mstore\n      dup1\n        /* \"verifier.sol\":8380:8446  0x11314268e0c3005c6ca1091e87af9b5a4d47b502fd78438ce37ce21c695a150f */\n      0x11314268e0c3005c6ca1091e87af9b5a4d47b502fd78438ce37ce21c695a150f\n        /* \"verifier.sol\":8356:8525  Pairing.G1Point(uint256(0x11314268e0c3005c6ca1091e87af9b5a4d47b502fd78438ce37ce21c695a150f), uint256(0x0990366392596fe4448bfac48faf76b4ef813f4af858627007105c6bc94cef7c)) */\n      dup2\n      mstore\n      0x20\n      add\n        /* \"verifier.sol\":8457:8523  0x0990366392596fe4448bfac48faf76b4ef813f4af858627007105c6bc94cef7c */\n      0x0990366392596fe4448bfac48faf76b4ef813f4af858627007105c6bc94cef7c\n        /* \"verifier.sol\":8356:8525  Pairing.G1Point(uint256(0x11314268e0c3005c6ca1091e87af9b5a4d47b502fd78438ce37ce21c695a150f), uint256(0x0990366392596fe4448bfac48faf76b4ef813f4af858627007105c6bc94cef7c)) */\n      dup2\n      mstore\n      pop\n        /* \"verifier.sol\":8338:8340  vk */\n      dup2\n        /* \"verifier.sol\":8338:8350  vk.gamma_abc */\n      0x80\n      add\n      mload\n        /* \"verifier.sol\":8351:8352  2 */\n      0x02\n        /* \"verifier.sol\":8338:8353  vk.gamma_abc[2] */\n      dup2\n      mload\n      dup2\n      lt\n      tag_71\n      jumpi\n      tag_72\n      tag_20\n      jump\t// in\n    tag_72:\n    tag_71:\n      0x20\n      mul\n      0x20\n      add\n      add\n        /* \"verifier.sol\":8338:8525  vk.gamma_abc[2] = Pairing.G1Point(uint256(0x11314268e0c3005c6ca1091e87af9b5a4d47b502fd78438ce37ce21c695a150f), uint256(0x0990366392596fe4448bfac48faf76b4ef813f4af858627007105c6bc94cef7c)) */\n      dup2\n      swap1\n      mstore\n      pop\n        /* \"verifier.sol\":6581:8532  function verifyingKey() pure internal returns (VerifyingKey memory vk) {... */\n      swap1\n      jump\t// out\n        /* \"verifier.sol\":3082:3536  function scalar_mul(G1Point memory p, uint s) internal view returns (G1Point memory r) {... */\n    tag_46:\n        /* \"verifier.sol\":3151:3167  G1Point memory r */\n      tag_73\n      tag_66\n      jump\t// in\n    tag_73:\n        /* \"verifier.sol\":3179:3199  uint[3] memory input */\n      tag_75\n      tag_76\n      jump\t// in\n    tag_75:\n        /* \"verifier.sol\":3220:3221  p */\n      dup4\n        /* \"verifier.sol\":3220:3223  p.X */\n      0x00\n      add\n      mload\n        /* \"verifier.sol\":3209:3214  input */\n      dup2\n        /* \"verifier.sol\":3215:3216  0 */\n      0x00\n        /* \"verifier.sol\":3209:3217  input[0] */\n      0x03\n      dup2\n      lt\n      tag_77\n      jumpi\n      tag_78\n      tag_20\n      jump\t// in\n    tag_78:\n    tag_77:\n      0x20\n      mul\n      add\n        /* \"verifier.sol\":3209:3223  input[0] = p.X */\n      dup2\n      dup2\n      mstore\n      pop\n      pop\n        /* \"verifier.sol\":3244:3245  p */\n      dup4\n        /* \"verifier.sol\":3244:3247  p.Y */\n      0x20\n      add\n      mload\n        /* \"verifier.sol\":3233:3238  input */\n      dup2\n        /* \"verifier.sol\":3239:3240  1 */\n      0x01\n        /* \"verifier.sol\":3233:3241  input[1] */\n      0x03\n      dup2\n      lt\n      tag_79\n      jumpi\n      tag_80\n      tag_20\n      jump\t// in\n    tag_80:\n    tag_79:\n      0x20\n      mul\n      add\n        /* \"verifier.sol\":3233:3247  input[1] = p.Y */\n      dup2\n      dup2\n      mstore\n      pop\n      pop\n        /* \"verifier.sol\":3268:3269  s */\n      dup3\n        /* \"verifier.sol\":3257:3262  input */\n      dup2\n        /* \"verifier.sol\":3263:3264  2 */\n      0x02\n        /* \"verifier.sol\":3257:3265  input[2] */\n      0x03\n      dup2\n      lt\n      tag_81\n      jumpi\n      tag_82\n      tag_20\n      jump\t// in\n    tag_82:\n    tag_81:\n      0x20\n      mul\n      add\n        /* \"verifier.sol\":3257:3269  input[2] = s */\n      dup2\n      dup2\n      mstore\n      pop\n      pop\n        /* \"verifier.sol\":3279:3291  bool success */\n      0x00\n        /* \"verifier.sol\":3383:3387  0x60 */\n      0x60\n        /* \"verifier.sol\":3380:3381  r */\n      dup4\n        /* \"verifier.sol\":3374:3378  0x80 */\n      0x80\n        /* \"verifier.sol\":3367:3372  input */\n      dup5\n        /* \"verifier.sol\":3364:3365  7 */\n      0x07\n        /* \"verifier.sol\":3357:3361  2000 */\n      0x07d0\n        /* \"verifier.sol\":3350:3355  gas() */\n      gas\n        /* \"verifier.sol\":3346:3362  sub(gas(), 2000) */\n      sub\n        /* \"verifier.sol\":3335:3388  staticcall(sub(gas(), 2000), 7, input, 0x80, r, 0x60) */\n      staticcall\n        /* \"verifier.sol\":3324:3388  success := staticcall(sub(gas(), 2000), 7, input, 0x80, r, 0x60) */\n      swap1\n      pop\n        /* \"verifier.sol\":3465:3472  success */\n      dup1\n        /* \"verifier.sol\":3478:3479  0 */\n      0x00\n        /* \"verifier.sol\":3473:3493  case 0 { invalid() } */\n      dup2\n      sub\n        /* \"verifier.sol\":3458:3493  switch success case 0 { invalid() } */\n      tag_83\n        /* \"verifier.sol\":3473:3493  case 0 { invalid() } */\n      jumpi\n        /* \"verifier.sol\":3482:3491  invalid() */\n      invalid\n        /* \"verifier.sol\":3458:3493  switch success case 0 { invalid() } */\n    tag_83:\n      pop\n        /* \"verifier.sol\":3521:3528  success */\n      dup1\n        /* \"verifier.sol\":3512:3529  require (success) */\n      tag_85\n      jumpi\n      0x00\n      dup1\n      revert\n    tag_85:\n        /* \"verifier.sol\":3169:3536  {... */\n      pop\n      pop\n        /* \"verifier.sol\":3082:3536  function scalar_mul(G1Point memory p, uint s) internal view returns (G1Point memory r) {... */\n      swap3\n      swap2\n      pop\n      pop\n      jump\t// out\n        /* \"verifier.sol\":2432:2925  function addition(G1Point memory p1, G1Point memory p2) internal view returns (G1Point memory r) {... */\n    tag_47:\n        /* \"verifier.sol\":2511:2527  G1Point memory r */\n      tag_86\n      tag_66\n      jump\t// in\n    tag_86:\n        /* \"verifier.sol\":2539:2559  uint[4] memory input */\n      tag_88\n      tag_89\n      jump\t// in\n    tag_88:\n        /* \"verifier.sol\":2580:2582  p1 */\n      dup4\n        /* \"verifier.sol\":2580:2584  p1.X */\n      0x00\n      add\n      mload\n        /* \"verifier.sol\":2569:2574  input */\n      dup2\n        /* \"verifier.sol\":2575:2576  0 */\n      0x00\n        /* \"verifier.sol\":2569:2577  input[0] */\n      0x04\n      dup2\n      lt\n      tag_90\n      jumpi\n      tag_91\n      tag_20\n      jump\t// in\n    tag_91:\n    tag_90:\n      0x20\n      mul\n      add\n        /* \"verifier.sol\":2569:2584  input[0] = p1.X */\n      dup2\n      dup2\n      mstore\n      pop\n      pop\n        /* \"verifier.sol\":2605:2607  p1 */\n      dup4\n        /* \"verifier.sol\":2605:2609  p1.Y */\n      0x20\n      add\n      mload\n        /* \"verifier.sol\":2594:2599  input */\n      dup2\n        /* \"verifier.sol\":2600:2601  1 */\n      0x01\n        /* \"verifier.sol\":2594:2602  input[1] */\n      0x04\n      dup2\n      lt\n      tag_92\n      jumpi\n      tag_93\n      tag_20\n      jump\t// in\n    tag_93:\n    tag_92:\n      0x20\n      mul\n      add\n        /* \"verifier.sol\":2594:2609  input[1] = p1.Y */\n      dup2\n      dup2\n      mstore\n      pop\n      pop\n        /* \"verifier.sol\":2630:2632  p2 */\n      dup3\n        /* \"verifier.sol\":2630:2634  p2.X */\n      0x00\n      add\n      mload\n        /* \"verifier.sol\":2619:2624  input */\n      dup2\n        /* \"verifier.sol\":2625:2626  2 */\n      0x02\n        /* \"verifier.sol\":2619:2627  input[2] */\n      0x04\n      dup2\n      lt\n      tag_94\n      jumpi\n      tag_95\n      tag_20\n      jump\t// in\n    tag_95:\n    tag_94:\n      0x20\n      mul\n      add\n        /* \"verifier.sol\":2619:2634  input[2] = p2.X */\n      dup2\n      dup2\n      mstore\n      pop\n      pop\n        /* \"verifier.sol\":2655:2657  p2 */\n      dup3\n        /* \"verifier.sol\":2655:2659  p2.Y */\n      0x20\n      add\n      mload\n        /* \"verifier.sol\":2644:2649  input */\n      dup2\n        /* \"verifier.sol\":2650:2651  3 */\n      0x03\n        /* \"verifier.sol\":2644:2652  input[3] */\n      0x04\n      dup2\n      lt\n      tag_96\n      jumpi\n      tag_97\n      tag_20\n      jump\t// in\n    tag_97:\n    tag_96:\n      0x20\n      mul\n      add\n        /* \"verifier.sol\":2644:2659  input[3] = p2.Y */\n      dup2\n      dup2\n      mstore\n      pop\n      pop\n        /* \"verifier.sol\":2669:2681  bool success */\n      0x00\n        /* \"verifier.sol\":2773:2777  0x60 */\n      0x60\n        /* \"verifier.sol\":2770:2771  r */\n      dup4\n        /* \"verifier.sol\":2764:2768  0xc0 */\n      0xc0\n        /* \"verifier.sol\":2757:2762  input */\n      dup5\n        /* \"verifier.sol\":2754:2755  6 */\n      0x06\n        /* \"verifier.sol\":2747:2751  2000 */\n      0x07d0\n        /* \"verifier.sol\":2740:2745  gas() */\n      gas\n        /* \"verifier.sol\":2736:2752  sub(gas(), 2000) */\n      sub\n        /* \"verifier.sol\":2725:2778  staticcall(sub(gas(), 2000), 6, input, 0xc0, r, 0x60) */\n      staticcall\n        /* \"verifier.sol\":2714:2778  success := staticcall(sub(gas(), 2000), 6, input, 0xc0, r, 0x60) */\n      swap1\n      pop\n        /* \"verifier.sol\":2855:2862  success */\n      dup1\n        /* \"verifier.sol\":2868:2869  0 */\n      0x00\n        /* \"verifier.sol\":2863:2883  case 0 { invalid() } */\n      dup2\n      sub\n        /* \"verifier.sol\":2848:2883  switch success case 0 { invalid() } */\n      tag_98\n        /* \"verifier.sol\":2863:2883  case 0 { invalid() } */\n      jumpi\n        /* \"verifier.sol\":2872:2881  invalid() */\n      invalid\n        /* \"verifier.sol\":2848:2883  switch success case 0 { invalid() } */\n    tag_98:\n      pop\n        /* \"verifier.sol\":2910:2917  success */\n      dup1\n        /* \"verifier.sol\":2902:2918  require(success) */\n      tag_100\n      jumpi\n      0x00\n      dup1\n      revert\n    tag_100:\n        /* \"verifier.sol\":2529:2925  {... */\n      pop\n      pop\n        /* \"verifier.sol\":2432:2925  function addition(G1Point memory p1, G1Point memory p2) internal view returns (G1Point memory r) {... */\n      swap3\n      swap2\n      pop\n      pop\n      jump\t// out\n        /* \"verifier.sol\":2041:2381  function negate(G1Point memory p) pure internal returns (G1Point memory) {... */\n    tag_53:\n        /* \"verifier.sol\":2098:2112  G1Point memory */\n      tag_101\n      tag_66\n      jump\t// in\n    tag_101:\n        /* \"verifier.sol\":2176:2182  uint q */\n      0x00\n        /* \"verifier.sol\":2185:2262  21888242871839275222246405745257275088696311157297823662689037894645226208583 */\n      0x30644e72e131a029b85045b68181585d97816a916871ca8d3c208c16d87cfd47\n        /* \"verifier.sol\":2176:2262  uint q = 21888242871839275222246405745257275088696311157297823662689037894645226208583 */\n      swap1\n      pop\n        /* \"verifier.sol\":2283:2284  0 */\n      0x00\n        /* \"verifier.sol\":2276:2277  p */\n      dup4\n        /* \"verifier.sol\":2276:2279  p.X */\n      0x00\n      add\n      mload\n        /* \"verifier.sol\":2276:2284  p.X == 0 */\n      eq\n        /* \"verifier.sol\":2276:2296  p.X == 0 && p.Y == 0 */\n      dup1\n      iszero\n      tag_103\n      jumpi\n      pop\n        /* \"verifier.sol\":2295:2296  0 */\n      0x00\n        /* \"verifier.sol\":2288:2289  p */\n      dup4\n        /* \"verifier.sol\":2288:2291  p.Y */\n      0x20\n      add\n      mload\n        /* \"verifier.sol\":2288:2296  p.Y == 0 */\n      eq\n        /* \"verifier.sol\":2276:2296  p.X == 0 && p.Y == 0 */\n    tag_103:\n        /* \"verifier.sol\":2272:2330  if (p.X == 0 && p.Y == 0)... */\n      iszero\n      tag_104\n      jumpi\n        /* \"verifier.sol\":2317:2330  G1Point(0, 0) */\n      mload(0x40)\n      dup1\n      0x40\n      add\n      0x40\n      mstore\n      dup1\n        /* \"verifier.sol\":2325:2326  0 */\n      0x00\n        /* \"verifier.sol\":2317:2330  G1Point(0, 0) */\n      dup2\n      mstore\n      0x20\n      add\n        /* \"verifier.sol\":2328:2329  0 */\n      0x00\n        /* \"verifier.sol\":2317:2330  G1Point(0, 0) */\n      dup2\n      mstore\n      pop\n        /* \"verifier.sol\":2310:2330  return G1Point(0, 0) */\n      swap2\n      pop\n      pop\n      jump(tag_102)\n        /* \"verifier.sol\":2272:2330  if (p.X == 0 && p.Y == 0)... */\n    tag_104:\n        /* \"verifier.sol\":2347:2374  G1Point(p.X, q - (p.Y % q)) */\n      mload(0x40)\n      dup1\n      0x40\n      add\n      0x40\n      mstore\n      dup1\n        /* \"verifier.sol\":2355:2356  p */\n      dup5\n        /* \"verifier.sol\":2355:2358  p.X */\n      0x00\n      add\n      mload\n        /* \"verifier.sol\":2347:2374  G1Point(p.X, q - (p.Y % q)) */\n      dup2\n      mstore\n      0x20\n      add\n        /* \"verifier.sol\":2371:2372  q */\n      dup3\n        /* \"verifier.sol\":2365:2366  p */\n      dup6\n        /* \"verifier.sol\":2365:2368  p.Y */\n      0x20\n      add\n      mload\n        /* \"verifier.sol\":2365:2372  p.Y % q */\n      tag_105\n      swap2\n      swap1\n      tag_106\n      jump\t// in\n    tag_105:\n        /* \"verifier.sol\":2360:2361  q */\n      dup4\n        /* \"verifier.sol\":2360:2373  q - (p.Y % q) */\n      tag_107\n      swap2\n      swap1\n      tag_108\n      jump\t// in\n    tag_107:\n        /* \"verifier.sol\":2347:2374  G1Point(p.X, q - (p.Y % q)) */\n      dup2\n      mstore\n      pop\n        /* \"verifier.sol\":2340:2374  return G1Point(p.X, q - (p.Y % q)) */\n      swap2\n      pop\n      pop\n        /* \"verifier.sol\":2041:2381  function negate(G1Point memory p) pure internal returns (G1Point memory) {... */\n    tag_102:\n      swap2\n      swap1\n      pop\n      jump\t// out\n        /* \"verifier.sol\":5678:6230  function pairingProd4(... */\n    tag_56:\n        /* \"verifier.sol\":5929:5933  bool */\n      0x00\n        /* \"verifier.sol\":5945:5964  G1Point[] memory p1 */\n      dup1\n        /* \"verifier.sol\":5981:5982  4 */\n      0x04\n        /* \"verifier.sol\":5967:5983  new G1Point[](4) */\n      0xffffffffffffffff\n      dup2\n      gt\n      iszero\n      tag_110\n      jumpi\n      tag_111\n      tag_13\n      jump\t// in\n    tag_111:\n    tag_110:\n      mload(0x40)\n      swap1\n      dup1\n      dup3\n      mstore\n      dup1\n      0x20\n      mul\n      0x20\n      add\n      dup3\n      add\n      0x40\n      mstore\n      dup1\n      iszero\n      tag_112\n      jumpi\n      dup2\n      0x20\n      add\n    tag_113:\n      tag_114\n      tag_66\n      jump\t// in\n    tag_114:\n      dup2\n      mstore\n      0x20\n      add\n      swap1\n      0x01\n      swap1\n      sub\n      swap1\n      dup2\n      tag_113\n      jumpi\n      swap1\n      pop\n    tag_112:\n      pop\n        /* \"verifier.sol\":5945:5983  G1Point[] memory p1 = new G1Point[](4) */\n      swap1\n      pop\n        /* \"verifier.sol\":5993:6012  G2Point[] memory p2 */\n      0x00\n        /* \"verifier.sol\":6029:6030  4 */\n      0x04\n        /* \"verifier.sol\":6015:6031  new G2Point[](4) */\n      0xffffffffffffffff\n      dup2\n      gt\n      iszero\n      tag_115\n      jumpi\n      tag_116\n      tag_13\n      jump\t// in\n    tag_116:\n    tag_115:\n      mload(0x40)\n      swap1\n      dup1\n      dup3\n      mstore\n      dup1\n      0x20\n      mul\n      0x20\n      add\n      dup3\n      add\n      0x40\n      mstore\n      dup1\n      iszero\n      tag_117\n      jumpi\n      dup2\n      0x20\n      add\n    tag_118:\n      tag_119\n      tag_120\n      jump\t// in\n    tag_119:\n      dup2\n      mstore\n      0x20\n      add\n      swap1\n      0x01\n      swap1\n      sub\n      swap1\n      dup2\n      tag_118\n      jumpi\n      swap1\n      pop\n    tag_117:\n      pop\n        /* \"verifier.sol\":5993:6031  G2Point[] memory p2 = new G2Point[](4) */\n      swap1\n      pop\n        /* \"verifier.sol\":6049:6051  a1 */\n      dup11\n        /* \"verifier.sol\":6041:6043  p1 */\n      dup3\n        /* \"verifier.sol\":6044:6045  0 */\n      0x00\n        /* \"verifier.sol\":6041:6046  p1[0] */\n      dup2\n      mload\n      dup2\n      lt\n      tag_121\n      jumpi\n      tag_122\n      tag_20\n      jump\t// in\n    tag_122:\n    tag_121:\n      0x20\n      mul\n      0x20\n      add\n      add\n        /* \"verifier.sol\":6041:6051  p1[0] = a1 */\n      dup2\n      swap1\n      mstore\n      pop\n        /* \"verifier.sol\":6069:6071  b1 */\n      dup9\n        /* \"verifier.sol\":6061:6063  p1 */\n      dup3\n        /* \"verifier.sol\":6064:6065  1 */\n      0x01\n        /* \"verifier.sol\":6061:6066  p1[1] */\n      dup2\n      mload\n      dup2\n      lt\n      tag_123\n      jumpi\n      tag_124\n      tag_20\n      jump\t// in\n    tag_124:\n    tag_123:\n      0x20\n      mul\n      0x20\n      add\n      add\n        /* \"verifier.sol\":6061:6071  p1[1] = b1 */\n      dup2\n      swap1\n      mstore\n      pop\n        /* \"verifier.sol\":6089:6091  c1 */\n      dup7\n        /* \"verifier.sol\":6081:6083  p1 */\n      dup3\n        /* \"verifier.sol\":6084:6085  2 */\n      0x02\n        /* \"verifier.sol\":6081:6086  p1[2] */\n      dup2\n      mload\n      dup2\n      lt\n      tag_125\n      jumpi\n      tag_126\n      tag_20\n      jump\t// in\n    tag_126:\n    tag_125:\n      0x20\n      mul\n      0x20\n      add\n      add\n        /* \"verifier.sol\":6081:6091  p1[2] = c1 */\n      dup2\n      swap1\n      mstore\n      pop\n        /* \"verifier.sol\":6109:6111  d1 */\n      dup5\n        /* \"verifier.sol\":6101:6103  p1 */\n      dup3\n        /* \"verifier.sol\":6104:6105  3 */\n      0x03\n        /* \"verifier.sol\":6101:6106  p1[3] */\n      dup2\n      mload\n      dup2\n      lt\n      tag_127\n      jumpi\n      tag_128\n      tag_20\n      jump\t// in\n    tag_128:\n    tag_127:\n      0x20\n      mul\n      0x20\n      add\n      add\n        /* \"verifier.sol\":6101:6111  p1[3] = d1 */\n      dup2\n      swap1\n      mstore\n      pop\n        /* \"verifier.sol\":6129:6131  a2 */\n      dup10\n        /* \"verifier.sol\":6121:6123  p2 */\n      dup2\n        /* \"verifier.sol\":6124:6125  0 */\n      0x00\n        /* \"verifier.sol\":6121:6126  p2[0] */\n      dup2\n      mload\n      dup2\n      lt\n      tag_129\n      jumpi\n      tag_130\n      tag_20\n      jump\t// in\n    tag_130:\n    tag_129:\n      0x20\n      mul\n      0x20\n      add\n      add\n        /* \"verifier.sol\":6121:6131  p2[0] = a2 */\n      dup2\n      swap1\n      mstore\n      pop\n        /* \"verifier.sol\":6149:6151  b2 */\n      dup8\n        /* \"verifier.sol\":6141:6143  p2 */\n      dup2\n        /* \"verifier.sol\":6144:6145  1 */\n      0x01\n        /* \"verifier.sol\":6141:6146  p2[1] */\n      dup2\n      mload\n      dup2\n      lt\n      tag_131\n      jumpi\n      tag_132\n      tag_20\n      jump\t// in\n    tag_132:\n    tag_131:\n      0x20\n      mul\n      0x20\n      add\n      add\n        /* \"verifier.sol\":6141:6151  p2[1] = b2 */\n      dup2\n      swap1\n      mstore\n      pop\n        /* \"verifier.sol\":6169:6171  c2 */\n      dup6\n        /* \"verifier.sol\":6161:6163  p2 */\n      dup2\n        /* \"verifier.sol\":6164:6165  2 */\n      0x02\n        /* \"verifier.sol\":6161:6166  p2[2] */\n      dup2\n      mload\n      dup2\n      lt\n      tag_133\n      jumpi\n      tag_134\n      tag_20\n      jump\t// in\n    tag_134:\n    tag_133:\n      0x20\n      mul\n      0x20\n      add\n      add\n        /* \"verifier.sol\":6161:6171  p2[2] = c2 */\n      dup2\n      swap1\n      mstore\n      pop\n        /* \"verifier.sol\":6189:6191  d2 */\n      dup4\n        /* \"verifier.sol\":6181:6183  p2 */\n      dup2\n        /* \"verifier.sol\":6184:6185  3 */\n      0x03\n        /* \"verifier.sol\":6181:6186  p2[3] */\n      dup2\n      mload\n      dup2\n      lt\n      tag_135\n      jumpi\n      tag_136\n      tag_20\n      jump\t// in\n    tag_136:\n    tag_135:\n      0x20\n      mul\n      0x20\n      add\n      add\n        /* \"verifier.sol\":6181:6191  p2[3] = d2 */\n      dup2\n      swap1\n      mstore\n      pop\n        /* \"verifier.sol\":6208:6223  pairing(p1, p2) */\n      tag_137\n        /* \"verifier.sol\":6216:6218  p1 */\n      dup3\n        /* \"verifier.sol\":6220:6222  p2 */\n      dup3\n        /* \"verifier.sol\":6208:6215  pairing */\n      tag_138\n        /* \"verifier.sol\":6208:6223  pairing(p1, p2) */\n      jump\t// in\n    tag_137:\n        /* \"verifier.sol\":6201:6223  return pairing(p1, p2) */\n      swap3\n      pop\n      pop\n      pop\n        /* \"verifier.sol\":5678:6230  function pairingProd4(... */\n      swap9\n      swap8\n      pop\n      pop\n      pop\n      pop\n      pop\n      pop\n      pop\n      pop\n      jump\t// out\n        /* \"verifier.sol\":3747:4670  function pairing(G1Point[] memory p1, G2Point[] memory p2) internal view returns (bool) {... */\n    tag_138:\n        /* \"verifier.sol\":3829:3833  bool */\n      0x00\n        /* \"verifier.sol\":3866:3868  p2 */\n      dup2\n        /* \"verifier.sol\":3866:3875  p2.length */\n      mload\n        /* \"verifier.sol\":3853:3855  p1 */\n      dup4\n        /* \"verifier.sol\":3853:3862  p1.length */\n      mload\n        /* \"verifier.sol\":3853:3875  p1.length == p2.length */\n      eq\n        /* \"verifier.sol\":3845:3876  require(p1.length == p2.length) */\n      tag_140\n      jumpi\n      0x00\n      dup1\n      revert\n    tag_140:\n        /* \"verifier.sol\":3886:3899  uint elements */\n      0x00\n        /* \"verifier.sol\":3902:3904  p1 */\n      dup4\n        /* \"verifier.sol\":3902:3911  p1.length */\n      mload\n        /* \"verifier.sol\":3886:3911  uint elements = p1.length */\n      swap1\n      pop\n        /* \"verifier.sol\":3921:3935  uint inputSize */\n      0x00\n        /* \"verifier.sol\":3949:3950  6 */\n      0x06\n        /* \"verifier.sol\":3938:3946  elements */\n      dup3\n        /* \"verifier.sol\":3938:3950  elements * 6 */\n      tag_141\n      swap2\n      swap1\n      tag_142\n      jump\t// in\n    tag_141:\n        /* \"verifier.sol\":3921:3950  uint inputSize = elements * 6 */\n      swap1\n      pop\n        /* \"verifier.sol\":3960:3979  uint[] memory input */\n      0x00\n        /* \"verifier.sol\":3993:4002  inputSize */\n      dup2\n        /* \"verifier.sol\":3982:4003  new uint[](inputSize) */\n      0xffffffffffffffff\n      dup2\n      gt\n      iszero\n      tag_143\n      jumpi\n      tag_144\n      tag_13\n      jump\t// in\n    tag_144:\n    tag_143:\n      mload(0x40)\n      swap1\n      dup1\n      dup3\n      mstore\n      dup1\n      0x20\n      mul\n      0x20\n      add\n      dup3\n      add\n      0x40\n      mstore\n      dup1\n      iszero\n      tag_145\n      jumpi\n      dup2\n      0x20\n      add\n      0x20\n      dup3\n      mul\n      dup1\n      calldatasize\n      dup4\n      calldatacopy\n      dup1\n      dup3\n      add\n      swap2\n      pop\n      pop\n      swap1\n      pop\n    tag_145:\n      pop\n        /* \"verifier.sol\":3960:4003  uint[] memory input = new uint[](inputSize) */\n      swap1\n      pop\n        /* \"verifier.sol\":4018:4024  uint i */\n      0x00\n        /* \"verifier.sol\":4013:4320  for (uint i = 0; i < elements; i++)... */\n    tag_146:\n        /* \"verifier.sol\":4034:4042  elements */\n      dup4\n        /* \"verifier.sol\":4030:4031  i */\n      dup2\n        /* \"verifier.sol\":4030:4042  i < elements */\n      lt\n        /* \"verifier.sol\":4013:4320  for (uint i = 0; i < elements; i++)... */\n      iszero\n      tag_147\n      jumpi\n        /* \"verifier.sol\":4090:4092  p1 */\n      dup7\n        /* \"verifier.sol\":4093:4094  i */\n      dup2\n        /* \"verifier.sol\":4090:4095  p1[i] */\n      dup2\n      mload\n      dup2\n      lt\n      tag_149\n      jumpi\n      tag_150\n      tag_20\n      jump\t// in\n    tag_150:\n    tag_149:\n      0x20\n      mul\n      0x20\n      add\n      add\n      mload\n        /* \"verifier.sol\":4090:4097  p1[i].X */\n      0x00\n      add\n      mload\n        /* \"verifier.sol\":4071:4076  input */\n      dup3\n        /* \"verifier.sol\":4085:4086  0 */\n      0x00\n        /* \"verifier.sol\":4081:4082  6 */\n      0x06\n        /* \"verifier.sol\":4077:4078  i */\n      dup5\n        /* \"verifier.sol\":4077:4082  i * 6 */\n      tag_151\n      swap2\n      swap1\n      tag_142\n      jump\t// in\n    tag_151:\n        /* \"verifier.sol\":4077:4086  i * 6 + 0 */\n      tag_152\n      swap2\n      swap1\n      tag_31\n      jump\t// in\n    tag_152:\n        /* \"verifier.sol\":4071:4087  input[i * 6 + 0] */\n      dup2\n      mload\n      dup2\n      lt\n      tag_153\n      jumpi\n      tag_154\n      tag_20\n      jump\t// in\n    tag_154:\n    tag_153:\n      0x20\n      mul\n      0x20\n      add\n      add\n        /* \"verifier.sol\":4071:4097  input[i * 6 + 0] = p1[i].X */\n      dup2\n      dup2\n      mstore\n      pop\n      pop\n        /* \"verifier.sol\":4130:4132  p1 */\n      dup7\n        /* \"verifier.sol\":4133:4134  i */\n      dup2\n        /* \"verifier.sol\":4130:4135  p1[i] */\n      dup2\n      mload\n      dup2\n      lt\n      tag_155\n      jumpi\n      tag_156\n      tag_20\n      jump\t// in\n    tag_156:\n    tag_155:\n      0x20\n      mul\n      0x20\n      add\n      add\n      mload\n        /* \"verifier.sol\":4130:4137  p1[i].Y */\n      0x20\n      add\n      mload\n        /* \"verifier.sol\":4111:4116  input */\n      dup3\n        /* \"verifier.sol\":4125:4126  1 */\n      0x01\n        /* \"verifier.sol\":4121:4122  6 */\n      0x06\n        /* \"verifier.sol\":4117:4118  i */\n      dup5\n        /* \"verifier.sol\":4117:4122  i * 6 */\n      tag_157\n      swap2\n      swap1\n      tag_142\n      jump\t// in\n    tag_157:\n        /* \"verifier.sol\":4117:4126  i * 6 + 1 */\n      tag_158\n      swap2\n      swap1\n      tag_31\n      jump\t// in\n    tag_158:\n        /* \"verifier.sol\":4111:4127  input[i * 6 + 1] */\n      dup2\n      mload\n      dup2\n      lt\n      tag_159\n      jumpi\n      tag_160\n      tag_20\n      jump\t// in\n    tag_160:\n    tag_159:\n      0x20\n      mul\n      0x20\n      add\n      add\n        /* \"verifier.sol\":4111:4137  input[i * 6 + 1] = p1[i].Y */\n      dup2\n      dup2\n      mstore\n      pop\n      pop\n        /* \"verifier.sol\":4170:4172  p2 */\n      dup6\n        /* \"verifier.sol\":4173:4174  i */\n      dup2\n        /* \"verifier.sol\":4170:4175  p2[i] */\n      dup2\n      mload\n      dup2\n      lt\n      tag_161\n      jumpi\n      tag_162\n      tag_20\n      jump\t// in\n    tag_162:\n    tag_161:\n      0x20\n      mul\n      0x20\n      add\n      add\n      mload\n        /* \"verifier.sol\":4170:4177  p2[i].X */\n      0x00\n      add\n      mload\n        /* \"verifier.sol\":4178:4179  1 */\n      0x01\n        /* \"verifier.sol\":4170:4180  p2[i].X[1] */\n      0x02\n      dup2\n      lt\n      tag_163\n      jumpi\n      tag_164\n      tag_20\n      jump\t// in\n    tag_164:\n    tag_163:\n      0x20\n      mul\n      add\n      mload\n        /* \"verifier.sol\":4151:4156  input */\n      dup3\n        /* \"verifier.sol\":4165:4166  2 */\n      0x02\n        /* \"verifier.sol\":4161:4162  6 */\n      0x06\n        /* \"verifier.sol\":4157:4158  i */\n      dup5\n        /* \"verifier.sol\":4157:4162  i * 6 */\n      tag_165\n      swap2\n      swap1\n      tag_142\n      jump\t// in\n    tag_165:\n        /* \"verifier.sol\":4157:4166  i * 6 + 2 */\n      tag_166\n      swap2\n      swap1\n      tag_31\n      jump\t// in\n    tag_166:\n        /* \"verifier.sol\":4151:4167  input[i * 6 + 2] */\n      dup2\n      mload\n      dup2\n      lt\n      tag_167\n      jumpi\n      tag_168\n      tag_20\n      jump\t// in\n    tag_168:\n    tag_167:\n      0x20\n      mul\n      0x20\n      add\n      add\n        /* \"verifier.sol\":4151:4180  input[i * 6 + 2] = p2[i].X[1] */\n      dup2\n      dup2\n      mstore\n      pop\n      pop\n        /* \"verifier.sol\":4213:4215  p2 */\n      dup6\n        /* \"verifier.sol\":4216:4217  i */\n      dup2\n        /* \"verifier.sol\":4213:4218  p2[i] */\n      dup2\n      mload\n      dup2\n      lt\n      tag_169\n      jumpi\n      tag_170\n      tag_20\n      jump\t// in\n    tag_170:\n    tag_169:\n      0x20\n      mul\n      0x20\n      add\n      add\n      mload\n        /* \"verifier.sol\":4213:4220  p2[i].X */\n      0x00\n      add\n      mload\n        /* \"verifier.sol\":4221:4222  0 */\n      0x00\n        /* \"verifier.sol\":4213:4223  p2[i].X[0] */\n      0x02\n      dup2\n      lt\n      tag_171\n      jumpi\n      tag_172\n      tag_20\n      jump\t// in\n    tag_172:\n    tag_171:\n      0x20\n      mul\n      add\n      mload\n        /* \"verifier.sol\":4194:4199  input */\n      dup3\n        /* \"verifier.sol\":4208:4209  3 */\n      0x03\n        /* \"verifier.sol\":4204:4205  6 */\n      0x06\n        /* \"verifier.sol\":4200:4201  i */\n      dup5\n        /* \"verifier.sol\":4200:4205  i * 6 */\n      tag_173\n      swap2\n      swap1\n      tag_142\n      jump\t// in\n    tag_173:\n        /* \"verifier.sol\":4200:4209  i * 6 + 3 */\n      tag_174\n      swap2\n      swap1\n      tag_31\n      jump\t// in\n    tag_174:\n        /* \"verifier.sol\":4194:4210  input[i * 6 + 3] */\n      dup2\n      mload\n      dup2\n      lt\n      tag_175\n      jumpi\n      tag_176\n      tag_20\n      jump\t// in\n    tag_176:\n    tag_175:\n      0x20\n      mul\n      0x20\n      add\n      add\n        /* \"verifier.sol\":4194:4223  input[i * 6 + 3] = p2[i].X[0] */\n      dup2\n      dup2\n      mstore\n      pop\n      pop\n        /* \"verifier.sol\":4256:4258  p2 */\n      dup6\n        /* \"verifier.sol\":4259:4260  i */\n      dup2\n        /* \"verifier.sol\":4256:4261  p2[i] */\n      dup2\n      mload\n      dup2\n      lt\n      tag_177\n      jumpi\n      tag_178\n      tag_20\n      jump\t// in\n    tag_178:\n    tag_177:\n      0x20\n      mul\n      0x20\n      add\n      add\n      mload\n        /* \"verifier.sol\":4256:4263  p2[i].Y */\n      0x20\n      add\n      mload\n        /* \"verifier.sol\":4264:4265  1 */\n      0x01\n        /* \"verifier.sol\":4256:4266  p2[i].Y[1] */\n      0x02\n      dup2\n      lt\n      tag_179\n      jumpi\n      tag_180\n      tag_20\n      jump\t// in\n    tag_180:\n    tag_179:\n      0x20\n      mul\n      add\n      mload\n        /* \"verifier.sol\":4237:4242  input */\n      dup3\n        /* \"verifier.sol\":4251:4252  4 */\n      0x04\n        /* \"verifier.sol\":4247:4248  6 */\n      0x06\n        /* \"verifier.sol\":4243:4244  i */\n      dup5\n        /* \"verifier.sol\":4243:4248  i * 6 */\n      tag_181\n      swap2\n      swap1\n      tag_142\n      jump\t// in\n    tag_181:\n        /* \"verifier.sol\":4243:4252  i * 6 + 4 */\n      tag_182\n      swap2\n      swap1\n      tag_31\n      jump\t// in\n    tag_182:\n        /* \"verifier.sol\":4237:4253  input[i * 6 + 4] */\n      dup2\n      mload\n      dup2\n      lt\n      tag_183\n      jumpi\n      tag_184\n      tag_20\n      jump\t// in\n    tag_184:\n    tag_183:\n      0x20\n      mul\n      0x20\n      add\n      add\n        /* \"verifier.sol\":4237:4266  input[i * 6 + 4] = p2[i].Y[1] */\n      dup2\n      dup2\n      mstore\n      pop\n      pop\n        /* \"verifier.sol\":4299:4301  p2 */\n      dup6\n        /* \"verifier.sol\":4302:4303  i */\n      dup2\n        /* \"verifier.sol\":4299:4304  p2[i] */\n      dup2\n      mload\n      dup2\n      lt\n      tag_185\n      jumpi\n      tag_186\n      tag_20\n      jump\t// in\n    tag_186:\n    tag_185:\n      0x20\n      mul\n      0x20\n      add\n      add\n      mload\n        /* \"verifier.sol\":4299:4306  p2[i].Y */\n      0x20\n      add\n      mload\n        /* \"verifier.sol\":4307:4308  0 */\n      0x00\n        /* \"verifier.sol\":4299:4309  p2[i].Y[0] */\n      0x02\n      dup2\n      lt\n      tag_187\n      jumpi\n      tag_188\n      tag_20\n      jump\t// in\n    tag_188:\n    tag_187:\n      0x20\n      mul\n      add\n      mload\n        /* \"verifier.sol\":4280:4285  input */\n      dup3\n        /* \"verifier.sol\":4294:4295  5 */\n      0x05\n        /* \"verifier.sol\":4290:4291  6 */\n      0x06\n        /* \"verifier.sol\":4286:4287  i */\n      dup5\n        /* \"verifier.sol\":4286:4291  i * 6 */\n      tag_189\n      swap2\n      swap1\n      tag_142\n      jump\t// in\n    tag_189:\n        /* \"verifier.sol\":4286:4295  i * 6 + 5 */\n      tag_190\n      swap2\n      swap1\n      tag_31\n      jump\t// in\n    tag_190:\n        /* \"verifier.sol\":4280:4296  input[i * 6 + 5] */\n      dup2\n      mload\n      dup2\n      lt\n      tag_191\n      jumpi\n      tag_192\n      tag_20\n      jump\t// in\n    tag_192:\n    tag_191:\n      0x20\n      mul\n      0x20\n      add\n      add\n        /* \"verifier.sol\":4280:4309  input[i * 6 + 5] = p2[i].Y[0] */\n      dup2\n      dup2\n      mstore\n      pop\n      pop\n        /* \"verifier.sol\":4044:4047  i++ */\n      dup1\n      dup1\n      0x01\n      add\n      swap2\n      pop\n      pop\n        /* \"verifier.sol\":4013:4320  for (uint i = 0; i < elements; i++)... */\n      jump(tag_146)\n    tag_147:\n      pop\n        /* \"verifier.sol\":4329:4347  uint[1] memory out */\n      tag_193\n      tag_194\n      jump\t// in\n    tag_193:\n        /* \"verifier.sol\":4357:4369  bool success */\n      0x00\n        /* \"verifier.sol\":4490:4494  0x20 */\n      0x20\n        /* \"verifier.sol\":4485:4488  out */\n      dup3\n        /* \"verifier.sol\":4478:4482  0x20 */\n      0x20\n        /* \"verifier.sol\":4467:4476  inputSize */\n      dup7\n        /* \"verifier.sol\":4463:4483  mul(inputSize, 0x20) */\n      mul\n        /* \"verifier.sol\":4456:4460  0x20 */\n      0x20\n        /* \"verifier.sol\":4449:4454  input */\n      dup7\n        /* \"verifier.sol\":4445:4461  add(input, 0x20) */\n      add\n        /* \"verifier.sol\":4442:4443  8 */\n      0x08\n        /* \"verifier.sol\":4435:4439  2000 */\n      0x07d0\n        /* \"verifier.sol\":4428:4433  gas() */\n      gas\n        /* \"verifier.sol\":4424:4440  sub(gas(), 2000) */\n      sub\n        /* \"verifier.sol\":4413:4495  staticcall(sub(gas(), 2000), 8, add(input, 0x20), mul(inputSize, 0x20), out, 0x20) */\n      staticcall\n        /* \"verifier.sol\":4402:4495  success := staticcall(sub(gas(), 2000), 8, add(input, 0x20), mul(inputSize, 0x20), out, 0x20) */\n      swap1\n      pop\n        /* \"verifier.sol\":4572:4579  success */\n      dup1\n        /* \"verifier.sol\":4585:4586  0 */\n      0x00\n        /* \"verifier.sol\":4580:4600  case 0 { invalid() } */\n      dup2\n      sub\n        /* \"verifier.sol\":4565:4600  switch success case 0 { invalid() } */\n      tag_195\n        /* \"verifier.sol\":4580:4600  case 0 { invalid() } */\n      jumpi\n        /* \"verifier.sol\":4589:4598  invalid() */\n      invalid\n        /* \"verifier.sol\":4565:4600  switch success case 0 { invalid() } */\n    tag_195:\n      pop\n        /* \"verifier.sol\":4627:4634  success */\n      dup1\n        /* \"verifier.sol\":4619:4635  require(success) */\n      tag_197\n      jumpi\n      0x00\n      dup1\n      revert\n    tag_197:\n        /* \"verifier.sol\":4662:4663  0 */\n      0x00\n        /* \"verifier.sol\":4652:4655  out */\n      dup3\n        /* \"verifier.sol\":4656:4657  0 */\n      0x00\n        /* \"verifier.sol\":4652:4658  out[0] */\n      0x01\n      dup2\n      lt\n      tag_198\n      jumpi\n      tag_199\n      tag_20\n      jump\t// in\n    tag_199:\n    tag_198:\n      0x20\n      mul\n      add\n      mload\n        /* \"verifier.sol\":4652:4663  out[0] != 0 */\n      eq\n      iszero\n        /* \"verifier.sol\":4645:4663  return out[0] != 0 */\n      swap6\n      pop\n      pop\n      pop\n      pop\n      pop\n      pop\n        /* \"verifier.sol\":3747:4670  function pairing(G1Point[] memory p1, G2Point[] memory p2) internal view returns (bool) {... */\n      swap3\n      swap2\n      pop\n      pop\n      jump\t// out\n    tag_59:\n      mload(0x40)\n      dup1\n      0xa0\n      add\n      0x40\n      mstore\n      dup1\n      tag_200\n      tag_66\n      jump\t// in\n    tag_200:\n      dup2\n      mstore\n      0x20\n      add\n      tag_201\n      tag_120\n      jump\t// in\n    tag_201:\n      dup2\n      mstore\n      0x20\n      add\n      tag_202\n      tag_120\n      jump\t// in\n    tag_202:\n      dup2\n      mstore\n      0x20\n      add\n      tag_203\n      tag_120\n      jump\t// in\n    tag_203:\n      dup2\n      mstore\n      0x20\n      add\n      0x60\n      dup2\n      mstore\n      pop\n      swap1\n      jump\t// out\n    tag_66:\n      mload(0x40)\n      dup1\n      0x40\n      add\n      0x40\n      mstore\n      dup1\n      0x00\n      dup2\n      mstore\n      0x20\n      add\n      0x00\n      dup2\n      mstore\n      pop\n      swap1\n      jump\t// out\n    tag_76:\n      mload(0x40)\n      dup1\n      0x60\n      add\n      0x40\n      mstore\n      dup1\n      0x03\n      swap1\n      0x20\n      dup3\n      mul\n      dup1\n      calldatasize\n      dup4\n      calldatacopy\n      dup1\n      dup3\n      add\n      swap2\n      pop\n      pop\n      swap1\n      pop\n      pop\n      swap1\n      jump\t// out\n    tag_89:\n      mload(0x40)\n      dup1\n      0x80\n      add\n      0x40\n      mstore\n      dup1\n      0x04\n      swap1\n      0x20\n      dup3\n      mul\n      dup1\n      calldatasize\n      dup4\n      calldatacopy\n      dup1\n      dup3\n      add\n      swap2\n      pop\n      pop\n      swap1\n      pop\n      pop\n      swap1\n      jump\t// out\n    tag_120:\n      mload(0x40)\n      dup1\n      0x40\n      add\n      0x40\n      mstore\n      dup1\n      tag_204\n      tag_205\n      jump\t// in\n    tag_204:\n      dup2\n      mstore\n      0x20\n      add\n      tag_206\n      tag_205\n      jump\t// in\n    tag_206:\n      dup2\n      mstore\n      pop\n      swap1\n      jump\t// out\n    tag_194:\n      mload(0x40)\n      dup1\n      0x20\n      add\n      0x40\n      mstore\n      dup1\n      0x01\n      swap1\n      0x20\n      dup3\n      mul\n      dup1\n      calldatasize\n      dup4\n      calldatacopy\n      dup1\n      dup3\n      add\n      swap2\n      pop\n      pop\n      swap1\n      pop\n      pop\n      swap1\n      jump\t// out\n    tag_205:\n      mload(0x40)\n      dup1\n      0x40\n      add\n      0x40\n      mstore\n      dup1\n      0x02\n      swap1\n      0x20\n      dup3\n      mul\n      dup1\n      calldatasize\n      dup4\n      calldatacopy\n      dup1\n      dup3\n      add\n      swap2\n      pop\n      pop\n      swap1\n      pop\n      pop\n      swap1\n      jump\t// out\n        /* \"#utility.yul\":7:82   */\n    tag_207:\n        /* \"#utility.yul\":40:46   */\n      0x00\n        /* \"#utility.yul\":73:75   */\n      0x40\n        /* \"#utility.yul\":67:76   */\n      mload\n        /* \"#utility.yul\":57:76   */\n      swap1\n      pop\n        /* \"#utility.yul\":7:82   */\n      swap1\n      jump\t// out\n        /* \"#utility.yul\":88:205   */\n    tag_208:\n        /* \"#utility.yul\":197:198   */\n      0x00\n        /* \"#utility.yul\":194:195   */\n      dup1\n        /* \"#utility.yul\":187:199   */\n      revert\n        /* \"#utility.yul\":334:451   */\n    tag_210:\n        /* \"#utility.yul\":443:444   */\n      0x00\n        /* \"#utility.yul\":440:441   */\n      dup1\n        /* \"#utility.yul\":433:445   */\n      revert\n        /* \"#utility.yul\":457:559   */\n    tag_211:\n        /* \"#utility.yul\":498:504   */\n      0x00\n        /* \"#utility.yul\":549:551   */\n      0x1f\n        /* \"#utility.yul\":545:552   */\n      not\n        /* \"#utility.yul\":540:542   */\n      0x1f\n        /* \"#utility.yul\":533:538   */\n      dup4\n        /* \"#utility.yul\":529:543   */\n      add\n        /* \"#utility.yul\":525:553   */\n      and\n        /* \"#utility.yul\":515:553   */\n      swap1\n      pop\n        /* \"#utility.yul\":457:559   */\n      swap2\n      swap1\n      pop\n      jump\t// out\n        /* \"#utility.yul\":565:745   */\n    tag_13:\n        /* \"#utility.yul\":613:690   */\n      0x4e487b7100000000000000000000000000000000000000000000000000000000\n        /* \"#utility.yul\":610:611   */\n      0x00\n        /* \"#utility.yul\":603:691   */\n      mstore\n        /* \"#utility.yul\":710:714   */\n      0x41\n        /* \"#utility.yul\":707:708   */\n      0x04\n        /* \"#utility.yul\":700:715   */\n      mstore\n        /* \"#utility.yul\":734:738   */\n      0x24\n        /* \"#utility.yul\":731:732   */\n      0x00\n        /* \"#utility.yul\":724:739   */\n      revert\n        /* \"#utility.yul\":751:1032   */\n    tag_212:\n        /* \"#utility.yul\":834:861   */\n      tag_238\n        /* \"#utility.yul\":856:860   */\n      dup3\n        /* \"#utility.yul\":834:861   */\n      tag_211\n      jump\t// in\n    tag_238:\n        /* \"#utility.yul\":826:832   */\n      dup2\n        /* \"#utility.yul\":822:862   */\n      add\n        /* \"#utility.yul\":964:970   */\n      dup2\n        /* \"#utility.yul\":952:962   */\n      dup2\n        /* \"#utility.yul\":949:971   */\n      lt\n        /* \"#utility.yul\":928:946   */\n      0xffffffffffffffff\n        /* \"#utility.yul\":916:926   */\n      dup3\n        /* \"#utility.yul\":913:947   */\n      gt\n        /* \"#utility.yul\":910:972   */\n      or\n        /* \"#utility.yul\":907:995   */\n      iszero\n      tag_239\n      jumpi\n        /* \"#utility.yul\":975:993   */\n      tag_240\n      tag_13\n      jump\t// in\n    tag_240:\n        /* \"#utility.yul\":907:995   */\n    tag_239:\n        /* \"#utility.yul\":1015:1025   */\n      dup1\n        /* \"#utility.yul\":1011:1013   */\n      0x40\n        /* \"#utility.yul\":1004:1026   */\n      mstore\n        /* \"#utility.yul\":794:1032   */\n      pop\n        /* \"#utility.yul\":751:1032   */\n      pop\n      pop\n      jump\t// out\n        /* \"#utility.yul\":1038:1167   */\n    tag_213:\n        /* \"#utility.yul\":1072:1078   */\n      0x00\n        /* \"#utility.yul\":1099:1119   */\n      tag_242\n      tag_207\n      jump\t// in\n    tag_242:\n        /* \"#utility.yul\":1089:1119   */\n      swap1\n      pop\n        /* \"#utility.yul\":1128:1161   */\n      tag_243\n        /* \"#utility.yul\":1156:1160   */\n      dup3\n        /* \"#utility.yul\":1148:1154   */\n      dup3\n        /* \"#utility.yul\":1128:1161   */\n      tag_212\n      jump\t// in\n    tag_243:\n        /* \"#utility.yul\":1038:1167   */\n      swap2\n      swap1\n      pop\n      jump\t// out\n        /* \"#utility.yul\":1296:1373   */\n    tag_215:\n        /* \"#utility.yul\":1333:1340   */\n      0x00\n        /* \"#utility.yul\":1362:1367   */\n      dup2\n        /* \"#utility.yul\":1351:1367   */\n      swap1\n      pop\n        /* \"#utility.yul\":1296:1373   */\n      swap2\n      swap1\n      pop\n      jump\t// out\n        /* \"#utility.yul\":1379:1501   */\n    tag_216:\n        /* \"#utility.yul\":1452:1476   */\n      tag_247\n        /* \"#utility.yul\":1470:1475   */\n      dup2\n        /* \"#utility.yul\":1452:1476   */\n      tag_215\n      jump\t// in\n    tag_247:\n        /* \"#utility.yul\":1445:1450   */\n      dup2\n        /* \"#utility.yul\":1442:1477   */\n      eq\n        /* \"#utility.yul\":1432:1495   */\n      tag_248\n      jumpi\n        /* \"#utility.yul\":1491:1492   */\n      0x00\n        /* \"#utility.yul\":1488:1489   */\n      dup1\n        /* \"#utility.yul\":1481:1493   */\n      revert\n        /* \"#utility.yul\":1432:1495   */\n    tag_248:\n        /* \"#utility.yul\":1379:1501   */\n      pop\n      jump\t// out\n        /* \"#utility.yul\":1507:1646   */\n    tag_217:\n        /* \"#utility.yul\":1553:1558   */\n      0x00\n        /* \"#utility.yul\":1591:1597   */\n      dup2\n        /* \"#utility.yul\":1578:1598   */\n      calldataload\n        /* \"#utility.yul\":1569:1598   */\n      swap1\n      pop\n        /* \"#utility.yul\":1607:1640   */\n      tag_250\n        /* \"#utility.yul\":1634:1639   */\n      dup2\n        /* \"#utility.yul\":1607:1640   */\n      tag_216\n      jump\t// in\n    tag_250:\n        /* \"#utility.yul\":1507:1646   */\n      swap3\n      swap2\n      pop\n      pop\n      jump\t// out\n        /* \"#utility.yul\":1682:2247   */\n    tag_218:\n        /* \"#utility.yul\":1753:1758   */\n      0x00\n        /* \"#utility.yul\":1797:1801   */\n      0x40\n        /* \"#utility.yul\":1785:1794   */\n      dup3\n        /* \"#utility.yul\":1780:1783   */\n      dup5\n        /* \"#utility.yul\":1776:1795   */\n      sub\n        /* \"#utility.yul\":1772:1802   */\n      slt\n        /* \"#utility.yul\":1769:1886   */\n      iszero\n      tag_252\n      jumpi\n        /* \"#utility.yul\":1805:1884   */\n      tag_253\n      tag_210\n      jump\t// in\n    tag_253:\n        /* \"#utility.yul\":1769:1886   */\n    tag_252:\n        /* \"#utility.yul\":1904:1925   */\n      tag_254\n        /* \"#utility.yul\":1920:1924   */\n      0x40\n        /* \"#utility.yul\":1904:1925   */\n      tag_213\n      jump\t// in\n    tag_254:\n        /* \"#utility.yul\":1895:1925   */\n      swap1\n      pop\n        /* \"#utility.yul\":1981:1982   */\n      0x00\n        /* \"#utility.yul\":2021:2070   */\n      tag_255\n        /* \"#utility.yul\":2066:2069   */\n      dup5\n        /* \"#utility.yul\":2057:2063   */\n      dup3\n        /* \"#utility.yul\":2046:2055   */\n      dup6\n        /* \"#utility.yul\":2042:2064   */\n      add\n        /* \"#utility.yul\":2021:2070   */\n      tag_217\n      jump\t// in\n    tag_255:\n        /* \"#utility.yul\":2014:2018   */\n      0x00\n        /* \"#utility.yul\":2007:2012   */\n      dup4\n        /* \"#utility.yul\":2003:2019   */\n      add\n        /* \"#utility.yul\":1996:2071   */\n      mstore\n        /* \"#utility.yul\":1935:2082   */\n      pop\n        /* \"#utility.yul\":2138:2140   */\n      0x20\n        /* \"#utility.yul\":2179:2228   */\n      tag_256\n        /* \"#utility.yul\":2224:2227   */\n      dup5\n        /* \"#utility.yul\":2215:2221   */\n      dup3\n        /* \"#utility.yul\":2204:2213   */\n      dup6\n        /* \"#utility.yul\":2200:2222   */\n      add\n        /* \"#utility.yul\":2179:2228   */\n      tag_217\n      jump\t// in\n    tag_256:\n        /* \"#utility.yul\":2172:2176   */\n      0x20\n        /* \"#utility.yul\":2165:2170   */\n      dup4\n        /* \"#utility.yul\":2161:2177   */\n      add\n        /* \"#utility.yul\":2154:2229   */\n      mstore\n        /* \"#utility.yul\":2092:2240   */\n      pop\n        /* \"#utility.yul\":1682:2247   */\n      swap3\n      swap2\n      pop\n      pop\n      jump\t// out\n        /* \"#utility.yul\":2253:2370   */\n    tag_219:\n        /* \"#utility.yul\":2362:2363   */\n      0x00\n        /* \"#utility.yul\":2359:2360   */\n      dup1\n        /* \"#utility.yul\":2352:2364   */\n      revert\n        /* \"#utility.yul\":2376:2625   */\n    tag_220:\n        /* \"#utility.yul\":2451:2455   */\n      0x00\n        /* \"#utility.yul\":2541:2559   */\n      0xffffffffffffffff\n        /* \"#utility.yul\":2533:2539   */\n      dup3\n        /* \"#utility.yul\":2530:2560   */\n      gt\n        /* \"#utility.yul\":2527:2583   */\n      iszero\n      tag_259\n      jumpi\n        /* \"#utility.yul\":2563:2581   */\n      tag_260\n      tag_13\n      jump\t// in\n    tag_260:\n        /* \"#utility.yul\":2527:2583   */\n    tag_259:\n        /* \"#utility.yul\":2613:2617   */\n      0x20\n        /* \"#utility.yul\":2605:2611   */\n      dup3\n        /* \"#utility.yul\":2601:2618   */\n      mul\n        /* \"#utility.yul\":2593:2618   */\n      swap1\n      pop\n        /* \"#utility.yul\":2376:2625   */\n      swap2\n      swap1\n      pop\n      jump\t// out\n        /* \"#utility.yul\":2631:2748   */\n    tag_221:\n        /* \"#utility.yul\":2740:2741   */\n      0x00\n        /* \"#utility.yul\":2737:2738   */\n      dup1\n        /* \"#utility.yul\":2730:2742   */\n      revert\n        /* \"#utility.yul\":2772:3415   */\n    tag_222:\n        /* \"#utility.yul\":2866:2871   */\n      0x00\n        /* \"#utility.yul\":2891:2970   */\n      tag_263\n        /* \"#utility.yul\":2907:2969   */\n      tag_264\n        /* \"#utility.yul\":2962:2968   */\n      dup5\n        /* \"#utility.yul\":2907:2969   */\n      tag_220\n      jump\t// in\n    tag_264:\n        /* \"#utility.yul\":2891:2970   */\n      tag_213\n      jump\t// in\n    tag_263:\n        /* \"#utility.yul\":2882:2970   */\n      swap1\n      pop\n        /* \"#utility.yul\":2990:2995   */\n      dup1\n        /* \"#utility.yul\":3043:3047   */\n      0x20\n        /* \"#utility.yul\":3035:3041   */\n      dup5\n        /* \"#utility.yul\":3031:3048   */\n      mul\n        /* \"#utility.yul\":3023:3029   */\n      dup4\n        /* \"#utility.yul\":3019:3049   */\n      add\n        /* \"#utility.yul\":3072:3075   */\n      dup6\n        /* \"#utility.yul\":3064:3070   */\n      dup2\n        /* \"#utility.yul\":3061:3076   */\n      gt\n        /* \"#utility.yul\":3058:3180   */\n      iszero\n      tag_265\n      jumpi\n        /* \"#utility.yul\":3091:3170   */\n      tag_266\n      tag_221\n      jump\t// in\n    tag_266:\n        /* \"#utility.yul\":3058:3180   */\n    tag_265:\n        /* \"#utility.yul\":3206:3212   */\n      dup4\n        /* \"#utility.yul\":3189:3409   */\n    tag_267:\n        /* \"#utility.yul\":3223:3229   */\n      dup2\n        /* \"#utility.yul\":3218:3221   */\n      dup2\n        /* \"#utility.yul\":3215:3230   */\n      lt\n        /* \"#utility.yul\":3189:3409   */\n      iszero\n      tag_269\n      jumpi\n        /* \"#utility.yul\":3298:3301   */\n      dup1\n        /* \"#utility.yul\":3327:3364   */\n      tag_270\n        /* \"#utility.yul\":3360:3363   */\n      dup9\n        /* \"#utility.yul\":3348:3358   */\n      dup3\n        /* \"#utility.yul\":3327:3364   */\n      tag_217\n      jump\t// in\n    tag_270:\n        /* \"#utility.yul\":3322:3325   */\n      dup5\n        /* \"#utility.yul\":3315:3365   */\n      mstore\n        /* \"#utility.yul\":3394:3398   */\n      0x20\n        /* \"#utility.yul\":3389:3392   */\n      dup5\n        /* \"#utility.yul\":3385:3399   */\n      add\n        /* \"#utility.yul\":3378:3399   */\n      swap4\n      pop\n        /* \"#utility.yul\":3265:3409   */\n      pop\n        /* \"#utility.yul\":3249:3253   */\n      0x20\n        /* \"#utility.yul\":3244:3247   */\n      dup2\n        /* \"#utility.yul\":3240:3254   */\n      add\n        /* \"#utility.yul\":3233:3254   */\n      swap1\n      pop\n        /* \"#utility.yul\":3189:3409   */\n      jump(tag_267)\n    tag_269:\n        /* \"#utility.yul\":3193:3214   */\n      pop\n        /* \"#utility.yul\":2872:3415   */\n      pop\n      pop\n        /* \"#utility.yul\":2772:3415   */\n      swap4\n      swap3\n      pop\n      pop\n      pop\n      jump\t// out\n        /* \"#utility.yul\":3439:3778   */\n    tag_223:\n        /* \"#utility.yul\":3508:3513   */\n      0x00\n        /* \"#utility.yul\":3557:3560   */\n      dup3\n        /* \"#utility.yul\":3550:3554   */\n      0x1f\n        /* \"#utility.yul\":3542:3548   */\n      dup4\n        /* \"#utility.yul\":3538:3555   */\n      add\n        /* \"#utility.yul\":3534:3561   */\n      slt\n        /* \"#utility.yul\":3524:3646   */\n      tag_272\n      jumpi\n        /* \"#utility.yul\":3565:3644   */\n      tag_273\n      tag_219\n      jump\t// in\n    tag_273:\n        /* \"#utility.yul\":3524:3646   */\n    tag_272:\n        /* \"#utility.yul\":3669:3673   */\n      0x02\n        /* \"#utility.yul\":3691:3772   */\n      tag_274\n        /* \"#utility.yul\":3768:3771   */\n      dup5\n        /* \"#utility.yul\":3760:3766   */\n      dup3\n        /* \"#utility.yul\":3752:3758   */\n      dup6\n        /* \"#utility.yul\":3691:3772   */\n      tag_222\n      jump\t// in\n    tag_274:\n        /* \"#utility.yul\":3682:3772   */\n      swap2\n      pop\n        /* \"#utility.yul\":3514:3778   */\n      pop\n        /* \"#utility.yul\":3439:3778   */\n      swap3\n      swap2\n      pop\n      pop\n      jump\t// out\n        /* \"#utility.yul\":3814:4426   */\n    tag_224:\n        /* \"#utility.yul\":3886:3891   */\n      0x00\n        /* \"#utility.yul\":3930:3934   */\n      0x80\n        /* \"#utility.yul\":3918:3927   */\n      dup3\n        /* \"#utility.yul\":3913:3916   */\n      dup5\n        /* \"#utility.yul\":3909:3928   */\n      sub\n        /* \"#utility.yul\":3905:3935   */\n      slt\n        /* \"#utility.yul\":3902:4019   */\n      iszero\n      tag_276\n      jumpi\n        /* \"#utility.yul\":3938:4017   */\n      tag_277\n      tag_210\n      jump\t// in\n    tag_277:\n        /* \"#utility.yul\":3902:4019   */\n    tag_276:\n        /* \"#utility.yul\":4037:4058   */\n      tag_278\n        /* \"#utility.yul\":4053:4057   */\n      0x40\n        /* \"#utility.yul\":4037:4058   */\n      tag_213\n      jump\t// in\n    tag_278:\n        /* \"#utility.yul\":4028:4058   */\n      swap1\n      pop\n        /* \"#utility.yul\":4114:4115   */\n      0x00\n        /* \"#utility.yul\":4154:4226   */\n      tag_279\n        /* \"#utility.yul\":4222:4225   */\n      dup5\n        /* \"#utility.yul\":4213:4219   */\n      dup3\n        /* \"#utility.yul\":4202:4211   */\n      dup6\n        /* \"#utility.yul\":4198:4220   */\n      add\n        /* \"#utility.yul\":4154:4226   */\n      tag_223\n      jump\t// in\n    tag_279:\n        /* \"#utility.yul\":4147:4151   */\n      0x00\n        /* \"#utility.yul\":4140:4145   */\n      dup4\n        /* \"#utility.yul\":4136:4152   */\n      add\n        /* \"#utility.yul\":4129:4227   */\n      mstore\n        /* \"#utility.yul\":4068:4238   */\n      pop\n        /* \"#utility.yul\":4294:4296   */\n      0x40\n        /* \"#utility.yul\":4335:4407   */\n      tag_280\n        /* \"#utility.yul\":4403:4406   */\n      dup5\n        /* \"#utility.yul\":4394:4400   */\n      dup3\n        /* \"#utility.yul\":4383:4392   */\n      dup6\n        /* \"#utility.yul\":4379:4401   */\n      add\n        /* \"#utility.yul\":4335:4407   */\n      tag_223\n      jump\t// in\n    tag_280:\n        /* \"#utility.yul\":4328:4332   */\n      0x20\n        /* \"#utility.yul\":4321:4326   */\n      dup4\n        /* \"#utility.yul\":4317:4333   */\n      add\n        /* \"#utility.yul\":4310:4408   */\n      mstore\n        /* \"#utility.yul\":4248:4419   */\n      pop\n        /* \"#utility.yul\":3814:4426   */\n      swap3\n      swap2\n      pop\n      pop\n      jump\t// out\n        /* \"#utility.yul\":4461:5254   */\n    tag_225:\n        /* \"#utility.yul\":4532:4537   */\n      0x00\n        /* \"#utility.yul\":4576:4582   */\n      0x0100\n        /* \"#utility.yul\":4564:4573   */\n      dup3\n        /* \"#utility.yul\":4559:4562   */\n      dup5\n        /* \"#utility.yul\":4555:4574   */\n      sub\n        /* \"#utility.yul\":4551:4583   */\n      slt\n        /* \"#utility.yul\":4548:4667   */\n      iszero\n      tag_282\n      jumpi\n        /* \"#utility.yul\":4586:4665   */\n      tag_283\n      tag_210\n      jump\t// in\n    tag_283:\n        /* \"#utility.yul\":4548:4667   */\n    tag_282:\n        /* \"#utility.yul\":4685:4706   */\n      tag_284\n        /* \"#utility.yul\":4701:4705   */\n      0x60\n        /* \"#utility.yul\":4685:4706   */\n      tag_213\n      jump\t// in\n    tag_284:\n        /* \"#utility.yul\":4676:4706   */\n      swap1\n      pop\n        /* \"#utility.yul\":4762:4763   */\n      0x00\n        /* \"#utility.yul\":4802:4873   */\n      tag_285\n        /* \"#utility.yul\":4869:4872   */\n      dup5\n        /* \"#utility.yul\":4860:4866   */\n      dup3\n        /* \"#utility.yul\":4849:4858   */\n      dup6\n        /* \"#utility.yul\":4845:4867   */\n      add\n        /* \"#utility.yul\":4802:4873   */\n      tag_218\n      jump\t// in\n    tag_285:\n        /* \"#utility.yul\":4795:4799   */\n      0x00\n        /* \"#utility.yul\":4788:4793   */\n      dup4\n        /* \"#utility.yul\":4784:4800   */\n      add\n        /* \"#utility.yul\":4777:4874   */\n      mstore\n        /* \"#utility.yul\":4716:4885   */\n      pop\n        /* \"#utility.yul\":4941:4943   */\n      0x40\n        /* \"#utility.yul\":4982:5054   */\n      tag_286\n        /* \"#utility.yul\":5050:5053   */\n      dup5\n        /* \"#utility.yul\":5041:5047   */\n      dup3\n        /* \"#utility.yul\":5030:5039   */\n      dup6\n        /* \"#utility.yul\":5026:5048   */\n      add\n        /* \"#utility.yul\":4982:5054   */\n      tag_224\n      jump\t// in\n    tag_286:\n        /* \"#utility.yul\":4975:4979   */\n      0x20\n        /* \"#utility.yul\":4968:4973   */\n      dup4\n        /* \"#utility.yul\":4964:4980   */\n      add\n        /* \"#utility.yul\":4957:5055   */\n      mstore\n        /* \"#utility.yul\":4895:5066   */\n      pop\n        /* \"#utility.yul\":5122:5125   */\n      0xc0\n        /* \"#utility.yul\":5164:5235   */\n      tag_287\n        /* \"#utility.yul\":5231:5234   */\n      dup5\n        /* \"#utility.yul\":5222:5228   */\n      dup3\n        /* \"#utility.yul\":5211:5220   */\n      dup6\n        /* \"#utility.yul\":5207:5229   */\n      add\n        /* \"#utility.yul\":5164:5235   */\n      tag_218\n      jump\t// in\n    tag_287:\n        /* \"#utility.yul\":5157:5161   */\n      0x40\n        /* \"#utility.yul\":5150:5155   */\n      dup4\n        /* \"#utility.yul\":5146:5162   */\n      add\n        /* \"#utility.yul\":5139:5236   */\n      mstore\n        /* \"#utility.yul\":5076:5247   */\n      pop\n        /* \"#utility.yul\":4461:5254   */\n      swap3\n      swap2\n      pop\n      pop\n      jump\t// out\n        /* \"#utility.yul\":5260:5826   */\n    tag_6:\n        /* \"#utility.yul\":5373:5379   */\n      0x00\n        /* \"#utility.yul\":5381:5387   */\n      dup1\n        /* \"#utility.yul\":5430:5433   */\n      0x0140\n        /* \"#utility.yul\":5418:5427   */\n      dup4\n        /* \"#utility.yul\":5409:5416   */\n      dup6\n        /* \"#utility.yul\":5405:5428   */\n      sub\n        /* \"#utility.yul\":5401:5434   */\n      slt\n        /* \"#utility.yul\":5398:5518   */\n      iszero\n      tag_289\n      jumpi\n        /* \"#utility.yul\":5437:5516   */\n      tag_290\n      tag_208\n      jump\t// in\n    tag_290:\n        /* \"#utility.yul\":5398:5518   */\n    tag_289:\n        /* \"#utility.yul\":5557:5558   */\n      0x00\n        /* \"#utility.yul\":5582:5657   */\n      tag_291\n        /* \"#utility.yul\":5649:5656   */\n      dup6\n        /* \"#utility.yul\":5640:5646   */\n      dup3\n        /* \"#utility.yul\":5629:5638   */\n      dup7\n        /* \"#utility.yul\":5625:5647   */\n      add\n        /* \"#utility.yul\":5582:5657   */\n      tag_225\n      jump\t// in\n    tag_291:\n        /* \"#utility.yul\":5572:5657   */\n      swap3\n      pop\n        /* \"#utility.yul\":5528:5667   */\n      pop\n        /* \"#utility.yul\":5706:5709   */\n      0x0100\n        /* \"#utility.yul\":5733:5809   */\n      tag_292\n        /* \"#utility.yul\":5801:5808   */\n      dup6\n        /* \"#utility.yul\":5792:5798   */\n      dup3\n        /* \"#utility.yul\":5781:5790   */\n      dup7\n        /* \"#utility.yul\":5777:5799   */\n      add\n        /* \"#utility.yul\":5733:5809   */\n      tag_223\n      jump\t// in\n    tag_292:\n        /* \"#utility.yul\":5723:5809   */\n      swap2\n      pop\n        /* \"#utility.yul\":5677:5819   */\n      pop\n        /* \"#utility.yul\":5260:5826   */\n      swap3\n      pop\n      swap3\n      swap1\n      pop\n      jump\t// out\n        /* \"#utility.yul\":5832:5922   */\n    tag_226:\n        /* \"#utility.yul\":5866:5873   */\n      0x00\n        /* \"#utility.yul\":5909:5914   */\n      dup2\n        /* \"#utility.yul\":5902:5915   */\n      iszero\n        /* \"#utility.yul\":5895:5916   */\n      iszero\n        /* \"#utility.yul\":5884:5916   */\n      swap1\n      pop\n        /* \"#utility.yul\":5832:5922   */\n      swap2\n      swap1\n      pop\n      jump\t// out\n        /* \"#utility.yul\":5928:6037   */\n    tag_227:\n        /* \"#utility.yul\":6009:6030   */\n      tag_295\n        /* \"#utility.yul\":6024:6029   */\n      dup2\n        /* \"#utility.yul\":6009:6030   */\n      tag_226\n      jump\t// in\n    tag_295:\n        /* \"#utility.yul\":6004:6007   */\n      dup3\n        /* \"#utility.yul\":5997:6031   */\n      mstore\n        /* \"#utility.yul\":5928:6037   */\n      pop\n      pop\n      jump\t// out\n        /* \"#utility.yul\":6043:6253   */\n    tag_9:\n        /* \"#utility.yul\":6130:6134   */\n      0x00\n        /* \"#utility.yul\":6168:6170   */\n      0x20\n        /* \"#utility.yul\":6157:6166   */\n      dup3\n        /* \"#utility.yul\":6153:6171   */\n      add\n        /* \"#utility.yul\":6145:6171   */\n      swap1\n      pop\n        /* \"#utility.yul\":6181:6246   */\n      tag_297\n        /* \"#utility.yul\":6243:6244   */\n      0x00\n        /* \"#utility.yul\":6232:6241   */\n      dup4\n        /* \"#utility.yul\":6228:6245   */\n      add\n        /* \"#utility.yul\":6219:6225   */\n      dup5\n        /* \"#utility.yul\":6181:6246   */\n      tag_227\n      jump\t// in\n    tag_297:\n        /* \"#utility.yul\":6043:6253   */\n      swap3\n      swap2\n      pop\n      pop\n      jump\t// out\n        /* \"#utility.yul\":6259:6439   */\n    tag_20:\n        /* \"#utility.yul\":6307:6384   */\n      0x4e487b7100000000000000000000000000000000000000000000000000000000\n        /* \"#utility.yul\":6304:6305   */\n      0x00\n        /* \"#utility.yul\":6297:6385   */\n      mstore\n        /* \"#utility.yul\":6404:6408   */\n      0x32\n        /* \"#utility.yul\":6401:6402   */\n      0x04\n        /* \"#utility.yul\":6394:6409   */\n      mstore\n        /* \"#utility.yul\":6428:6432   */\n      0x24\n        /* \"#utility.yul\":6425:6426   */\n      0x00\n        /* \"#utility.yul\":6418:6433   */\n      revert\n        /* \"#utility.yul\":6445:6625   */\n    tag_228:\n        /* \"#utility.yul\":6493:6570   */\n      0x4e487b7100000000000000000000000000000000000000000000000000000000\n        /* \"#utility.yul\":6490:6491   */\n      0x00\n        /* \"#utility.yul\":6483:6571   */\n      mstore\n        /* \"#utility.yul\":6590:6594   */\n      0x11\n        /* \"#utility.yul\":6587:6588   */\n      0x04\n        /* \"#utility.yul\":6580:6595   */\n      mstore\n        /* \"#utility.yul\":6614:6618   */\n      0x24\n        /* \"#utility.yul\":6611:6612   */\n      0x00\n        /* \"#utility.yul\":6604:6619   */\n      revert\n        /* \"#utility.yul\":6631:6822   */\n    tag_31:\n        /* \"#utility.yul\":6671:6674   */\n      0x00\n        /* \"#utility.yul\":6690:6710   */\n      tag_301\n        /* \"#utility.yul\":6708:6709   */\n      dup3\n        /* \"#utility.yul\":6690:6710   */\n      tag_215\n      jump\t// in\n    tag_301:\n        /* \"#utility.yul\":6685:6710   */\n      swap2\n      pop\n        /* \"#utility.yul\":6724:6744   */\n      tag_302\n        /* \"#utility.yul\":6742:6743   */\n      dup4\n        /* \"#utility.yul\":6724:6744   */\n      tag_215\n      jump\t// in\n    tag_302:\n        /* \"#utility.yul\":6719:6744   */\n      swap3\n      pop\n        /* \"#utility.yul\":6767:6768   */\n      dup3\n        /* \"#utility.yul\":6764:6765   */\n      dup3\n        /* \"#utility.yul\":6760:6769   */\n      add\n        /* \"#utility.yul\":6753:6769   */\n      swap1\n      pop\n        /* \"#utility.yul\":6788:6791   */\n      dup1\n        /* \"#utility.yul\":6785:6786   */\n      dup3\n        /* \"#utility.yul\":6782:6792   */\n      gt\n        /* \"#utility.yul\":6779:6815   */\n      iszero\n      tag_303\n      jumpi\n        /* \"#utility.yul\":6795:6813   */\n      tag_304\n      tag_228\n      jump\t// in\n    tag_304:\n        /* \"#utility.yul\":6779:6815   */\n    tag_303:\n        /* \"#utility.yul\":6631:6822   */\n      swap3\n      swap2\n      pop\n      pop\n      jump\t// out\n        /* \"#utility.yul\":6828:7008   */\n    tag_229:\n        /* \"#utility.yul\":6876:6953   */\n      0x4e487b7100000000000000000000000000000000000000000000000000000000\n        /* \"#utility.yul\":6873:6874   */\n      0x00\n        /* \"#utility.yul\":6866:6954   */\n      mstore\n        /* \"#utility.yul\":6973:6977   */\n      0x12\n        /* \"#utility.yul\":6970:6971   */\n      0x04\n        /* \"#utility.yul\":6963:6978   */\n      mstore\n        /* \"#utility.yul\":6997:7001   */\n      0x24\n        /* \"#utility.yul\":6994:6995   */\n      0x00\n        /* \"#utility.yul\":6987:7002   */\n      revert\n        /* \"#utility.yul\":7014:7190   */\n    tag_106:\n        /* \"#utility.yul\":7046:7047   */\n      0x00\n        /* \"#utility.yul\":7063:7083   */\n      tag_307\n        /* \"#utility.yul\":7081:7082   */\n      dup3\n        /* \"#utility.yul\":7063:7083   */\n      tag_215\n      jump\t// in\n    tag_307:\n        /* \"#utility.yul\":7058:7083   */\n      swap2\n      pop\n        /* \"#utility.yul\":7097:7117   */\n      tag_308\n        /* \"#utility.yul\":7115:7116   */\n      dup4\n        /* \"#utility.yul\":7097:7117   */\n      tag_215\n      jump\t// in\n    tag_308:\n        /* \"#utility.yul\":7092:7117   */\n      swap3\n      pop\n        /* \"#utility.yul\":7136:7137   */\n      dup3\n        /* \"#utility.yul\":7126:7161   */\n      tag_309\n      jumpi\n        /* \"#utility.yul\":7141:7159   */\n      tag_310\n      tag_229\n      jump\t// in\n    tag_310:\n        /* \"#utility.yul\":7126:7161   */\n    tag_309:\n        /* \"#utility.yul\":7182:7183   */\n      dup3\n        /* \"#utility.yul\":7179:7180   */\n      dup3\n        /* \"#utility.yul\":7175:7184   */\n      mod\n        /* \"#utility.yul\":7170:7184   */\n      swap1\n      pop\n        /* \"#utility.yul\":7014:7190   */\n      swap3\n      swap2\n      pop\n      pop\n      jump\t// out\n        /* \"#utility.yul\":7196:7390   */\n    tag_108:\n        /* \"#utility.yul\":7236:7240   */\n      0x00\n        /* \"#utility.yul\":7256:7276   */\n      tag_312\n        /* \"#utility.yul\":7274:7275   */\n      dup3\n        /* \"#utility.yul\":7256:7276   */\n      tag_215\n      jump\t// in\n    tag_312:\n        /* \"#utility.yul\":7251:7276   */\n      swap2\n      pop\n        /* \"#utility.yul\":7290:7310   */\n      tag_313\n        /* \"#utility.yul\":7308:7309   */\n      dup4\n        /* \"#utility.yul\":7290:7310   */\n      tag_215\n      jump\t// in\n    tag_313:\n        /* \"#utility.yul\":7285:7310   */\n      swap3\n      pop\n        /* \"#utility.yul\":7334:7335   */\n      dup3\n        /* \"#utility.yul\":7331:7332   */\n      dup3\n        /* \"#utility.yul\":7327:7336   */\n      sub\n        /* \"#utility.yul\":7319:7336   */\n      swap1\n      pop\n        /* \"#utility.yul\":7358:7359   */\n      dup2\n        /* \"#utility.yul\":7352:7356   */\n      dup2\n        /* \"#utility.yul\":7349:7360   */\n      gt\n        /* \"#utility.yul\":7346:7383   */\n      iszero\n      tag_314\n      jumpi\n        /* \"#utility.yul\":7363:7381   */\n      tag_315\n      tag_228\n      jump\t// in\n    tag_315:\n        /* \"#utility.yul\":7346:7383   */\n    tag_314:\n        /* \"#utility.yul\":7196:7390   */\n      swap3\n      swap2\n      pop\n      pop\n      jump\t// out\n        /* \"#utility.yul\":7396:7806   */\n    tag_142:\n        /* \"#utility.yul\":7436:7443   */\n      0x00\n        /* \"#utility.yul\":7459:7479   */\n      tag_317\n        /* \"#utility.yul\":7477:7478   */\n      dup3\n        /* \"#utility.yul\":7459:7479   */\n      tag_215\n      jump\t// in\n    tag_317:\n        /* \"#utility.yul\":7454:7479   */\n      swap2\n      pop\n        /* \"#utility.yul\":7493:7513   */\n      tag_318\n        /* \"#utility.yul\":7511:7512   */\n      dup4\n        /* \"#utility.yul\":7493:7513   */\n      tag_215\n      jump\t// in\n    tag_318:\n        /* \"#utility.yul\":7488:7513   */\n      swap3\n      pop\n        /* \"#utility.yul\":7548:7549   */\n      dup3\n        /* \"#utility.yul\":7545:7546   */\n      dup3\n        /* \"#utility.yul\":7541:7550   */\n      mul\n        /* \"#utility.yul\":7570:7600   */\n      tag_319\n        /* \"#utility.yul\":7588:7599   */\n      dup2\n        /* \"#utility.yul\":7570:7600   */\n      tag_215\n      jump\t// in\n    tag_319:\n        /* \"#utility.yul\":7559:7600   */\n      swap2\n      pop\n        /* \"#utility.yul\":7749:7750   */\n      dup3\n        /* \"#utility.yul\":7740:7747   */\n      dup3\n        /* \"#utility.yul\":7736:7751   */\n      div\n        /* \"#utility.yul\":7733:7734   */\n      dup5\n        /* \"#utility.yul\":7730:7752   */\n      eq\n        /* \"#utility.yul\":7710:7711   */\n      dup4\n        /* \"#utility.yul\":7703:7712   */\n      iszero\n        /* \"#utility.yul\":7683:7766   */\n      or\n        /* \"#utility.yul\":7660:7799   */\n      tag_320\n      jumpi\n        /* \"#utility.yul\":7779:7797   */\n      tag_321\n      tag_228\n      jump\t// in\n    tag_321:\n        /* \"#utility.yul\":7660:7799   */\n    tag_320:\n        /* \"#utility.yul\":7444:7806   */\n      pop\n        /* \"#utility.yul\":7396:7806   */\n      swap3\n      swap2\n      pop\n      pop\n      jump\t// out\n\n    auxdata: 0xa2646970667358221220b603454384ead1f5f67499e7e39c50612c13d7b32d2e816e97a716207937a90364736f6c63430008170033\n}\n",
				"bytecode": {
					"linkReferences": {},
					"object": "608060405234801561000f575f80fd5b506113b68061001d5f395ff3fe608060405234801561000f575f80fd5b5060043610610029575f3560e01c806343cd76fc1461002d575b5f80fd5b610047600480360381019061004291906111af565b61005d565b6040516100549190611209565b60405180910390f35b5f80600267ffffffffffffffff81111561007a57610079610f52565b5b6040519080825280602002602001820160405280156100a85781602001602082028036833780820191505090505b5090505f5b60028110156100fa578381600281106100c9576100c8611222565b5b60200201518282815181106100e1576100e0611222565b5b60200260200101818152505080806001019150506100ad565b505f6101068286610120565b0361011557600191505061011a565b5f9150505b92915050565b5f807f30644e72e131a029b85045b68181585d2833e84879b9709143e1f593f000000190505f61014e6102a5565b905080608001515160018651610164919061127c565b1461016d575f80fd5b5f60405180604001604052805f81526020015f81525090505f5b865181101561021b57838782815181106101a4576101a3611222565b5b6020026020010151106101b5575f80fd5b61020c8261020785608001516001856101ce919061127c565b815181106101df576101de611222565b5b60200260200101518a85815181106101fa576101f9611222565b5b602002602001015161071f565b6107bc565b91508080600101915050610187565b506102448183608001515f8151811061023757610236611222565b5b60200260200101516107bc565b9050610288855f0151866020015161025b8461087e565b856040015161026d8a6040015161087e565b876060015161027e895f015161087e565b896020015161091c565b610298576001935050505061029f565b5f93505050505b92915050565b6102ad610e24565b60405180604001604052807f26bb205c498a22925f9eb016398053b04955739048d66015901f9b51d100487681526020017f060c7e0b412fc46bf989391baefecfbf7690a9c1fd008b3555bef3467833325b815250815f0181905250604051806040016040528060405180604001604052807f07455afd10e48d8adc94c6cb955f7a13056cbeabe270c60696cd586838f636d781526020017f160ae88dcd3c4fe37fde12f5d044e1fefb4310ec954b5d1d6c8ec23d5b3de0cf815250815260200160405180604001604052807f0c3e3f64aabf0b0ae49fc5b2385c0a5359528c960bd88ee56328ccf69911642581526020017f25aca19f499752f75387c0c6901d2ba83cc1dc78671797f5de5f8b5f3909e79c8152508152508160200181905250604051806040016040528060405180604001604052807f2ea0755cdafbcdf3618a816638cfbb3e8b9bc2b9d9fdbb567fd9c59d3d62b89c81526020017f2df3f0489ee7459dcd5b8782beb2364dea66e1ada8743c537b5a4ccc2a87490d815250815260200160405180604001604052807f241839646b28f60b6c5b8ed4b53ce041def39b7c6c8f355cdf22f60a8f7c8a9781526020017f1231f39bdf173426047abca3739c01b6d12ed0aea06569d092cbe4f9e875a52b8152508152508160400181905250604051806040016040528060405180604001604052807f2658ffb02a5761000a58fedefdff81229b1c9a65005391e9fcf97cb1dad76db081526020017f0e554ce08c1a2da9855359b951b92f09c10edf8bba7e7bef0c929e7e460e3d05815250815260200160405180604001604052807f236199e5293dae8270c322b940144d4c12994be1f86aff50869af957e54a877e81526020017f20efc074b3d67fa539ce9662bc4dc5714e95f61bb781ddc351f86cdf031437e38152508152508160600181905250600367ffffffffffffffff81111561057357610572610f52565b5b6040519080825280602002602001820160405280156105ac57816020015b610599610e6b565b8152602001906001900390816105915790505b50816080018190525060405180604001604052807f2449b06d27b48336767b5d8bc4d52ce228cc60ee92630a6c222ef9e503d7cea581526020017f1ca11db41c01dbcd955f04fbea589ac80c864c58ca5aa5285d6b2e330224575081525081608001515f8151811061062157610620611222565b5b602002602001018190525060405180604001604052807f17a9beae3e09c309278103e632111b91b6c9d640f951d3aeac03591da8ae40b581526020017f206e10fcb53fb98deea10f1d28f421df58f36c8e112377605ec75c6ae659ba16815250816080015160018151811061069957610698611222565b5b602002602001018190525060405180604001604052807f11314268e0c3005c6ca1091e87af9b5a4d47b502fd78438ce37ce21c695a150f81526020017f0990366392596fe4448bfac48faf76b4ef813f4af858627007105c6bc94cef7c815250816080015160028151811061071157610710611222565b5b602002602001018190525090565b610727610e6b565b61072f610e83565b835f0151815f6003811061074657610745611222565b5b60200201818152505083602001518160016003811061076857610767611222565b5b602002018181525050828160026003811061078657610785611222565b5b6020020181815250505f60608360808460076107d05a03fa9050805f81036107aa57fe5b50806107b4575f80fd5b505092915050565b6107c4610e6b565b6107cc610ea5565b835f0151815f600481106107e3576107e2611222565b5b60200201818152505083602001518160016004811061080557610804611222565b5b602002018181525050825f01518160026004811061082657610825611222565b5b60200201818152505082602001518160036004811061084857610847611222565b5b6020020181815250505f60608360c08460066107d05a03fa9050805f810361086c57fe5b5080610876575f80fd5b505092915050565b610886610e6b565b5f7f30644e72e131a029b85045b68181585d97816a916871ca8d3c208c16d87cfd4790505f835f01511480156108bf57505f8360200151145b156108e15760405180604001604052805f81526020015f815250915050610917565b6040518060400160405280845f0151815260200182856020015161090591906112dc565b83610910919061130c565b8152509150505b919050565b5f80600467ffffffffffffffff81111561093957610938610f52565b5b60405190808252806020026020018201604052801561097257816020015b61095f610e6b565b8152602001906001900390816109575790505b5090505f600467ffffffffffffffff81111561099157610990610f52565b5b6040519080825280602002602001820160405280156109ca57816020015b6109b7610ec7565b8152602001906001900390816109af5790505b5090508a825f815181106109e1576109e0611222565b5b60200260200101819052508882600181518110610a0157610a00611222565b5b60200260200101819052508682600281518110610a2157610a20611222565b5b60200260200101819052508482600381518110610a4157610a40611222565b5b602002602001018190525089815f81518110610a6057610a5f611222565b5b60200260200101819052508781600181518110610a8057610a7f611222565b5b60200260200101819052508581600281518110610aa057610a9f611222565b5b60200260200101819052508381600381518110610ac057610abf611222565b5b6020026020010181905250610ad58282610ae5565b9250505098975050505050505050565b5f8151835114610af3575f80fd5b5f835190505f600682610b06919061133f565b90505f8167ffffffffffffffff811115610b2357610b22610f52565b5b604051908082528060200260200182016040528015610b515781602001602082028036833780820191505090505b5090505f5b83811015610dc957868181518110610b7157610b70611222565b5b60200260200101515f0151825f600684610b8b919061133f565b610b95919061127c565b81518110610ba657610ba5611222565b5b602002602001018181525050868181518110610bc557610bc4611222565b5b602002602001015160200151826001600684610be1919061133f565b610beb919061127c565b81518110610bfc57610bfb611222565b5b602002602001018181525050858181518110610c1b57610c1a611222565b5b60200260200101515f0151600160028110610c3957610c38611222565b5b6020020151826002600684610c4e919061133f565b610c58919061127c565b81518110610c6957610c68611222565b5b602002602001018181525050858181518110610c8857610c87611222565b5b60200260200101515f01515f60028110610ca557610ca4611222565b5b6020020151826003600684610cba919061133f565b610cc4919061127c565b81518110610cd557610cd4611222565b5b602002602001018181525050858181518110610cf457610cf3611222565b5b602002602001015160200151600160028110610d1357610d12611222565b5b6020020151826004600684610d28919061133f565b610d32919061127c565b81518110610d4357610d42611222565b5b602002602001018181525050858181518110610d6257610d61611222565b5b6020026020010151602001515f60028110610d8057610d7f611222565b5b6020020151826005600684610d95919061133f565b610d9f919061127c565b81518110610db057610daf611222565b5b6020026020010181815250508080600101915050610b56565b50610dd2610eed565b5f602082602086026020860160086107d05a03fa9050805f8103610df257fe5b5080610dfc575f80fd5b5f825f60018110610e1057610e0f611222565b5b602002015114159550505050505092915050565b6040518060a00160405280610e37610e6b565b8152602001610e44610ec7565b8152602001610e51610ec7565b8152602001610e5e610ec7565b8152602001606081525090565b60405180604001604052805f81526020015f81525090565b6040518060600160405280600390602082028036833780820191505090505090565b6040518060800160405280600490602082028036833780820191505090505090565b6040518060400160405280610eda610f0f565b8152602001610ee7610f0f565b81525090565b6040518060200160405280600190602082028036833780820191505090505090565b6040518060400160405280600290602082028036833780820191505090505090565b5f604051905090565b5f80fd5b5f80fd5b5f601f19601f8301169050919050565b7f4e487b71000000000000000000000000000000000000000000000000000000005f52604160045260245ffd5b610f8882610f42565b810181811067ffffffffffffffff82111715610fa757610fa6610f52565b5b80604052505050565b5f610fb9610f31565b9050610fc58282610f7f565b919050565b5f819050919050565b610fdc81610fca565b8114610fe6575f80fd5b50565b5f81359050610ff781610fd3565b92915050565b5f6040828403121561101257611011610f3e565b5b61101c6040610fb0565b90505f61102b84828501610fe9565b5f83015250602061103e84828501610fe9565b60208301525092915050565b5f80fd5b5f67ffffffffffffffff82111561106857611067610f52565b5b602082029050919050565b5f80fd5b5f6110896110848461104e565b610fb0565b905080602084028301858111156110a3576110a2611073565b5b835b818110156110cc57806110b88882610fe9565b8452602084019350506020810190506110a5565b5050509392505050565b5f82601f8301126110ea576110e961104a565b5b60026110f7848285611077565b91505092915050565b5f6080828403121561111557611114610f3e565b5b61111f6040610fb0565b90505f61112e848285016110d6565b5f830152506040611141848285016110d6565b60208301525092915050565b5f610100828403121561116357611162610f3e565b5b61116d6060610fb0565b90505f61117c84828501610ffd565b5f83015250604061118f84828501611100565b60208301525060c06111a384828501610ffd565b60408301525092915050565b5f8061014083850312156111c6576111c5610f3a565b5b5f6111d38582860161114d565b9250506101006111e5858286016110d6565b9150509250929050565b5f8115159050919050565b611203816111ef565b82525050565b5f60208201905061121c5f8301846111fa565b92915050565b7f4e487b71000000000000000000000000000000000000000000000000000000005f52603260045260245ffd5b7f4e487b71000000000000000000000000000000000000000000000000000000005f52601160045260245ffd5b5f61128682610fca565b915061129183610fca565b92508282019050808211156112a9576112a861124f565b5b92915050565b7f4e487b71000000000000000000000000000000000000000000000000000000005f52601260045260245ffd5b5f6112e682610fca565b91506112f183610fca565b925082611301576113006112af565b5b828206905092915050565b5f61131682610fca565b915061132183610fca565b92508282039050818111156113395761133861124f565b5b92915050565b5f61134982610fca565b915061135483610fca565b925082820261136281610fca565b915082820484148315176113795761137861124f565b5b509291505056fea2646970667358221220b603454384ead1f5f67499e7e39c50612c13d7b32d2e816e97a716207937a90364736f6c63430008170033",
					"opcodes": "PUSH1 0x80 PUSH1 0x40 MSTORE CALLVALUE DUP1 ISZERO PUSH2 0xF JUMPI PUSH0 DUP1 REVERT JUMPDEST POP PUSH2 0x13B6 DUP1 PUSH2 0x1D PUSH0 CODECOPY PUSH0 RETURN INVALID PUSH1 0x80 PUSH1 0x40 MSTORE CALLVALUE DUP1 ISZERO PUSH2 0xF JUMPI PUSH0 DUP1 REVERT JUMPDEST POP PUSH1 0x4 CALLDATASIZE LT PUSH2 0x29 JUMPI PUSH0 CALLDATALOAD PUSH1 0xE0 SHR DUP1 PUSH4 0x43CD76FC EQ PUSH2 0x2D JUMPI JUMPDEST PUSH0 DUP1 REVERT JUMPDEST PUSH2 0x47 PUSH1 0x4 DUP1 CALLDATASIZE SUB DUP2 ADD SWAP1 PUSH2 0x42 SWAP2 SWAP1 PUSH2 0x11AF JUMP JUMPDEST PUSH2 0x5D JUMP JUMPDEST PUSH1 0x40 MLOAD PUSH2 0x54 SWAP2 SWAP1 PUSH2 0x1209 JUMP JUMPDEST PUSH1 0x40 MLOAD DUP1 SWAP2 SUB SWAP1 RETURN JUMPDEST PUSH0 DUP1 PUSH1 0x2 PUSH8 0xFFFFFFFFFFFFFFFF DUP2 GT ISZERO PUSH2 0x7A JUMPI PUSH2 0x79 PUSH2 0xF52 JUMP JUMPDEST JUMPDEST PUSH1 0x40 MLOAD SWAP1 DUP1 DUP3 MSTORE DUP1 PUSH1 0x20 MUL PUSH1 0x20 ADD DUP3 ADD PUSH1 0x40 MSTORE DUP1 ISZERO PUSH2 0xA8 JUMPI DUP2 PUSH1 0x20 ADD PUSH1 0x20 DUP3 MUL DUP1 CALLDATASIZE DUP4 CALLDATACOPY DUP1 DUP3 ADD SWAP2 POP POP SWAP1 POP JUMPDEST POP SWAP1 POP PUSH0 JUMPDEST PUSH1 0x2 DUP2 LT ISZERO PUSH2 0xFA JUMPI DUP4 DUP2 PUSH1 0x2 DUP2 LT PUSH2 0xC9 JUMPI PUSH2 0xC8 PUSH2 0x1222 JUMP JUMPDEST JUMPDEST PUSH1 0x20 MUL ADD MLOAD DUP3 DUP3 DUP2 MLOAD DUP2 LT PUSH2 0xE1 JUMPI PUSH2 0xE0 PUSH2 0x1222 JUMP JUMPDEST JUMPDEST PUSH1 0x20 MUL PUSH1 0x20 ADD ADD DUP2 DUP2 MSTORE POP POP DUP1 DUP1 PUSH1 0x1 ADD SWAP2 POP POP PUSH2 0xAD JUMP JUMPDEST POP PUSH0 PUSH2 0x106 DUP3 DUP7 PUSH2 0x120 JUMP JUMPDEST SUB PUSH2 0x115 JUMPI PUSH1 0x1 SWAP2 POP POP PUSH2 0x11A JUMP JUMPDEST PUSH0 SWAP2 POP POP JUMPDEST SWAP3 SWAP2 POP POP JUMP JUMPDEST PUSH0 DUP1 PUSH32 0x30644E72E131A029B85045B68181585D2833E84879B9709143E1F593F0000001 SWAP1 POP PUSH0 PUSH2 0x14E PUSH2 0x2A5 JUMP JUMPDEST SWAP1 POP DUP1 PUSH1 0x80 ADD MLOAD MLOAD PUSH1 0x1 DUP7 MLOAD PUSH2 0x164 SWAP2 SWAP1 PUSH2 0x127C JUMP JUMPDEST EQ PUSH2 0x16D JUMPI PUSH0 DUP1 REVERT JUMPDEST PUSH0 PUSH1 0x40 MLOAD DUP1 PUSH1 0x40 ADD PUSH1 0x40 MSTORE DUP1 PUSH0 DUP2 MSTORE PUSH1 0x20 ADD PUSH0 DUP2 MSTORE POP SWAP1 POP PUSH0 JUMPDEST DUP7 MLOAD DUP2 LT ISZERO PUSH2 0x21B JUMPI DUP4 DUP8 DUP3 DUP2 MLOAD DUP2 LT PUSH2 0x1A4 JUMPI PUSH2 0x1A3 PUSH2 0x1222 JUMP JUMPDEST JUMPDEST PUSH1 0x20 MUL PUSH1 0x20 ADD ADD MLOAD LT PUSH2 0x1B5 JUMPI PUSH0 DUP1 REVERT JUMPDEST PUSH2 0x20C DUP3 PUSH2 0x207 DUP6 PUSH1 0x80 ADD MLOAD PUSH1 0x1 DUP6 PUSH2 0x1CE SWAP2 SWAP1 PUSH2 0x127C JUMP JUMPDEST DUP2 MLOAD DUP2 LT PUSH2 0x1DF JUMPI PUSH2 0x1DE PUSH2 0x1222 JUMP JUMPDEST JUMPDEST PUSH1 0x20 MUL PUSH1 0x20 ADD ADD MLOAD DUP11 DUP6 DUP2 MLOAD DUP2 LT PUSH2 0x1FA JUMPI PUSH2 0x1F9 PUSH2 0x1222 JUMP JUMPDEST JUMPDEST PUSH1 0x20 MUL PUSH1 0x20 ADD ADD MLOAD PUSH2 0x71F JUMP JUMPDEST PUSH2 0x7BC JUMP JUMPDEST SWAP2 POP DUP1 DUP1 PUSH1 0x1 ADD SWAP2 POP POP PUSH2 0x187 JUMP JUMPDEST POP PUSH2 0x244 DUP2 DUP4 PUSH1 0x80 ADD MLOAD PUSH0 DUP2 MLOAD DUP2 LT PUSH2 0x237 JUMPI PUSH2 0x236 PUSH2 0x1222 JUMP JUMPDEST JUMPDEST PUSH1 0x20 MUL PUSH1 0x20 ADD ADD MLOAD PUSH2 0x7BC JUMP JUMPDEST SWAP1 POP PUSH2 0x288 DUP6 PUSH0 ADD MLOAD DUP7 PUSH1 0x20 ADD MLOAD PUSH2 0x25B DUP5 PUSH2 0x87E JUMP JUMPDEST DUP6 PUSH1 0x40 ADD MLOAD PUSH2 0x26D DUP11 PUSH1 0x40 ADD MLOAD PUSH2 0x87E JUMP JUMPDEST DUP8 PUSH1 0x60 ADD MLOAD PUSH2 0x27E DUP10 PUSH0 ADD MLOAD PUSH2 0x87E JUMP JUMPDEST DUP10 PUSH1 0x20 ADD MLOAD PUSH2 0x91C JUMP JUMPDEST PUSH2 0x298 JUMPI PUSH1 0x1 SWAP4 POP POP POP POP PUSH2 0x29F JUMP JUMPDEST PUSH0 SWAP4 POP POP POP POP JUMPDEST SWAP3 SWAP2 POP POP JUMP JUMPDEST PUSH2 0x2AD PUSH2 0xE24 JUMP JUMPDEST PUSH1 0x40 MLOAD DUP1 PUSH1 0x40 ADD PUSH1 0x40 MSTORE DUP1 PUSH32 0x26BB205C498A22925F9EB016398053B04955739048D66015901F9B51D1004876 DUP2 MSTORE PUSH1 0x20 ADD PUSH32 0x60C7E0B412FC46BF989391BAEFECFBF7690A9C1FD008B3555BEF3467833325B DUP2 MSTORE POP DUP2 PUSH0 ADD DUP2 SWAP1 MSTORE POP PUSH1 0x40 MLOAD DUP1 PUSH1 0x40 ADD PUSH1 0x40 MSTORE DUP1 PUSH1 0x40 MLOAD DUP1 PUSH1 0x40 ADD PUSH1 0x40 MSTORE DUP1 PUSH32 0x7455AFD10E48D8ADC94C6CB955F7A13056CBEABE270C60696CD586838F636D7 DUP2 MSTORE PUSH1 0x20 ADD PUSH32 0x160AE88DCD3C4FE37FDE12F5D044E1FEFB4310EC954B5D1D6C8EC23D5B3DE0CF DUP2 MSTORE POP DUP2 MSTORE PUSH1 0x20 ADD PUSH1 0x40 MLOAD DUP1 PUSH1 0x40 ADD PUSH1 0x40 MSTORE DUP1 PUSH32 0xC3E3F64AABF0B0AE49FC5B2385C0A5359528C960BD88EE56328CCF699116425 DUP2 MSTORE PUSH1 0x20 ADD PUSH32 0x25ACA19F499752F75387C0C6901D2BA83CC1DC78671797F5DE5F8B5F3909E79C DUP2 MSTORE POP DUP2 MSTORE POP DUP2 PUSH1 0x20 ADD DUP2 SWAP1 MSTORE POP PUSH1 0x40 MLOAD DUP1 PUSH1 0x40 ADD PUSH1 0x40 MSTORE DUP1 PUSH1 0x40 MLOAD DUP1 PUSH1 0x40 ADD PUSH1 0x40 MSTORE DUP1 PUSH32 0x2EA0755CDAFBCDF3618A816638CFBB3E8B9BC2B9D9FDBB567FD9C59D3D62B89C DUP2 MSTORE PUSH1 0x20 ADD PUSH32 0x2DF3F0489EE7459DCD5B8782BEB2364DEA66E1ADA8743C537B5A4CCC2A87490D DUP2 MSTORE POP DUP2 MSTORE PUSH1 0x20 ADD PUSH1 0x40 MLOAD DUP1 PUSH1 0x40 ADD PUSH1 0x40 MSTORE DUP1 PUSH32 0x241839646B28F60B6C5B8ED4B53CE041DEF39B7C6C8F355CDF22F60A8F7C8A97 DUP2 MSTORE PUSH1 0x20 ADD PUSH32 0x1231F39BDF173426047ABCA3739C01B6D12ED0AEA06569D092CBE4F9E875A52B DUP2 MSTORE POP DUP2 MSTORE POP DUP2 PUSH1 0x40 ADD DUP2 SWAP1 MSTORE POP PUSH1 0x40 MLOAD DUP1 PUSH1 0x40 ADD PUSH1 0x40 MSTORE DUP1 PUSH1 0x40 MLOAD DUP1 PUSH1 0x40 ADD PUSH1 0x40 MSTORE DUP1 PUSH32 0x2658FFB02A5761000A58FEDEFDFF81229B1C9A65005391E9FCF97CB1DAD76DB0 DUP2 MSTORE PUSH1 0x20 ADD PUSH32 0xE554CE08C1A2DA9855359B951B92F09C10EDF8BBA7E7BEF0C929E7E460E3D05 DUP2 MSTORE POP DUP2 MSTORE PUSH1 0x20 ADD PUSH1 0x40 MLOAD DUP1 PUSH1 0x40 ADD PUSH1 0x40 MSTORE DUP1 PUSH32 0x236199E5293DAE8270C322B940144D4C12994BE1F86AFF50869AF957E54A877E DUP2 MSTORE PUSH1 0x20 ADD PUSH32 0x20EFC074B3D67FA539CE9662BC4DC5714E95F61BB781DDC351F86CDF031437E3 DUP2 MSTORE POP DUP2 MSTORE POP DUP2 PUSH1 0x60 ADD DUP2 SWAP1 MSTORE POP PUSH1 0x3 PUSH8 0xFFFFFFFFFFFFFFFF DUP2 GT ISZERO PUSH2 0x573 JUMPI PUSH2 0x572 PUSH2 0xF52 JUMP JUMPDEST JUMPDEST PUSH1 0x40 MLOAD SWAP1 DUP1 DUP3 MSTORE DUP1 PUSH1 0x20 MUL PUSH1 0x20 ADD DUP3 ADD PUSH1 0x40 MSTORE DUP1 ISZERO PUSH2 0x5AC JUMPI DUP2 PUSH1 0x20 ADD JUMPDEST PUSH2 0x599 PUSH2 0xE6B JUMP JUMPDEST DUP2 MSTORE PUSH1 0x20 ADD SWAP1 PUSH1 0x1 SWAP1 SUB SWAP1 DUP2 PUSH2 0x591 JUMPI SWAP1 POP JUMPDEST POP DUP2 PUSH1 0x80 ADD DUP2 SWAP1 MSTORE POP PUSH1 0x40 MLOAD DUP1 PUSH1 0x40 ADD PUSH1 0x40 MSTORE DUP1 PUSH32 0x2449B06D27B48336767B5D8BC4D52CE228CC60EE92630A6C222EF9E503D7CEA5 DUP2 MSTORE PUSH1 0x20 ADD PUSH32 0x1CA11DB41C01DBCD955F04FBEA589AC80C864C58CA5AA5285D6B2E3302245750 DUP2 MSTORE POP DUP2 PUSH1 0x80 ADD MLOAD PUSH0 DUP2 MLOAD DUP2 LT PUSH2 0x621 JUMPI PUSH2 0x620 PUSH2 0x1222 JUMP JUMPDEST JUMPDEST PUSH1 0x20 MUL PUSH1 0x20 ADD ADD DUP2 SWAP1 MSTORE POP PUSH1 0x40 MLOAD DUP1 PUSH1 0x40 ADD PUSH1 0x40 MSTORE DUP1 PUSH32 0x17A9BEAE3E09C309278103E632111B91B6C9D640F951D3AEAC03591DA8AE40B5 DUP2 MSTORE PUSH1 0x20 ADD PUSH32 0x206E10FCB53FB98DEEA10F1D28F421DF58F36C8E112377605EC75C6AE659BA16 DUP2 MSTORE POP DUP2 PUSH1 0x80 ADD MLOAD PUSH1 0x1 DUP2 MLOAD DUP2 LT PUSH2 0x699 JUMPI PUSH2 0x698 PUSH2 0x1222 JUMP JUMPDEST JUMPDEST PUSH1 0x20 MUL PUSH1 0x20 ADD ADD DUP2 SWAP1 MSTORE POP PUSH1 0x40 MLOAD DUP1 PUSH1 0x40 ADD PUSH1 0x40 MSTORE DUP1 PUSH32 0x11314268E0C3005C6CA1091E87AF9B5A4D47B502FD78438CE37CE21C695A150F DUP2 MSTORE PUSH1 0x20 ADD PUSH32 0x990366392596FE4448BFAC48FAF76B4EF813F4AF858627007105C6BC94CEF7C DUP2 MSTORE POP DUP2 PUSH1 0x80 ADD MLOAD PUSH1 0x2 DUP2 MLOAD DUP2 LT PUSH2 0x711 JUMPI PUSH2 0x710 PUSH2 0x1222 JUMP JUMPDEST JUMPDEST PUSH1 0x20 MUL PUSH1 0x20 ADD ADD DUP2 SWAP1 MSTORE POP SWAP1 JUMP JUMPDEST PUSH2 0x727 PUSH2 0xE6B JUMP JUMPDEST PUSH2 0x72F PUSH2 0xE83 JUMP JUMPDEST DUP4 PUSH0 ADD MLOAD DUP2 PUSH0 PUSH1 0x3 DUP2 LT PUSH2 0x746 JUMPI PUSH2 0x745 PUSH2 0x1222 JUMP JUMPDEST JUMPDEST PUSH1 0x20 MUL ADD DUP2 DUP2 MSTORE POP POP DUP4 PUSH1 0x20 ADD MLOAD DUP2 PUSH1 0x1 PUSH1 0x3 DUP2 LT PUSH2 0x768 JUMPI PUSH2 0x767 PUSH2 0x1222 JUMP JUMPDEST JUMPDEST PUSH1 0x20 MUL ADD DUP2 DUP2 MSTORE POP POP DUP3 DUP2 PUSH1 0x2 PUSH1 0x3 DUP2 LT PUSH2 0x786 JUMPI PUSH2 0x785 PUSH2 0x1222 JUMP JUMPDEST JUMPDEST PUSH1 0x20 MUL ADD DUP2 DUP2 MSTORE POP POP PUSH0 PUSH1 0x60 DUP4 PUSH1 0x80 DUP5 PUSH1 0x7 PUSH2 0x7D0 GAS SUB STATICCALL SWAP1 POP DUP1 PUSH0 DUP2 SUB PUSH2 0x7AA JUMPI INVALID JUMPDEST POP DUP1 PUSH2 0x7B4 JUMPI PUSH0 DUP1 REVERT JUMPDEST POP POP SWAP3 SWAP2 POP POP JUMP JUMPDEST PUSH2 0x7C4 PUSH2 0xE6B JUMP JUMPDEST PUSH2 0x7CC PUSH2 0xEA5 JUMP JUMPDEST DUP4 PUSH0 ADD MLOAD DUP2 PUSH0 PUSH1 0x4 DUP2 LT PUSH2 0x7E3 JUMPI PUSH2 0x7E2 PUSH2 0x1222 JUMP JUMPDEST JUMPDEST PUSH1 0x20 MUL ADD DUP2 DUP2 MSTORE POP POP DUP4 PUSH1 0x20 ADD MLOAD DUP2 PUSH1 0x1 PUSH1 0x4 DUP2 LT PUSH2 0x805 JUMPI PUSH2 0x804 PUSH2 0x1222 JUMP JUMPDEST JUMPDEST PUSH1 0x20 MUL ADD DUP2 DUP2 MSTORE POP POP DUP3 PUSH0 ADD MLOAD DUP2 PUSH1 0x2 PUSH1 0x4 DUP2 LT PUSH2 0x826 JUMPI PUSH2 0x825 PUSH2 0x1222 JUMP JUMPDEST JUMPDEST PUSH1 0x20 MUL ADD DUP2 DUP2 MSTORE POP POP DUP3 PUSH1 0x20 ADD MLOAD DUP2 PUSH1 0x3 PUSH1 0x4 DUP2 LT PUSH2 0x848 JUMPI PUSH2 0x847 PUSH2 0x1222 JUMP JUMPDEST JUMPDEST PUSH1 0x20 MUL ADD DUP2 DUP2 MSTORE POP POP PUSH0 PUSH1 0x60 DUP4 PUSH1 0xC0 DUP5 PUSH1 0x6 PUSH2 0x7D0 GAS SUB STATICCALL SWAP1 POP DUP1 PUSH0 DUP2 SUB PUSH2 0x86C JUMPI INVALID JUMPDEST POP DUP1 PUSH2 0x876 JUMPI PUSH0 DUP1 REVERT JUMPDEST POP POP SWAP3 SWAP2 POP POP JUMP JUMPDEST PUSH2 0x886 PUSH2 0xE6B JUMP JUMPDEST PUSH0 PUSH32 0x30644E72E131A029B85045B68181585D97816A916871CA8D3C208C16D87CFD47 SWAP1 POP PUSH0 DUP4 PUSH0 ADD MLOAD EQ DUP1 ISZERO PUSH2 0x8BF JUMPI POP PUSH0 DUP4 PUSH1 0x20 ADD MLOAD EQ JUMPDEST ISZERO PUSH2 0x8E1 JUMPI PUSH1 0x40 MLOAD DUP1 PUSH1 0x40 ADD PUSH1 0x40 MSTORE DUP1 PUSH0 DUP2 MSTORE PUSH1 0x20 ADD PUSH0 DUP2 MSTORE POP SWAP2 POP POP PUSH2 0x917 JUMP JUMPDEST PUSH1 0x40 MLOAD DUP1 PUSH1 0x40 ADD PUSH1 0x40 MSTORE DUP1 DUP5 PUSH0 ADD MLOAD DUP2 MSTORE PUSH1 0x20 ADD DUP3 DUP6 PUSH1 0x20 ADD MLOAD PUSH2 0x905 SWAP2 SWAP1 PUSH2 0x12DC JUMP JUMPDEST DUP4 PUSH2 0x910 SWAP2 SWAP1 PUSH2 0x130C JUMP JUMPDEST DUP2 MSTORE POP SWAP2 POP POP JUMPDEST SWAP2 SWAP1 POP JUMP JUMPDEST PUSH0 DUP1 PUSH1 0x4 PUSH8 0xFFFFFFFFFFFFFFFF DUP2 GT ISZERO PUSH2 0x939 JUMPI PUSH2 0x938 PUSH2 0xF52 JUMP JUMPDEST JUMPDEST PUSH1 0x40 MLOAD SWAP1 DUP1 DUP3 MSTORE DUP1 PUSH1 0x20 MUL PUSH1 0x20 ADD DUP3 ADD PUSH1 0x40 MSTORE DUP1 ISZERO PUSH2 0x972 JUMPI DUP2 PUSH1 0x20 ADD JUMPDEST PUSH2 0x95F PUSH2 0xE6B JUMP JUMPDEST DUP2 MSTORE PUSH1 0x20 ADD SWAP1 PUSH1 0x1 SWAP1 SUB SWAP1 DUP2 PUSH2 0x957 JUMPI SWAP1 POP JUMPDEST POP SWAP1 POP PUSH0 PUSH1 0x4 PUSH8 0xFFFFFFFFFFFFFFFF DUP2 GT ISZERO PUSH2 0x991 JUMPI PUSH2 0x990 PUSH2 0xF52 JUMP JUMPDEST JUMPDEST PUSH1 0x40 MLOAD SWAP1 DUP1 DUP3 MSTORE DUP1 PUSH1 0x20 MUL PUSH1 0x20 ADD DUP3 ADD PUSH1 0x40 MSTORE DUP1 ISZERO PUSH2 0x9CA JUMPI DUP2 PUSH1 0x20 ADD JUMPDEST PUSH2 0x9B7 PUSH2 0xEC7 JUMP JUMPDEST DUP2 MSTORE PUSH1 0x20 ADD SWAP1 PUSH1 0x1 SWAP1 SUB SWAP1 DUP2 PUSH2 0x9AF JUMPI SWAP1 POP JUMPDEST POP SWAP1 POP DUP11 DUP3 PUSH0 DUP2 MLOAD DUP2 LT PUSH2 0x9E1 JUMPI PUSH2 0x9E0 PUSH2 0x1222 JUMP JUMPDEST JUMPDEST PUSH1 0x20 MUL PUSH1 0x20 ADD ADD DUP2 SWAP1 MSTORE POP DUP9 DUP3 PUSH1 0x1 DUP2 MLOAD DUP2 LT PUSH2 0xA01 JUMPI PUSH2 0xA00 PUSH2 0x1222 JUMP JUMPDEST JUMPDEST PUSH1 0x20 MUL PUSH1 0x20 ADD ADD DUP2 SWAP1 MSTORE POP DUP7 DUP3 PUSH1 0x2 DUP2 MLOAD DUP2 LT PUSH2 0xA21 JUMPI PUSH2 0xA20 PUSH2 0x1222 JUMP JUMPDEST JUMPDEST PUSH1 0x20 MUL PUSH1 0x20 ADD ADD DUP2 SWAP1 MSTORE POP DUP5 DUP3 PUSH1 0x3 DUP2 MLOAD DUP2 LT PUSH2 0xA41 JUMPI PUSH2 0xA40 PUSH2 0x1222 JUMP JUMPDEST JUMPDEST PUSH1 0x20 MUL PUSH1 0x20 ADD ADD DUP2 SWAP1 MSTORE POP DUP10 DUP2 PUSH0 DUP2 MLOAD DUP2 LT PUSH2 0xA60 JUMPI PUSH2 0xA5F PUSH2 0x1222 JUMP JUMPDEST JUMPDEST PUSH1 0x20 MUL PUSH1 0x20 ADD ADD DUP2 SWAP1 MSTORE POP DUP8 DUP2 PUSH1 0x1 DUP2 MLOAD DUP2 LT PUSH2 0xA80 JUMPI PUSH2 0xA7F PUSH2 0x1222 JUMP JUMPDEST JUMPDEST PUSH1 0x20 MUL PUSH1 0x20 ADD ADD DUP2 SWAP1 MSTORE POP DUP6 DUP2 PUSH1 0x2 DUP2 MLOAD DUP2 LT PUSH2 0xAA0 JUMPI PUSH2 0xA9F PUSH2 0x1222 JUMP JUMPDEST JUMPDEST PUSH1 0x20 MUL PUSH1 0x20 ADD ADD DUP2 SWAP1 MSTORE POP DUP4 DUP2 PUSH1 0x3 DUP2 MLOAD DUP2 LT PUSH2 0xAC0 JUMPI PUSH2 0xABF PUSH2 0x1222 JUMP JUMPDEST JUMPDEST PUSH1 0x20 MUL PUSH1 0x20 ADD ADD DUP2 SWAP1 MSTORE POP PUSH2 0xAD5 DUP3 DUP3 PUSH2 0xAE5 JUMP JUMPDEST SWAP3 POP POP POP SWAP9 SWAP8 POP POP POP POP POP POP POP POP JUMP JUMPDEST PUSH0 DUP2 MLOAD DUP4 MLOAD EQ PUSH2 0xAF3 JUMPI PUSH0 DUP1 REVERT JUMPDEST PUSH0 DUP4 MLOAD SWAP1 POP PUSH0 PUSH1 0x6 DUP3 PUSH2 0xB06 SWAP2 SWAP1 PUSH2 0x133F JUMP JUMPDEST SWAP1 POP PUSH0 DUP2 PUSH8 0xFFFFFFFFFFFFFFFF DUP2 GT ISZERO PUSH2 0xB23 JUMPI PUSH2 0xB22 PUSH2 0xF52 JUMP JUMPDEST JUMPDEST PUSH1 0x40 MLOAD SWAP1 DUP1 DUP3 MSTORE DUP1 PUSH1 0x20 MUL PUSH1 0x20 ADD DUP3 ADD PUSH1 0x40 MSTORE DUP1 ISZERO PUSH2 0xB51 JUMPI DUP2 PUSH1 0x20 ADD PUSH1 0x20 DUP3 MUL DUP1 CALLDATASIZE DUP4 CALLDATACOPY DUP1 DUP3 ADD SWAP2 POP POP SWAP1 POP JUMPDEST POP SWAP1 POP PUSH0 JUMPDEST DUP4 DUP2 LT ISZERO PUSH2 0xDC9 JUMPI DUP7 DUP2 DUP2 MLOAD DUP2 LT PUSH2 0xB71 JUMPI PUSH2 0xB70 PUSH2 0x1222 JUMP JUMPDEST JUMPDEST PUSH1 0x20 MUL PUSH1 0x20 ADD ADD MLOAD PUSH0 ADD MLOAD DUP3 PUSH0 PUSH1 0x6 DUP5 PUSH2 0xB8B SWAP2 SWAP1 PUSH2 0x133F JUMP JUMPDEST PUSH2 0xB95 SWAP2 SWAP1 PUSH2 0x127C JUMP JUMPDEST DUP2 MLOAD DUP2 LT PUSH2 0xBA6 JUMPI PUSH2 0xBA5 PUSH2 0x1222 JUMP JUMPDEST JUMPDEST PUSH1 0x20 MUL PUSH1 0x20 ADD ADD DUP2 DUP2 MSTORE POP POP DUP7 DUP2 DUP2 MLOAD DUP2 LT PUSH2 0xBC5 JUMPI PUSH2 0xBC4 PUSH2 0x1222 JUMP JUMPDEST JUMPDEST PUSH1 0x20 MUL PUSH1 0x20 ADD ADD MLOAD PUSH1 0x20 ADD MLOAD DUP3 PUSH1 0x1 PUSH1 0x6 DUP5 PUSH2 0xBE1 SWAP2 SWAP1 PUSH2 0x133F JUMP JUMPDEST PUSH2 0xBEB SWAP2 SWAP1 PUSH2 0x127C JUMP JUMPDEST DUP2 MLOAD DUP2 LT PUSH2 0xBFC JUMPI PUSH2 0xBFB PUSH2 0x1222 JUMP JUMPDEST JUMPDEST PUSH1 0x20 MUL PUSH1 0x20 ADD ADD DUP2 DUP2 MSTORE POP POP DUP6 DUP2 DUP2 MLOAD DUP2 LT PUSH2 0xC1B JUMPI PUSH2 0xC1A PUSH2 0x1222 JUMP JUMPDEST JUMPDEST PUSH1 0x20 MUL PUSH1 0x20 ADD ADD MLOAD PUSH0 ADD MLOAD PUSH1 0x1 PUSH1 0x2 DUP2 LT PUSH2 0xC39 JUMPI PUSH2 0xC38 PUSH2 0x1222 JUMP JUMPDEST JUMPDEST PUSH1 0x20 MUL ADD MLOAD DUP3 PUSH1 0x2 PUSH1 0x6 DUP5 PUSH2 0xC4E SWAP2 SWAP1 PUSH2 0x133F JUMP JUMPDEST PUSH2 0xC58 SWAP2 SWAP1 PUSH2 0x127C JUMP JUMPDEST DUP2 MLOAD DUP2 LT PUSH2 0xC69 JUMPI PUSH2 0xC68 PUSH2 0x1222 JUMP JUMPDEST JUMPDEST PUSH1 0x20 MUL PUSH1 0x20 ADD ADD DUP2 DUP2 MSTORE POP POP DUP6 DUP2 DUP2 MLOAD DUP2 LT PUSH2 0xC88 JUMPI PUSH2 0xC87 PUSH2 0x1222 JUMP JUMPDEST JUMPDEST PUSH1 0x20 MUL PUSH1 0x20 ADD ADD MLOAD PUSH0 ADD MLOAD PUSH0 PUSH1 0x2 DUP2 LT PUSH2 0xCA5 JUMPI PUSH2 0xCA4 PUSH2 0x1222 JUMP JUMPDEST JUMPDEST PUSH1 0x20 MUL ADD MLOAD DUP3 PUSH1 0x3 PUSH1 0x6 DUP5 PUSH2 0xCBA SWAP2 SWAP1 PUSH2 0x133F JUMP JUMPDEST PUSH2 0xCC4 SWAP2 SWAP1 PUSH2 0x127C JUMP JUMPDEST DUP2 MLOAD DUP2 LT PUSH2 0xCD5 JUMPI PUSH2 0xCD4 PUSH2 0x1222 JUMP JUMPDEST JUMPDEST PUSH1 0x20 MUL PUSH1 0x20 ADD ADD DUP2 DUP2 MSTORE POP POP DUP6 DUP2 DUP2 MLOAD DUP2 LT PUSH2 0xCF4 JUMPI PUSH2 0xCF3 PUSH2 0x1222 JUMP JUMPDEST JUMPDEST PUSH1 0x20 MUL PUSH1 0x20 ADD ADD MLOAD PUSH1 0x20 ADD MLOAD PUSH1 0x1 PUSH1 0x2 DUP2 LT PUSH2 0xD13 JUMPI PUSH2 0xD12 PUSH2 0x1222 JUMP JUMPDEST JUMPDEST PUSH1 0x20 MUL ADD MLOAD DUP3 PUSH1 0x4 PUSH1 0x6 DUP5 PUSH2 0xD28 SWAP2 SWAP1 PUSH2 0x133F JUMP JUMPDEST PUSH2 0xD32 SWAP2 SWAP1 PUSH2 0x127C JUMP JUMPDEST DUP2 MLOAD DUP2 LT PUSH2 0xD43 JUMPI PUSH2 0xD42 PUSH2 0x1222 JUMP JUMPDEST JUMPDEST PUSH1 0x20 MUL PUSH1 0x20 ADD ADD DUP2 DUP2 MSTORE POP POP DUP6 DUP2 DUP2 MLOAD DUP2 LT PUSH2 0xD62 JUMPI PUSH2 0xD61 PUSH2 0x1222 JUMP JUMPDEST JUMPDEST PUSH1 0x20 MUL PUSH1 0x20 ADD ADD MLOAD PUSH1 0x20 ADD MLOAD PUSH0 PUSH1 0x2 DUP2 LT PUSH2 0xD80 JUMPI PUSH2 0xD7F PUSH2 0x1222 JUMP JUMPDEST JUMPDEST PUSH1 0x20 MUL ADD MLOAD DUP3 PUSH1 0x5 PUSH1 0x6 DUP5 PUSH2 0xD95 SWAP2 SWAP1 PUSH2 0x133F JUMP JUMPDEST PUSH2 0xD9F SWAP2 SWAP1 PUSH2 0x127C JUMP JUMPDEST DUP2 MLOAD DUP2 LT PUSH2 0xDB0 JUMPI PUSH2 0xDAF PUSH2 0x1222 JUMP JUMPDEST JUMPDEST PUSH1 0x20 MUL PUSH1 0x20 ADD ADD DUP2 DUP2 MSTORE POP POP DUP1 DUP1 PUSH1 0x1 ADD SWAP2 POP POP PUSH2 0xB56 JUMP JUMPDEST POP PUSH2 0xDD2 PUSH2 0xEED JUMP JUMPDEST PUSH0 PUSH1 0x20 DUP3 PUSH1 0x20 DUP7 MUL PUSH1 0x20 DUP7 ADD PUSH1 0x8 PUSH2 0x7D0 GAS SUB STATICCALL SWAP1 POP DUP1 PUSH0 DUP2 SUB PUSH2 0xDF2 JUMPI INVALID JUMPDEST POP DUP1 PUSH2 0xDFC JUMPI PUSH0 DUP1 REVERT JUMPDEST PUSH0 DUP3 PUSH0 PUSH1 0x1 DUP2 LT PUSH2 0xE10 JUMPI PUSH2 0xE0F PUSH2 0x1222 JUMP JUMPDEST JUMPDEST PUSH1 0x20 MUL ADD MLOAD EQ ISZERO SWAP6 POP POP POP POP POP POP SWAP3 SWAP2 POP POP JUMP JUMPDEST PUSH1 0x40 MLOAD DUP1 PUSH1 0xA0 ADD PUSH1 0x40 MSTORE DUP1 PUSH2 0xE37 PUSH2 0xE6B JUMP JUMPDEST DUP2 MSTORE PUSH1 0x20 ADD PUSH2 0xE44 PUSH2 0xEC7 JUMP JUMPDEST DUP2 MSTORE PUSH1 0x20 ADD PUSH2 0xE51 PUSH2 0xEC7 JUMP JUMPDEST DUP2 MSTORE PUSH1 0x20 ADD PUSH2 0xE5E PUSH2 0xEC7 JUMP JUMPDEST DUP2 MSTORE PUSH1 0x20 ADD PUSH1 0x60 DUP2 MSTORE POP SWAP1 JUMP JUMPDEST PUSH1 0x40 MLOAD DUP1 PUSH1 0x40 ADD PUSH1 0x40 MSTORE DUP1 PUSH0 DUP2 MSTORE PUSH1 0x20 ADD PUSH0 DUP2 MSTORE POP SWAP1 JUMP JUMPDEST PUSH1 0x40 MLOAD DUP1 PUSH1 0x60 ADD PUSH1 0x40 MSTORE DUP1 PUSH1 0x3 SWAP1 PUSH1 0x20 DUP3 MUL DUP1 CALLDATASIZE DUP4 CALLDATACOPY DUP1 DUP3 ADD SWAP2 POP POP SWAP1 POP POP SWAP1 JUMP JUMPDEST PUSH1 0x40 MLOAD DUP1 PUSH1 0x80 ADD PUSH1 0x40 MSTORE DUP1 PUSH1 0x4 SWAP1 PUSH1 0x20 DUP3 MUL DUP1 CALLDATASIZE DUP4 CALLDATACOPY DUP1 DUP3 ADD SWAP2 POP POP SWAP1 POP POP SWAP1 JUMP JUMPDEST PUSH1 0x40 MLOAD DUP1 PUSH1 0x40 ADD PUSH1 0x40 MSTORE DUP1 PUSH2 0xEDA PUSH2 0xF0F JUMP JUMPDEST DUP2 MSTORE PUSH1 0x20 ADD PUSH2 0xEE7 PUSH2 0xF0F JUMP JUMPDEST DUP2 MSTORE POP SWAP1 JUMP JUMPDEST PUSH1 0x40 MLOAD DUP1 PUSH1 0x20 ADD PUSH1 0x40 MSTORE DUP1 PUSH1 0x1 SWAP1 PUSH1 0x20 DUP3 MUL DUP1 CALLDATASIZE DUP4 CALLDATACOPY DUP1 DUP3 ADD SWAP2 POP POP SWAP1 POP POP SWAP1 JUMP JUMPDEST PUSH1 0x40 MLOAD DUP1 PUSH1 0x40 ADD PUSH1 0x40 MSTORE DUP1 PUSH1 0x2 SWAP1 PUSH1 0x20 DUP3 MUL DUP1 CALLDATASIZE DUP4 CALLDATACOPY DUP1 DUP3 ADD SWAP2 POP POP SWAP1 POP POP SWAP1 JUMP JUMPDEST PUSH0 PUSH1 0x40 MLOAD SWAP1 POP SWAP1 JUMP JUMPDEST PUSH0 DUP1 REVERT JUMPDEST PUSH0 DUP1 REVERT JUMPDEST PUSH0 PUSH1 0x1F NOT PUSH1 0x1F DUP4 ADD AND SWAP1 POP SWAP2 SWAP1 POP JUMP JUMPDEST PUSH32 0x4E487B7100000000000000000000000000000000000000000000000000000000 PUSH0 MSTORE PUSH1 0x41 PUSH1 0x4 MSTORE PUSH1 0x24 PUSH0 REVERT JUMPDEST PUSH2 0xF88 DUP3 PUSH2 0xF42 JUMP JUMPDEST DUP2 ADD DUP2 DUP2 LT PUSH8 0xFFFFFFFFFFFFFFFF DUP3 GT OR ISZERO PUSH2 0xFA7 JUMPI PUSH2 0xFA6 PUSH2 0xF52 JUMP JUMPDEST JUMPDEST DUP1 PUSH1 0x40 MSTORE POP POP POP JUMP JUMPDEST PUSH0 PUSH2 0xFB9 PUSH2 0xF31 JUMP JUMPDEST SWAP1 POP PUSH2 0xFC5 DUP3 DUP3 PUSH2 0xF7F JUMP JUMPDEST SWAP2 SWAP1 POP JUMP JUMPDEST PUSH0 DUP2 SWAP1 POP SWAP2 SWAP1 POP JUMP JUMPDEST PUSH2 0xFDC DUP2 PUSH2 0xFCA JUMP JUMPDEST DUP2 EQ PUSH2 0xFE6 JUMPI PUSH0 DUP1 REVERT JUMPDEST POP JUMP JUMPDEST PUSH0 DUP2 CALLDATALOAD SWAP1 POP PUSH2 0xFF7 DUP2 PUSH2 0xFD3 JUMP JUMPDEST SWAP3 SWAP2 POP POP JUMP JUMPDEST PUSH0 PUSH1 0x40 DUP3 DUP5 SUB SLT ISZERO PUSH2 0x1012 JUMPI PUSH2 0x1011 PUSH2 0xF3E JUMP JUMPDEST JUMPDEST PUSH2 0x101C PUSH1 0x40 PUSH2 0xFB0 JUMP JUMPDEST SWAP1 POP PUSH0 PUSH2 0x102B DUP5 DUP3 DUP6 ADD PUSH2 0xFE9 JUMP JUMPDEST PUSH0 DUP4 ADD MSTORE POP PUSH1 0x20 PUSH2 0x103E DUP5 DUP3 DUP6 ADD PUSH2 0xFE9 JUMP JUMPDEST PUSH1 0x20 DUP4 ADD MSTORE POP SWAP3 SWAP2 POP POP JUMP JUMPDEST PUSH0 DUP1 REVERT JUMPDEST PUSH0 PUSH8 0xFFFFFFFFFFFFFFFF DUP3 GT ISZERO PUSH2 0x1068 JUMPI PUSH2 0x1067 PUSH2 0xF52 JUMP JUMPDEST JUMPDEST PUSH1 0x20 DUP3 MUL SWAP1 POP SWAP2 SWAP1 POP JUMP JUMPDEST PUSH0 DUP1 REVERT JUMPDEST PUSH0 PUSH2 0x1089 PUSH2 0x1084 DUP5 PUSH2 0x104E JUMP JUMPDEST PUSH2 0xFB0 JUMP JUMPDEST SWAP1 POP DUP1 PUSH1 0x20 DUP5 MUL DUP4 ADD DUP6 DUP2 GT ISZERO PUSH2 0x10A3 JUMPI PUSH2 0x10A2 PUSH2 0x1073 JUMP JUMPDEST JUMPDEST DUP4 JUMPDEST DUP2 DUP2 LT ISZERO PUSH2 0x10CC JUMPI DUP1 PUSH2 0x10B8 DUP9 DUP3 PUSH2 0xFE9 JUMP JUMPDEST DUP5 MSTORE PUSH1 0x20 DUP5 ADD SWAP4 POP POP PUSH1 0x20 DUP2 ADD SWAP1 POP PUSH2 0x10A5 JUMP JUMPDEST POP POP POP SWAP4 SWAP3 POP POP POP JUMP JUMPDEST PUSH0 DUP3 PUSH1 0x1F DUP4 ADD SLT PUSH2 0x10EA JUMPI PUSH2 0x10E9 PUSH2 0x104A JUMP JUMPDEST JUMPDEST PUSH1 0x2 PUSH2 0x10F7 DUP5 DUP3 DUP6 PUSH2 0x1077 JUMP JUMPDEST SWAP2 POP POP SWAP3 SWAP2 POP POP JUMP JUMPDEST PUSH0 PUSH1 0x80 DUP3 DUP5 SUB SLT ISZERO PUSH2 0x1115 JUMPI PUSH2 0x1114 PUSH2 0xF3E JUMP JUMPDEST JUMPDEST PUSH2 0x111F PUSH1 0x40 PUSH2 0xFB0 JUMP JUMPDEST SWAP1 POP PUSH0 PUSH2 0x112E DUP5 DUP3 DUP6 ADD PUSH2 0x10D6 JUMP JUMPDEST PUSH0 DUP4 ADD MSTORE POP PUSH1 0x40 PUSH2 0x1141 DUP5 DUP3 DUP6 ADD PUSH2 0x10D6 JUMP JUMPDEST PUSH1 0x20 DUP4 ADD MSTORE POP SWAP3 SWAP2 POP POP JUMP JUMPDEST PUSH0 PUSH2 0x100 DUP3 DUP5 SUB SLT ISZERO PUSH2 0x1163 JUMPI PUSH2 0x1162 PUSH2 0xF3E JUMP JUMPDEST JUMPDEST PUSH2 0x116D PUSH1 0x60 PUSH2 0xFB0 JUMP JUMPDEST SWAP1 POP PUSH0 PUSH2 0x117C DUP5 DUP3 DUP6 ADD PUSH2 0xFFD JUMP JUMPDEST PUSH0 DUP4 ADD MSTORE POP PUSH1 0x40 PUSH2 0x118F DUP5 DUP3 DUP6 ADD PUSH2 0x1100 JUMP JUMPDEST PUSH1 0x20 DUP4 ADD MSTORE POP PUSH1 0xC0 PUSH2 0x11A3 DUP5 DUP3 DUP6 ADD PUSH2 0xFFD JUMP JUMPDEST PUSH1 0x40 DUP4 ADD MSTORE POP SWAP3 SWAP2 POP POP JUMP JUMPDEST PUSH0 DUP1 PUSH2 0x140 DUP4 DUP6 SUB SLT ISZERO PUSH2 0x11C6 JUMPI PUSH2 0x11C5 PUSH2 0xF3A JUMP JUMPDEST JUMPDEST PUSH0 PUSH2 0x11D3 DUP6 DUP3 DUP7 ADD PUSH2 0x114D JUMP JUMPDEST SWAP3 POP POP PUSH2 0x100 PUSH2 0x11E5 DUP6 DUP3 DUP7 ADD PUSH2 0x10D6 JUMP JUMPDEST SWAP2 POP POP SWAP3 POP SWAP3 SWAP1 POP JUMP JUMPDEST PUSH0 DUP2 ISZERO ISZERO SWAP1 POP SWAP2 SWAP1 POP JUMP JUMPDEST PUSH2 0x1203 DUP2 PUSH2 0x11EF JUMP JUMPDEST DUP3 MSTORE POP POP JUMP JUMPDEST PUSH0 PUSH1 0x20 DUP3 ADD SWAP1 POP PUSH2 0x121C PUSH0 DUP4 ADD DUP5 PUSH2 0x11FA JUMP JUMPDEST SWAP3 SWAP2 POP POP JUMP JUMPDEST PUSH32 0x4E487B7100000000000000000000000000000000000000000000000000000000 PUSH0 MSTORE PUSH1 0x32 PUSH1 0x4 MSTORE PUSH1 0x24 PUSH0 REVERT JUMPDEST PUSH32 0x4E487B7100000000000000000000000000000000000000000000000000000000 PUSH0 MSTORE PUSH1 0x11 PUSH1 0x4 MSTORE PUSH1 0x24 PUSH0 REVERT JUMPDEST PUSH0 PUSH2 0x1286 DUP3 PUSH2 0xFCA JUMP JUMPDEST SWAP2 POP PUSH2 0x1291 DUP4 PUSH2 0xFCA JUMP JUMPDEST SWAP3 POP DUP3 DUP3 ADD SWAP1 POP DUP1 DUP3 GT ISZERO PUSH2 0x12A9 JUMPI PUSH2 0x12A8 PUSH2 0x124F JUMP JUMPDEST JUMPDEST SWAP3 SWAP2 POP POP JUMP JUMPDEST PUSH32 0x4E487B7100000000000000000000000000000000000000000000000000000000 PUSH0 MSTORE PUSH1 0x12 PUSH1 0x4 MSTORE PUSH1 0x24 PUSH0 REVERT JUMPDEST PUSH0 PUSH2 0x12E6 DUP3 PUSH2 0xFCA JUMP JUMPDEST SWAP2 POP PUSH2 0x12F1 DUP4 PUSH2 0xFCA JUMP JUMPDEST SWAP3 POP DUP3 PUSH2 0x1301 JUMPI PUSH2 0x1300 PUSH2 0x12AF JUMP JUMPDEST JUMPDEST DUP3 DUP3 MOD SWAP1 POP SWAP3 SWAP2 POP POP JUMP JUMPDEST PUSH0 PUSH2 0x1316 DUP3 PUSH2 0xFCA JUMP JUMPDEST SWAP2 POP PUSH2 0x1321 DUP4 PUSH2 0xFCA JUMP JUMPDEST SWAP3 POP DUP3 DUP3 SUB SWAP1 POP DUP2 DUP2 GT ISZERO PUSH2 0x1339 JUMPI PUSH2 0x1338 PUSH2 0x124F JUMP JUMPDEST JUMPDEST SWAP3 SWAP2 POP POP JUMP JUMPDEST PUSH0 PUSH2 0x1349 DUP3 PUSH2 0xFCA JUMP JUMPDEST SWAP2 POP PUSH2 0x1354 DUP4 PUSH2 0xFCA JUMP JUMPDEST SWAP3 POP DUP3 DUP3 MUL PUSH2 0x1362 DUP2 PUSH2 0xFCA JUMP JUMPDEST SWAP2 POP DUP3 DUP3 DIV DUP5 EQ DUP4 ISZERO OR PUSH2 0x1379 JUMPI PUSH2 0x1378 PUSH2 0x124F JUMP JUMPDEST JUMPDEST POP SWAP3 SWAP2 POP POP JUMP INVALID LOG2 PUSH5 0x6970667358 0x22 SLT KECCAK256 0xB6 SUB GASLIMIT NUMBER DUP5 0xEA 0xD1 CREATE2 0xF6 PUSH21 0x99E7E39C50612C13D7B32D2E816E97A716207937A9 SUB PUSH5 0x736F6C6343 STOP ADDMOD OR STOP CALLER "
				},
				"gasEstimates": {
					"creation": {
						"codeDepositCost": "1009200",
						"executionCost": "1045",
						"totalCost": "1010245"
					},
					"external": {
						"verifyTx(((uint256,uint256),(uint256[2],uint256[2]),(uint256,uint256)),uint256[2])": "infinite"
					},
					"internal": {
						"verify(uint256[] memory,struct Verifier.Proof memory)": "infinite",
						"verifyingKey()": "infinite"
					}
				},
				"methodIdentifiers": {
					"verifyTx(((uint256,uint256),(uint256[2],uint256[2]),(uint256,uint256)),uint256[2])": "43cd76fc"
				}
			},
			"storageLayout": {
				"storage": [],
				"types": null
			},
			"userdoc": {
				"kind": "user",
				"methods": {},
				"version": 1
			}
		}
	}
}