{
  "_format": "hh-sol-artifact-1",
  "contractName": "AssetManagement",
  "sourceName": "contracts/AssetManagement.sol",
  "abi": [
    {
      "anonymous": false,
      "inputs": [
        {
          "indexed": true,
          "internalType": "address",
          "name": "patientAddress",
          "type": "address"
        },
        {
          "indexed": true,
          "internalType": "address",
          "name": "patient",
          "type": "address"
        }
      ],
      "name": "PatientRegistered",
      "type": "event"
    },
    {
      "inputs": [
        {
          "internalType": "string",
          "name": "_id",
          "type": "string"
        },
        {
          "internalType": "address",
          "name": "_patient",
          "type": "address"
        }
      ],
      "name": "addMedicalAssetId",
      "outputs": [],
      "stateMutability": "nonpayable",
      "type": "function"
    },
    {
      "inputs": [],
      "name": "getAllAssetIds",
      "outputs": [
        {
          "internalType": "string[][]",
          "name": "",
          "type": "string[][]"
        }
      ],
      "stateMutability": "view",
      "type": "function"
    },
    {
      "inputs": [
        {
          "internalType": "address",
          "name": "_patient",
          "type": "address"
        }
      ],
      "name": "registerPatient",
      "outputs": [],
      "stateMutability": "nonpayable",
      "type": "function"
    }
  ],
  "bytecode": "0x608060405234801561001057600080fd5b506106d1806100206000396000f3fe608060405234801561001057600080fd5b50600436106100415760003560e01c80631388c51914610046578063c6fdff491461005b578063e122f9071461006e575b600080fd5b610059610054366004610371565b61008c565b005b6100596100693660046103a9565b610184565b6100766101bc565b604051610083919061046b565b60405180910390f35b6001600160a01b0381811660009081526020819052604090205416156100f85760405162461bcd60e51b815260206004820152601a60248201527f50617469656e7420616c72656164792072656769737465726564000000000000604482015260640160405180910390fd5b6001600160a01b03811660008181526020819052604080822080546001600160a01b031990811685179091556001805480820182559084527fb10e2d527612073b26eecdfd717e6a320cf44b4afac2b0732d9fcbe2b7fa0cf6018054909116841790555133917fd9c832986bb955c0db83dc9f099b47feca6da2be0a3ae3e14b64c3a0a2f1e29191a350565b6001600160a01b038116600090815260208181526040822060019081018054918201815583529120016101b783826105c5565b505050565b60015460609060009067ffffffffffffffff8111156101dd576101dd610393565b60405190808252806020026020018201604052801561021057816020015b60608152602001906001900390816101fb5790505b50905060005b60015481101561034f576000806001838154811061023657610236610685565b60009182526020808320909101546001600160a01b031683528281019390935260409182018120600101805483518186028101860190945280845292939092919084015b8282101561032657838290600052602060002001805461029990610541565b80601f01602080910402602001604051908101604052809291908181526020018280546102c590610541565b80156103125780601f106102e757610100808354040283529160200191610312565b820191906000526020600020905b8154815290600101906020018083116102f557829003601f168201915b50505050508152602001906001019061027a565b5050505082828151811061033c5761033c610685565b6020908102919091010152600101610216565b50919050565b80356001600160a01b038116811461036c57600080fd5b919050565b60006020828403121561038357600080fd5b61038c82610355565b9392505050565b634e487b7160e01b600052604160045260246000fd5b600080604083850312156103bc57600080fd5b823567ffffffffffffffff808211156103d457600080fd5b818501915085601f8301126103e857600080fd5b8135818111156103fa576103fa610393565b604051601f8201601f19908116603f0116810190838211818310171561042257610422610393565b8160405282815288602084870101111561043b57600080fd5b82602086016020830137600060208483010152809650505050505061046260208401610355565b90509250929050565b6000602080830181845280855180835260408601915060408160051b870101925083870160005b8281101561053457878503603f19018452815180518087529087019087870190600581901b8801890160005b8281101561051e57601f19808b84030185528551805180855260005b818110156104f8578e81840101518f82880101528e810190506104da565b5060008582018f0152968d0196958d0195601f019091169092018b0191506001016104be565b5097505050938601935090850190600101610492565b5092979650505050505050565b600181811c9082168061055557607f821691505b60208210810361034f57634e487b7160e01b600052602260045260246000fd5b601f8211156101b7576000816000526020600020601f850160051c8101602086101561059e5750805b601f850160051c820191505b818110156105bd578281556001016105aa565b505050505050565b815167ffffffffffffffff8111156105df576105df610393565b6105f3816105ed8454610541565b84610575565b602080601f83116001811461062857600084156106105750858301515b600019600386901b1c1916600185901b1785556105bd565b600085815260208120601f198616915b8281101561065757888601518255948401946001909101908401610638565b50858210156106755787850151600019600388901b60f8161c191681555b5050505050600190811b01905550565b634e487b7160e01b600052603260045260246000fdfea264697066735822122009c70a877ccfcec5e055a4f4ae875f5e34d5884eaba67eaa09c8ca88aeaa53b464736f6c63430008170033",
  "linkReferences": {},
  "deployedLinkReferences": {}
}