{
  "_format": "hh-sol-artifact-1",
  "contractName": "AssetManagement",
  "sourceName": "contracts/AssetManagement.sol",
  "abi": [
    {
      "inputs": [
        {
          "internalType": "string",
          "name": "_id",
          "type": "string"
        }
      ],
      "name": "addMedicalAssetId",
      "outputs": [],
      "stateMutability": "nonpayable",
      "type": "function"
    },
    {
      "inputs": [
        {
          "internalType": "string",
          "name": "_assetId",
          "type": "string"
        },
        {
          "internalType": "address",
          "name": "_entity",
          "type": "address"
        }
      ],
      "name": "grantAccessToAssetId",
      "outputs": [],
      "stateMutability": "nonpayable",
      "type": "function"
    },
    {
      "inputs": [],
      "name": "registerPatient",
      "outputs": [],
      "stateMutability": "nonpayable",
      "type": "function"
    },
    {
      "inputs": [
        {
          "internalType": "string",
          "name": "_assetId",
          "type": "string"
        },
        {
          "internalType": "address",
          "name": "_entity",
          "type": "address"
        }
      ],
      "name": "revokeAccessToAssetId",
      "outputs": [],
      "stateMutability": "nonpayable",
      "type": "function"
    },
    {
      "inputs": [],
      "name": "viewAllAssetIds",
      "outputs": [
        {
          "internalType": "string[]",
          "name": "",
          "type": "string[]"
        }
      ],
      "stateMutability": "view",
      "type": "function"
    },
    {
      "inputs": [
        {
          "internalType": "address",
          "name": "_patient",
          "type": "address"
        },
        {
          "internalType": "string",
          "name": "_assetId",
          "type": "string"
        }
      ],
      "name": "viewMedicalAssetId",
      "outputs": [
        {
          "internalType": "string",
          "name": "",
          "type": "string"
        }
      ],
      "stateMutability": "view",
      "type": "function"
    }
  ],
  "bytecode": "0x608060405234801561001057600080fd5b50610a69806100206000396000f3fe608060405234801561001057600080fd5b50600436106100625760003560e01c80635053c66e146100675780637d34f5bd14610085578063822d38851461009a57806384e46625146100a2578063c9d55857146100b5578063ea1cbd77146100d5575b600080fd5b61006f6100e8565b60405161007c91906105e2565b60405180910390f35b6100986100933660046106e9565b61020c565b005b610098610270565b6100986100b0366004610742565b6102f8565b6100c86100c3366004610790565b61038c565b60405161007c91906107de565b6100986100e3366004610742565b610537565b336000818152602081905260409020546060916001600160a01b039091161461012c5760405162461bcd60e51b8152600401610123906107f8565b60405180910390fd5b3360009081526020818152604080832060010180548251818502810185019093528083529193909284015b8282101561020357838290600052602060002001805461017690610840565b80601f01602080910402602001604051908101604052809291908181526020018280546101a290610840565b80156101ef5780601f106101c4576101008083540402835291602001916101ef565b820191906000526020600020905b8154815290600101906020018083116101d257829003601f168201915b505050505081526020019060010190610157565b50505050905090565b336000818152602081905260409020546001600160a01b0316146102425760405162461bcd60e51b8152600401610123906107f8565b336000908152602081815260408220600190810180549182018155835291200161026c82826108cb565b5050565b336000908152602081905260409020546001600160a01b0316156102d65760405162461bcd60e51b815260206004820152601a60248201527f50617469656e7420616c726561647920726567697374657265640000000000006044820152606401610123565b33600081815260208190526040902080546001600160a01b0319169091179055565b336000818152602081905260409020546001600160a01b03161461032e5760405162461bcd60e51b8152600401610123906107f8565b33600090815260208190526040808220905160029091019061035190859061098b565b90815260408051602092819003830190206001600160a01b0394909416600090815293909152909120805460ff191691151591909117905550565b60608282600080836001600160a01b03166001600160a01b03168152602001908152602001600020600201816040516103c5919061098b565b9081526040805160209281900383019020336000908152925290205460ff16806103f75750336001600160a01b038316145b6104435760405162461bcd60e51b815260206004820181905260248201527f4e6f7420617574686f72697a656420666f7220746869732061737365742049446044820152606401610123565b6000805b6001600160a01b0387166000908152602081905260409020600101548110156104df578580519060200120600080896001600160a01b03166001600160a01b0316815260200190815260200160002060010182815481106104aa576104aa6109a7565b906000526020600020016040516104c191906109bd565b6040518091039020036104d757600191506104df565b600101610447565b508061052d5760405162461bcd60e51b815260206004820152601760248201527f417373657420494420646f6573206e6f742065786973740000000000000000006044820152606401610123565b5092949350505050565b336000818152602081905260409020546001600160a01b03161461056d5760405162461bcd60e51b8152600401610123906107f8565b336000908152602081905260409081902090516001916002019061035190859061098b565b60005b838110156105ad578181015183820152602001610595565b50506000910152565b600081518084526105ce816020860160208601610592565b601f01601f19169290920160200192915050565b600060208083016020845280855180835260408601915060408160051b87010192506020870160005b8281101561063957603f198886030184526106278583516105b6565b9450928501929085019060010161060b565b5092979650505050505050565b634e487b7160e01b600052604160045260246000fd5b600082601f83011261066d57600080fd5b813567ffffffffffffffff8082111561068857610688610646565b604051601f8301601f19908116603f011681019082821181831017156106b0576106b0610646565b816040528381528660208588010111156106c957600080fd5b836020870160208301376000602085830101528094505050505092915050565b6000602082840312156106fb57600080fd5b813567ffffffffffffffff81111561071257600080fd5b61071e8482850161065c565b949350505050565b80356001600160a01b038116811461073d57600080fd5b919050565b6000806040838503121561075557600080fd5b823567ffffffffffffffff81111561076c57600080fd5b6107788582860161065c565b92505061078760208401610726565b90509250929050565b600080604083850312156107a357600080fd5b6107ac83610726565b9150602083013567ffffffffffffffff8111156107c857600080fd5b6107d48582860161065c565b9150509250929050565b6020815260006107f160208301846105b6565b9392505050565b60208082526028908201527f4f6e6c79207468652070617469656e742063616e20706572666f726d20746869604082015267399030b1ba34b7b760c11b606082015260800190565b600181811c9082168061085457607f821691505b60208210810361087457634e487b7160e01b600052602260045260246000fd5b50919050565b601f8211156108c6576000816000526020600020601f850160051c810160208610156108a35750805b601f850160051c820191505b818110156108c2578281556001016108af565b5050505b505050565b815167ffffffffffffffff8111156108e5576108e5610646565b6108f9816108f38454610840565b8461087a565b602080601f83116001811461092e57600084156109165750858301515b600019600386901b1c1916600185901b1785556108c2565b600085815260208120601f198616915b8281101561095d5788860151825594840194600190910190840161093e565b508582101561097b5787850151600019600388901b60f8161c191681555b5050505050600190811b01905550565b6000825161099d818460208701610592565b9190910192915050565b634e487b7160e01b600052603260045260246000fd5b60008083546109cb81610840565b600182811680156109e357600181146109f857610a27565b60ff1984168752821515830287019450610a27565b8760005260208060002060005b85811015610a1e5781548a820152908401908201610a05565b50505082870194505b5092969550505050505056fea26469706673582212208b17e2be76828bd49cfbf9d3506b4f526f03fc423f3ac5f81a8ac81b540c226964736f6c63430008170033",
  "linkReferences": {},
  "deployedLinkReferences": {}
}