{
  "_format": "hh-sol-artifact-1",
  "contractName": "AssetManagement",
  "sourceName": "contracts/AssetManagement.sol",
  "abi": [
    {
      "inputs": [
        {
          "internalType": "string",
          "name": "_id",
          "type": "string"
        }
      ],
      "name": "addMedicalAssetId",
      "outputs": [],
      "stateMutability": "nonpayable",
      "type": "function"
    },
    {
      "inputs": [
        {
          "internalType": "address",
          "name": "_entity",
          "type": "address"
        }
      ],
      "name": "grantAccess",
      "outputs": [],
      "stateMutability": "nonpayable",
      "type": "function"
    },
    {
      "inputs": [],
      "name": "registerPatient",
      "outputs": [],
      "stateMutability": "nonpayable",
      "type": "function"
    },
    {
      "inputs": [
        {
          "internalType": "address",
          "name": "_entity",
          "type": "address"
        }
      ],
      "name": "revokeAccess",
      "outputs": [],
      "stateMutability": "nonpayable",
      "type": "function"
    },
    {
      "inputs": [
        {
          "internalType": "address",
          "name": "_patient",
          "type": "address"
        }
      ],
      "name": "viewMedicalAssetIds",
      "outputs": [
        {
          "internalType": "string[]",
          "name": "",
          "type": "string[]"
        }
      ],
      "stateMutability": "view",
      "type": "function"
    }
  ],
  "bytecode": "0x608060405234801561001057600080fd5b50610742806100206000396000f3fe608060405234801561001057600080fd5b50600436106100575760003560e01c80630ae5e7391461005c57806331fd7d7d146100715780637d34f5bd1461009a578063822d3885146100ad57806385e68531146100b5575b600080fd5b61006f61006a3660046103f6565b6100c8565b005b61008461007f3660046103f6565b61013a565b6040516100919190610426565b60405180910390f35b61006f6100a83660046104ce565b6102a4565b61006f610308565b61006f6100c33660046103f6565b610390565b336000818152602081905260409020546001600160a01b0316146101075760405162461bcd60e51b81526004016100fe9061057f565b60405180910390fd5b336000908152602081815260408083206001600160a01b039490941683526002909301905220805460ff19166001179055565b6001600160a01b038116600090815260208181526040808320338452600201909152902054606090829060ff168061017a5750336001600160a01b038216145b6101b75760405162461bcd60e51b815260206004820152600e60248201526d139bdd08185d5d1a1bdc9a5e995960921b60448201526064016100fe565b6001600160a01b03831660009081526020818152604080832060010180548251818502810185019093528083529193909284015b8282101561029757838290600052602060002001805461020a906105c7565b80601f0160208091040260200160405190810160405280929190818152602001828054610236906105c7565b80156102835780601f1061025857610100808354040283529160200191610283565b820191906000526020600020905b81548152906001019060200180831161026657829003601f168201915b5050505050815260200190600101906101eb565b5050505091505b50919050565b336000818152602081905260409020546001600160a01b0316146102da5760405162461bcd60e51b81526004016100fe9061057f565b3360009081526020818152604082206001908101805491820181558352912001610304828261064c565b5050565b336000908152602081905260409020546001600160a01b03161561036e5760405162461bcd60e51b815260206004820152601a60248201527f50617469656e7420616c7265616479207265676973746572656400000000000060448201526064016100fe565b33600081815260208190526040902080546001600160a01b0319169091179055565b336000818152602081905260409020546001600160a01b0316146103c65760405162461bcd60e51b81526004016100fe9061057f565b336000908152602081815260408083206001600160a01b039490941683526002909301905220805460ff19169055565b60006020828403121561040857600080fd5b81356001600160a01b038116811461041f57600080fd5b9392505050565b6000602080830181845280855180835260408601915060408160051b87010192508387016000805b838110156104aa57888603603f1901855282518051808852835b81811015610483578281018a01518982018b01528901610468565b508781018901849052601f01601f191690960187019550938601939186019160010161044e565b509398975050505050505050565b634e487b7160e01b600052604160045260246000fd5b6000602082840312156104e057600080fd5b813567ffffffffffffffff808211156104f857600080fd5b818401915084601f83011261050c57600080fd5b81358181111561051e5761051e6104b8565b604051601f8201601f19908116603f01168101908382118183101715610546576105466104b8565b8160405282815287602084870101111561055f57600080fd5b826020860160208301376000928101602001929092525095945050505050565b60208082526028908201527f4f6e6c79207468652070617469656e742063616e20706572666f726d20746869604082015267399030b1ba34b7b760c11b606082015260800190565b600181811c908216806105db57607f821691505b60208210810361029e57634e487b7160e01b600052602260045260246000fd5b601f821115610647576000816000526020600020601f850160051c810160208610156106245750805b601f850160051c820191505b8181101561064357828155600101610630565b5050505b505050565b815167ffffffffffffffff811115610666576106666104b8565b61067a8161067484546105c7565b846105fb565b602080601f8311600181146106af57600084156106975750858301515b600019600386901b1c1916600185901b178555610643565b600085815260208120601f198616915b828110156106de578886015182559484019460019091019084016106bf565b50858210156106fc5787850151600019600388901b60f8161c191681555b5050505050600190811b0190555056fea26469706673582212206d22001f06dde644c4efbd23fa9bb0d41f4cd167d7262f16c35ddfb60d1ab00864736f6c63430008170033",
  "linkReferences": {},
  "deployedLinkReferences": {}
}