{
	"data": {
		"bytecode": {
			"linkReferences": {},
			"object": "608060405234801561000f575f80fd5b506113b68061001d5f395ff3fe608060405234801561000f575f80fd5b5060043610610029575f3560e01c806343cd76fc1461002d575b5f80fd5b610047600480360381019061004291906111af565b61005d565b6040516100549190611209565b60405180910390f35b5f80600267ffffffffffffffff81111561007a57610079610f52565b5b6040519080825280602002602001820160405280156100a85781602001602082028036833780820191505090505b5090505f5b60028110156100fa578381600281106100c9576100c8611222565b5b60200201518282815181106100e1576100e0611222565b5b60200260200101818152505080806001019150506100ad565b505f6101068286610120565b0361011557600191505061011a565b5f9150505b92915050565b5f807f30644e72e131a029b85045b68181585d2833e84879b9709143e1f593f000000190505f61014e6102a5565b905080608001515160018651610164919061127c565b1461016d575f80fd5b5f60405180604001604052805f81526020015f81525090505f5b865181101561021b57838782815181106101a4576101a3611222565b5b6020026020010151106101b5575f80fd5b61020c8261020785608001516001856101ce919061127c565b815181106101df576101de611222565b5b60200260200101518a85815181106101fa576101f9611222565b5b602002602001015161071f565b6107bc565b91508080600101915050610187565b506102448183608001515f8151811061023757610236611222565b5b60200260200101516107bc565b9050610288855f0151866020015161025b8461087e565b856040015161026d8a6040015161087e565b876060015161027e895f015161087e565b896020015161091c565b610298576001935050505061029f565b5f93505050505b92915050565b6102ad610e24565b60405180604001604052807f26bb205c498a22925f9eb016398053b04955739048d66015901f9b51d100487681526020017f060c7e0b412fc46bf989391baefecfbf7690a9c1fd008b3555bef3467833325b815250815f0181905250604051806040016040528060405180604001604052807f07455afd10e48d8adc94c6cb955f7a13056cbeabe270c60696cd586838f636d781526020017f160ae88dcd3c4fe37fde12f5d044e1fefb4310ec954b5d1d6c8ec23d5b3de0cf815250815260200160405180604001604052807f0c3e3f64aabf0b0ae49fc5b2385c0a5359528c960bd88ee56328ccf69911642581526020017f25aca19f499752f75387c0c6901d2ba83cc1dc78671797f5de5f8b5f3909e79c8152508152508160200181905250604051806040016040528060405180604001604052807f2ea0755cdafbcdf3618a816638cfbb3e8b9bc2b9d9fdbb567fd9c59d3d62b89c81526020017f2df3f0489ee7459dcd5b8782beb2364dea66e1ada8743c537b5a4ccc2a87490d815250815260200160405180604001604052807f241839646b28f60b6c5b8ed4b53ce041def39b7c6c8f355cdf22f60a8f7c8a9781526020017f1231f39bdf173426047abca3739c01b6d12ed0aea06569d092cbe4f9e875a52b8152508152508160400181905250604051806040016040528060405180604001604052807f2658ffb02a5761000a58fedefdff81229b1c9a65005391e9fcf97cb1dad76db081526020017f0e554ce08c1a2da9855359b951b92f09c10edf8bba7e7bef0c929e7e460e3d05815250815260200160405180604001604052807f236199e5293dae8270c322b940144d4c12994be1f86aff50869af957e54a877e81526020017f20efc074b3d67fa539ce9662bc4dc5714e95f61bb781ddc351f86cdf031437e38152508152508160600181905250600367ffffffffffffffff81111561057357610572610f52565b5b6040519080825280602002602001820160405280156105ac57816020015b610599610e6b565b8152602001906001900390816105915790505b50816080018190525060405180604001604052807f2449b06d27b48336767b5d8bc4d52ce228cc60ee92630a6c222ef9e503d7cea581526020017f1ca11db41c01dbcd955f04fbea589ac80c864c58ca5aa5285d6b2e330224575081525081608001515f8151811061062157610620611222565b5b602002602001018190525060405180604001604052807f17a9beae3e09c309278103e632111b91b6c9d640f951d3aeac03591da8ae40b581526020017f206e10fcb53fb98deea10f1d28f421df58f36c8e112377605ec75c6ae659ba16815250816080015160018151811061069957610698611222565b5b602002602001018190525060405180604001604052807f11314268e0c3005c6ca1091e87af9b5a4d47b502fd78438ce37ce21c695a150f81526020017f0990366392596fe4448bfac48faf76b4ef813f4af858627007105c6bc94cef7c815250816080015160028151811061071157610710611222565b5b602002602001018190525090565b610727610e6b565b61072f610e83565b835f0151815f6003811061074657610745611222565b5b60200201818152505083602001518160016003811061076857610767611222565b5b602002018181525050828160026003811061078657610785611222565b5b6020020181815250505f60608360808460076107d05a03fa9050805f81036107aa57fe5b50806107b4575f80fd5b505092915050565b6107c4610e6b565b6107cc610ea5565b835f0151815f600481106107e3576107e2611222565b5b60200201818152505083602001518160016004811061080557610804611222565b5b602002018181525050825f01518160026004811061082657610825611222565b5b60200201818152505082602001518160036004811061084857610847611222565b5b6020020181815250505f60608360c08460066107d05a03fa9050805f810361086c57fe5b5080610876575f80fd5b505092915050565b610886610e6b565b5f7f30644e72e131a029b85045b68181585d97816a916871ca8d3c208c16d87cfd4790505f835f01511480156108bf57505f8360200151145b156108e15760405180604001604052805f81526020015f815250915050610917565b6040518060400160405280845f0151815260200182856020015161090591906112dc565b83610910919061130c565b8152509150505b919050565b5f80600467ffffffffffffffff81111561093957610938610f52565b5b60405190808252806020026020018201604052801561097257816020015b61095f610e6b565b8152602001906001900390816109575790505b5090505f600467ffffffffffffffff81111561099157610990610f52565b5b6040519080825280602002602001820160405280156109ca57816020015b6109b7610ec7565b8152602001906001900390816109af5790505b5090508a825f815181106109e1576109e0611222565b5b60200260200101819052508882600181518110610a0157610a00611222565b5b60200260200101819052508682600281518110610a2157610a20611222565b5b60200260200101819052508482600381518110610a4157610a40611222565b5b602002602001018190525089815f81518110610a6057610a5f611222565b5b60200260200101819052508781600181518110610a8057610a7f611222565b5b60200260200101819052508581600281518110610aa057610a9f611222565b5b60200260200101819052508381600381518110610ac057610abf611222565b5b6020026020010181905250610ad58282610ae5565b9250505098975050505050505050565b5f8151835114610af3575f80fd5b5f835190505f600682610b06919061133f565b90505f8167ffffffffffffffff811115610b2357610b22610f52565b5b604051908082528060200260200182016040528015610b515781602001602082028036833780820191505090505b5090505f5b83811015610dc957868181518110610b7157610b70611222565b5b60200260200101515f0151825f600684610b8b919061133f565b610b95919061127c565b81518110610ba657610ba5611222565b5b602002602001018181525050868181518110610bc557610bc4611222565b5b602002602001015160200151826001600684610be1919061133f565b610beb919061127c565b81518110610bfc57610bfb611222565b5b602002602001018181525050858181518110610c1b57610c1a611222565b5b60200260200101515f0151600160028110610c3957610c38611222565b5b6020020151826002600684610c4e919061133f565b610c58919061127c565b81518110610c6957610c68611222565b5b602002602001018181525050858181518110610c8857610c87611222565b5b60200260200101515f01515f60028110610ca557610ca4611222565b5b6020020151826003600684610cba919061133f565b610cc4919061127c565b81518110610cd557610cd4611222565b5b602002602001018181525050858181518110610cf457610cf3611222565b5b602002602001015160200151600160028110610d1357610d12611222565b5b6020020151826004600684610d28919061133f565b610d32919061127c565b81518110610d4357610d42611222565b5b602002602001018181525050858181518110610d6257610d61611222565b5b6020026020010151602001515f60028110610d8057610d7f611222565b5b6020020151826005600684610d95919061133f565b610d9f919061127c565b81518110610db057610daf611222565b5b6020026020010181815250508080600101915050610b56565b50610dd2610eed565b5f602082602086026020860160086107d05a03fa9050805f8103610df257fe5b5080610dfc575f80fd5b5f825f60018110610e1057610e0f611222565b5b602002015114159550505050505092915050565b6040518060a00160405280610e37610e6b565b8152602001610e44610ec7565b8152602001610e51610ec7565b8152602001610e5e610ec7565b8152602001606081525090565b60405180604001604052805f81526020015f81525090565b6040518060600160405280600390602082028036833780820191505090505090565b6040518060800160405280600490602082028036833780820191505090505090565b6040518060400160405280610eda610f0f565b8152602001610ee7610f0f565b81525090565b6040518060200160405280600190602082028036833780820191505090505090565b6040518060400160405280600290602082028036833780820191505090505090565b5f604051905090565b5f80fd5b5f80fd5b5f601f19601f8301169050919050565b7f4e487b71000000000000000000000000000000000000000000000000000000005f52604160045260245ffd5b610f8882610f42565b810181811067ffffffffffffffff82111715610fa757610fa6610f52565b5b80604052505050565b5f610fb9610f31565b9050610fc58282610f7f565b919050565b5f819050919050565b610fdc81610fca565b8114610fe6575f80fd5b50565b5f81359050610ff781610fd3565b92915050565b5f6040828403121561101257611011610f3e565b5b61101c6040610fb0565b90505f61102b84828501610fe9565b5f83015250602061103e84828501610fe9565b60208301525092915050565b5f80fd5b5f67ffffffffffffffff82111561106857611067610f52565b5b602082029050919050565b5f80fd5b5f6110896110848461104e565b610fb0565b905080602084028301858111156110a3576110a2611073565b5b835b818110156110cc57806110b88882610fe9565b8452602084019350506020810190506110a5565b5050509392505050565b5f82601f8301126110ea576110e961104a565b5b60026110f7848285611077565b91505092915050565b5f6080828403121561111557611114610f3e565b5b61111f6040610fb0565b90505f61112e848285016110d6565b5f830152506040611141848285016110d6565b60208301525092915050565b5f610100828403121561116357611162610f3e565b5b61116d6060610fb0565b90505f61117c84828501610ffd565b5f83015250604061118f84828501611100565b60208301525060c06111a384828501610ffd565b60408301525092915050565b5f8061014083850312156111c6576111c5610f3a565b5b5f6111d38582860161114d565b9250506101006111e5858286016110d6565b9150509250929050565b5f8115159050919050565b611203816111ef565b82525050565b5f60208201905061121c5f8301846111fa565b92915050565b7f4e487b71000000000000000000000000000000000000000000000000000000005f52603260045260245ffd5b7f4e487b71000000000000000000000000000000000000000000000000000000005f52601160045260245ffd5b5f61128682610fca565b915061129183610fca565b92508282019050808211156112a9576112a861124f565b5b92915050565b7f4e487b71000000000000000000000000000000000000000000000000000000005f52601260045260245ffd5b5f6112e682610fca565b91506112f183610fca565b925082611301576113006112af565b5b828206905092915050565b5f61131682610fca565b915061132183610fca565b92508282039050818111156113395761133861124f565b5b92915050565b5f61134982610fca565b915061135483610fca565b925082820261136281610fca565b915082820484148315176113795761137861124f565b5b509291505056fea2646970667358221220b603454384ead1f5f67499e7e39c50612c13d7b32d2e816e97a716207937a90364736f6c63430008170033",
			"opcodes": "PUSH1 0x80 PUSH1 0x40 MSTORE CALLVALUE DUP1 ISZERO PUSH2 0xF JUMPI PUSH0 DUP1 REVERT JUMPDEST POP PUSH2 0x13B6 DUP1 PUSH2 0x1D PUSH0 CODECOPY PUSH0 RETURN INVALID PUSH1 0x80 PUSH1 0x40 MSTORE CALLVALUE DUP1 ISZERO PUSH2 0xF JUMPI PUSH0 DUP1 REVERT JUMPDEST POP PUSH1 0x4 CALLDATASIZE LT PUSH2 0x29 JUMPI PUSH0 CALLDATALOAD PUSH1 0xE0 SHR DUP1 PUSH4 0x43CD76FC EQ PUSH2 0x2D JUMPI JUMPDEST PUSH0 DUP1 REVERT JUMPDEST PUSH2 0x47 PUSH1 0x4 DUP1 CALLDATASIZE SUB DUP2 ADD SWAP1 PUSH2 0x42 SWAP2 SWAP1 PUSH2 0x11AF JUMP JUMPDEST PUSH2 0x5D JUMP JUMPDEST PUSH1 0x40 MLOAD PUSH2 0x54 SWAP2 SWAP1 PUSH2 0x1209 JUMP JUMPDEST PUSH1 0x40 MLOAD DUP1 SWAP2 SUB SWAP1 RETURN JUMPDEST PUSH0 DUP1 PUSH1 0x2 PUSH8 0xFFFFFFFFFFFFFFFF DUP2 GT ISZERO PUSH2 0x7A JUMPI PUSH2 0x79 PUSH2 0xF52 JUMP JUMPDEST JUMPDEST PUSH1 0x40 MLOAD SWAP1 DUP1 DUP3 MSTORE DUP1 PUSH1 0x20 MUL PUSH1 0x20 ADD DUP3 ADD PUSH1 0x40 MSTORE DUP1 ISZERO PUSH2 0xA8 JUMPI DUP2 PUSH1 0x20 ADD PUSH1 0x20 DUP3 MUL DUP1 CALLDATASIZE DUP4 CALLDATACOPY DUP1 DUP3 ADD SWAP2 POP POP SWAP1 POP JUMPDEST POP SWAP1 POP PUSH0 JUMPDEST PUSH1 0x2 DUP2 LT ISZERO PUSH2 0xFA JUMPI DUP4 DUP2 PUSH1 0x2 DUP2 LT PUSH2 0xC9 JUMPI PUSH2 0xC8 PUSH2 0x1222 JUMP JUMPDEST JUMPDEST PUSH1 0x20 MUL ADD MLOAD DUP3 DUP3 DUP2 MLOAD DUP2 LT PUSH2 0xE1 JUMPI PUSH2 0xE0 PUSH2 0x1222 JUMP JUMPDEST JUMPDEST PUSH1 0x20 MUL PUSH1 0x20 ADD ADD DUP2 DUP2 MSTORE POP POP DUP1 DUP1 PUSH1 0x1 ADD SWAP2 POP POP PUSH2 0xAD JUMP JUMPDEST POP PUSH0 PUSH2 0x106 DUP3 DUP7 PUSH2 0x120 JUMP JUMPDEST SUB PUSH2 0x115 JUMPI PUSH1 0x1 SWAP2 POP POP PUSH2 0x11A JUMP JUMPDEST PUSH0 SWAP2 POP POP JUMPDEST SWAP3 SWAP2 POP POP JUMP JUMPDEST PUSH0 DUP1 PUSH32 0x30644E72E131A029B85045B68181585D2833E84879B9709143E1F593F0000001 SWAP1 POP PUSH0 PUSH2 0x14E PUSH2 0x2A5 JUMP JUMPDEST SWAP1 POP DUP1 PUSH1 0x80 ADD MLOAD MLOAD PUSH1 0x1 DUP7 MLOAD PUSH2 0x164 SWAP2 SWAP1 PUSH2 0x127C JUMP JUMPDEST EQ PUSH2 0x16D JUMPI PUSH0 DUP1 REVERT JUMPDEST PUSH0 PUSH1 0x40 MLOAD DUP1 PUSH1 0x40 ADD PUSH1 0x40 MSTORE DUP1 PUSH0 DUP2 MSTORE PUSH1 0x20 ADD PUSH0 DUP2 MSTORE POP SWAP1 POP PUSH0 JUMPDEST DUP7 MLOAD DUP2 LT ISZERO PUSH2 0x21B JUMPI DUP4 DUP8 DUP3 DUP2 MLOAD DUP2 LT PUSH2 0x1A4 JUMPI PUSH2 0x1A3 PUSH2 0x1222 JUMP JUMPDEST JUMPDEST PUSH1 0x20 MUL PUSH1 0x20 ADD ADD MLOAD LT PUSH2 0x1B5 JUMPI PUSH0 DUP1 REVERT JUMPDEST PUSH2 0x20C DUP3 PUSH2 0x207 DUP6 PUSH1 0x80 ADD MLOAD PUSH1 0x1 DUP6 PUSH2 0x1CE SWAP2 SWAP1 PUSH2 0x127C JUMP JUMPDEST DUP2 MLOAD DUP2 LT PUSH2 0x1DF JUMPI PUSH2 0x1DE PUSH2 0x1222 JUMP JUMPDEST JUMPDEST PUSH1 0x20 MUL PUSH1 0x20 ADD ADD MLOAD DUP11 DUP6 DUP2 MLOAD DUP2 LT PUSH2 0x1FA JUMPI PUSH2 0x1F9 PUSH2 0x1222 JUMP JUMPDEST JUMPDEST PUSH1 0x20 MUL PUSH1 0x20 ADD ADD MLOAD PUSH2 0x71F JUMP JUMPDEST PUSH2 0x7BC JUMP JUMPDEST SWAP2 POP DUP1 DUP1 PUSH1 0x1 ADD SWAP2 POP POP PUSH2 0x187 JUMP JUMPDEST POP PUSH2 0x244 DUP2 DUP4 PUSH1 0x80 ADD MLOAD PUSH0 DUP2 MLOAD DUP2 LT PUSH2 0x237 JUMPI PUSH2 0x236 PUSH2 0x1222 JUMP JUMPDEST JUMPDEST PUSH1 0x20 MUL PUSH1 0x20 ADD ADD MLOAD PUSH2 0x7BC JUMP JUMPDEST SWAP1 POP PUSH2 0x288 DUP6 PUSH0 ADD MLOAD DUP7 PUSH1 0x20 ADD MLOAD PUSH2 0x25B DUP5 PUSH2 0x87E JUMP JUMPDEST DUP6 PUSH1 0x40 ADD MLOAD PUSH2 0x26D DUP11 PUSH1 0x40 ADD MLOAD PUSH2 0x87E JUMP JUMPDEST DUP8 PUSH1 0x60 ADD MLOAD PUSH2 0x27E DUP10 PUSH0 ADD MLOAD PUSH2 0x87E JUMP JUMPDEST DUP10 PUSH1 0x20 ADD MLOAD PUSH2 0x91C JUMP JUMPDEST PUSH2 0x298 JUMPI PUSH1 0x1 SWAP4 POP POP POP POP PUSH2 0x29F JUMP JUMPDEST PUSH0 SWAP4 POP POP POP POP JUMPDEST SWAP3 SWAP2 POP POP JUMP JUMPDEST PUSH2 0x2AD PUSH2 0xE24 JUMP JUMPDEST PUSH1 0x40 MLOAD DUP1 PUSH1 0x40 ADD PUSH1 0x40 MSTORE DUP1 PUSH32 0x26BB205C498A22925F9EB016398053B04955739048D66015901F9B51D1004876 DUP2 MSTORE PUSH1 0x20 ADD PUSH32 0x60C7E0B412FC46BF989391BAEFECFBF7690A9C1FD008B3555BEF3467833325B DUP2 MSTORE POP DUP2 PUSH0 ADD DUP2 SWAP1 MSTORE POP PUSH1 0x40 MLOAD DUP1 PUSH1 0x40 ADD PUSH1 0x40 MSTORE DUP1 PUSH1 0x40 MLOAD DUP1 PUSH1 0x40 ADD PUSH1 0x40 MSTORE DUP1 PUSH32 0x7455AFD10E48D8ADC94C6CB955F7A13056CBEABE270C60696CD586838F636D7 DUP2 MSTORE PUSH1 0x20 ADD PUSH32 0x160AE88DCD3C4FE37FDE12F5D044E1FEFB4310EC954B5D1D6C8EC23D5B3DE0CF DUP2 MSTORE POP DUP2 MSTORE PUSH1 0x20 ADD PUSH1 0x40 MLOAD DUP1 PUSH1 0x40 ADD PUSH1 0x40 MSTORE DUP1 PUSH32 0xC3E3F64AABF0B0AE49FC5B2385C0A5359528C960BD88EE56328CCF699116425 DUP2 MSTORE PUSH1 0x20 ADD PUSH32 0x25ACA19F499752F75387C0C6901D2BA83CC1DC78671797F5DE5F8B5F3909E79C DUP2 MSTORE POP DUP2 MSTORE POP DUP2 PUSH1 0x20 ADD DUP2 SWAP1 MSTORE POP PUSH1 0x40 MLOAD DUP1 PUSH1 0x40 ADD PUSH1 0x40 MSTORE DUP1 PUSH1 0x40 MLOAD DUP1 PUSH1 0x40 ADD PUSH1 0x40 MSTORE DUP1 PUSH32 0x2EA0755CDAFBCDF3618A816638CFBB3E8B9BC2B9D9FDBB567FD9C59D3D62B89C DUP2 MSTORE PUSH1 0x20 ADD PUSH32 0x2DF3F0489EE7459DCD5B8782BEB2364DEA66E1ADA8743C537B5A4CCC2A87490D DUP2 MSTORE POP DUP2 MSTORE PUSH1 0x20 ADD PUSH1 0x40 MLOAD DUP1 PUSH1 0x40 ADD PUSH1 0x40 MSTORE DUP1 PUSH32 0x241839646B28F60B6C5B8ED4B53CE041DEF39B7C6C8F355CDF22F60A8F7C8A97 DUP2 MSTORE PUSH1 0x20 ADD PUSH32 0x1231F39BDF173426047ABCA3739C01B6D12ED0AEA06569D092CBE4F9E875A52B DUP2 MSTORE POP DUP2 MSTORE POP DUP2 PUSH1 0x40 ADD DUP2 SWAP1 MSTORE POP PUSH1 0x40 MLOAD DUP1 PUSH1 0x40 ADD PUSH1 0x40 MSTORE DUP1 PUSH1 0x40 MLOAD DUP1 PUSH1 0x40 ADD PUSH1 0x40 MSTORE DUP1 PUSH32 0x2658FFB02A5761000A58FEDEFDFF81229B1C9A65005391E9FCF97CB1DAD76DB0 DUP2 MSTORE PUSH1 0x20 ADD PUSH32 0xE554CE08C1A2DA9855359B951B92F09C10EDF8BBA7E7BEF0C929E7E460E3D05 DUP2 MSTORE POP DUP2 MSTORE PUSH1 0x20 ADD PUSH1 0x40 MLOAD DUP1 PUSH1 0x40 ADD PUSH1 0x40 MSTORE DUP1 PUSH32 0x236199E5293DAE8270C322B940144D4C12994BE1F86AFF50869AF957E54A877E DUP2 MSTORE PUSH1 0x20 ADD PUSH32 0x20EFC074B3D67FA539CE9662BC4DC5714E95F61BB781DDC351F86CDF031437E3 DUP2 MSTORE POP DUP2 MSTORE POP DUP2 PUSH1 0x60 ADD DUP2 SWAP1 MSTORE POP PUSH1 0x3 PUSH8 0xFFFFFFFFFFFFFFFF DUP2 GT ISZERO PUSH2 0x573 JUMPI PUSH2 0x572 PUSH2 0xF52 JUMP JUMPDEST JUMPDEST PUSH1 0x40 MLOAD SWAP1 DUP1 DUP3 MSTORE DUP1 PUSH1 0x20 MUL PUSH1 0x20 ADD DUP3 ADD PUSH1 0x40 MSTORE DUP1 ISZERO PUSH2 0x5AC JUMPI DUP2 PUSH1 0x20 ADD JUMPDEST PUSH2 0x599 PUSH2 0xE6B JUMP JUMPDEST DUP2 MSTORE PUSH1 0x20 ADD SWAP1 PUSH1 0x1 SWAP1 SUB SWAP1 DUP2 PUSH2 0x591 JUMPI SWAP1 POP JUMPDEST POP DUP2 PUSH1 0x80 ADD DUP2 SWAP1 MSTORE POP PUSH1 0x40 MLOAD DUP1 PUSH1 0x40 ADD PUSH1 0x40 MSTORE DUP1 PUSH32 0x2449B06D27B48336767B5D8BC4D52CE228CC60EE92630A6C222EF9E503D7CEA5 DUP2 MSTORE PUSH1 0x20 ADD PUSH32 0x1CA11DB41C01DBCD955F04FBEA589AC80C864C58CA5AA5285D6B2E3302245750 DUP2 MSTORE POP DUP2 PUSH1 0x80 ADD MLOAD PUSH0 DUP2 MLOAD DUP2 LT PUSH2 0x621 JUMPI PUSH2 0x620 PUSH2 0x1222 JUMP JUMPDEST JUMPDEST PUSH1 0x20 MUL PUSH1 0x20 ADD ADD DUP2 SWAP1 MSTORE POP PUSH1 0x40 MLOAD DUP1 PUSH1 0x40 ADD PUSH1 0x40 MSTORE DUP1 PUSH32 0x17A9BEAE3E09C309278103E632111B91B6C9D640F951D3AEAC03591DA8AE40B5 DUP2 MSTORE PUSH1 0x20 ADD PUSH32 0x206E10FCB53FB98DEEA10F1D28F421DF58F36C8E112377605EC75C6AE659BA16 DUP2 MSTORE POP DUP2 PUSH1 0x80 ADD MLOAD PUSH1 0x1 DUP2 MLOAD DUP2 LT PUSH2 0x699 JUMPI PUSH2 0x698 PUSH2 0x1222 JUMP JUMPDEST JUMPDEST PUSH1 0x20 MUL PUSH1 0x20 ADD ADD DUP2 SWAP1 MSTORE POP PUSH1 0x40 MLOAD DUP1 PUSH1 0x40 ADD PUSH1 0x40 MSTORE DUP1 PUSH32 0x11314268E0C3005C6CA1091E87AF9B5A4D47B502FD78438CE37CE21C695A150F DUP2 MSTORE PUSH1 0x20 ADD PUSH32 0x990366392596FE4448BFAC48FAF76B4EF813F4AF858627007105C6BC94CEF7C DUP2 MSTORE POP DUP2 PUSH1 0x80 ADD MLOAD PUSH1 0x2 DUP2 MLOAD DUP2 LT PUSH2 0x711 JUMPI PUSH2 0x710 PUSH2 0x1222 JUMP JUMPDEST JUMPDEST PUSH1 0x20 MUL PUSH1 0x20 ADD ADD DUP2 SWAP1 MSTORE POP SWAP1 JUMP JUMPDEST PUSH2 0x727 PUSH2 0xE6B JUMP JUMPDEST PUSH2 0x72F PUSH2 0xE83 JUMP JUMPDEST DUP4 PUSH0 ADD MLOAD DUP2 PUSH0 PUSH1 0x3 DUP2 LT PUSH2 0x746 JUMPI PUSH2 0x745 PUSH2 0x1222 JUMP JUMPDEST JUMPDEST PUSH1 0x20 MUL ADD DUP2 DUP2 MSTORE POP POP DUP4 PUSH1 0x20 ADD MLOAD DUP2 PUSH1 0x1 PUSH1 0x3 DUP2 LT PUSH2 0x768 JUMPI PUSH2 0x767 PUSH2 0x1222 JUMP JUMPDEST JUMPDEST PUSH1 0x20 MUL ADD DUP2 DUP2 MSTORE POP POP DUP3 DUP2 PUSH1 0x2 PUSH1 0x3 DUP2 LT PUSH2 0x786 JUMPI PUSH2 0x785 PUSH2 0x1222 JUMP JUMPDEST JUMPDEST PUSH1 0x20 MUL ADD DUP2 DUP2 MSTORE POP POP PUSH0 PUSH1 0x60 DUP4 PUSH1 0x80 DUP5 PUSH1 0x7 PUSH2 0x7D0 GAS SUB STATICCALL SWAP1 POP DUP1 PUSH0 DUP2 SUB PUSH2 0x7AA JUMPI INVALID JUMPDEST POP DUP1 PUSH2 0x7B4 JUMPI PUSH0 DUP1 REVERT JUMPDEST POP POP SWAP3 SWAP2 POP POP JUMP JUMPDEST PUSH2 0x7C4 PUSH2 0xE6B JUMP JUMPDEST PUSH2 0x7CC PUSH2 0xEA5 JUMP JUMPDEST DUP4 PUSH0 ADD MLOAD DUP2 PUSH0 PUSH1 0x4 DUP2 LT PUSH2 0x7E3 JUMPI PUSH2 0x7E2 PUSH2 0x1222 JUMP JUMPDEST JUMPDEST PUSH1 0x20 MUL ADD DUP2 DUP2 MSTORE POP POP DUP4 PUSH1 0x20 ADD MLOAD DUP2 PUSH1 0x1 PUSH1 0x4 DUP2 LT PUSH2 0x805 JUMPI PUSH2 0x804 PUSH2 0x1222 JUMP JUMPDEST JUMPDEST PUSH1 0x20 MUL ADD DUP2 DUP2 MSTORE POP POP DUP3 PUSH0 ADD MLOAD DUP2 PUSH1 0x2 PUSH1 0x4 DUP2 LT PUSH2 0x826 JUMPI PUSH2 0x825 PUSH2 0x1222 JUMP JUMPDEST JUMPDEST PUSH1 0x20 MUL ADD DUP2 DUP2 MSTORE POP POP DUP3 PUSH1 0x20 ADD MLOAD DUP2 PUSH1 0x3 PUSH1 0x4 DUP2 LT PUSH2 0x848 JUMPI PUSH2 0x847 PUSH2 0x1222 JUMP JUMPDEST JUMPDEST PUSH1 0x20 MUL ADD DUP2 DUP2 MSTORE POP POP PUSH0 PUSH1 0x60 DUP4 PUSH1 0xC0 DUP5 PUSH1 0x6 PUSH2 0x7D0 GAS SUB STATICCALL SWAP1 POP DUP1 PUSH0 DUP2 SUB PUSH2 0x86C JUMPI INVALID JUMPDEST POP DUP1 PUSH2 0x876 JUMPI PUSH0 DUP1 REVERT JUMPDEST POP POP SWAP3 SWAP2 POP POP JUMP JUMPDEST PUSH2 0x886 PUSH2 0xE6B JUMP JUMPDEST PUSH0 PUSH32 0x30644E72E131A029B85045B68181585D97816A916871CA8D3C208C16D87CFD47 SWAP1 POP PUSH0 DUP4 PUSH0 ADD MLOAD EQ DUP1 ISZERO PUSH2 0x8BF JUMPI POP PUSH0 DUP4 PUSH1 0x20 ADD MLOAD EQ JUMPDEST ISZERO PUSH2 0x8E1 JUMPI PUSH1 0x40 MLOAD DUP1 PUSH1 0x40 ADD PUSH1 0x40 MSTORE DUP1 PUSH0 DUP2 MSTORE PUSH1 0x20 ADD PUSH0 DUP2 MSTORE POP SWAP2 POP POP PUSH2 0x917 JUMP JUMPDEST PUSH1 0x40 MLOAD DUP1 PUSH1 0x40 ADD PUSH1 0x40 MSTORE DUP1 DUP5 PUSH0 ADD MLOAD DUP2 MSTORE PUSH1 0x20 ADD DUP3 DUP6 PUSH1 0x20 ADD MLOAD PUSH2 0x905 SWAP2 SWAP1 PUSH2 0x12DC JUMP JUMPDEST DUP4 PUSH2 0x910 SWAP2 SWAP1 PUSH2 0x130C JUMP JUMPDEST DUP2 MSTORE POP SWAP2 POP POP JUMPDEST SWAP2 SWAP1 POP JUMP JUMPDEST PUSH0 DUP1 PUSH1 0x4 PUSH8 0xFFFFFFFFFFFFFFFF DUP2 GT ISZERO PUSH2 0x939 JUMPI PUSH2 0x938 PUSH2 0xF52 JUMP JUMPDEST JUMPDEST PUSH1 0x40 MLOAD SWAP1 DUP1 DUP3 MSTORE DUP1 PUSH1 0x20 MUL PUSH1 0x20 ADD DUP3 ADD PUSH1 0x40 MSTORE DUP1 ISZERO PUSH2 0x972 JUMPI DUP2 PUSH1 0x20 ADD JUMPDEST PUSH2 0x95F PUSH2 0xE6B JUMP JUMPDEST DUP2 MSTORE PUSH1 0x20 ADD SWAP1 PUSH1 0x1 SWAP1 SUB SWAP1 DUP2 PUSH2 0x957 JUMPI SWAP1 POP JUMPDEST POP SWAP1 POP PUSH0 PUSH1 0x4 PUSH8 0xFFFFFFFFFFFFFFFF DUP2 GT ISZERO PUSH2 0x991 JUMPI PUSH2 0x990 PUSH2 0xF52 JUMP JUMPDEST JUMPDEST PUSH1 0x40 MLOAD SWAP1 DUP1 DUP3 MSTORE DUP1 PUSH1 0x20 MUL PUSH1 0x20 ADD DUP3 ADD PUSH1 0x40 MSTORE DUP1 ISZERO PUSH2 0x9CA JUMPI DUP2 PUSH1 0x20 ADD JUMPDEST PUSH2 0x9B7 PUSH2 0xEC7 JUMP JUMPDEST DUP2 MSTORE PUSH1 0x20 ADD SWAP1 PUSH1 0x1 SWAP1 SUB SWAP1 DUP2 PUSH2 0x9AF JUMPI SWAP1 POP JUMPDEST POP SWAP1 POP DUP11 DUP3 PUSH0 DUP2 MLOAD DUP2 LT PUSH2 0x9E1 JUMPI PUSH2 0x9E0 PUSH2 0x1222 JUMP JUMPDEST JUMPDEST PUSH1 0x20 MUL PUSH1 0x20 ADD ADD DUP2 SWAP1 MSTORE POP DUP9 DUP3 PUSH1 0x1 DUP2 MLOAD DUP2 LT PUSH2 0xA01 JUMPI PUSH2 0xA00 PUSH2 0x1222 JUMP JUMPDEST JUMPDEST PUSH1 0x20 MUL PUSH1 0x20 ADD ADD DUP2 SWAP1 MSTORE POP DUP7 DUP3 PUSH1 0x2 DUP2 MLOAD DUP2 LT PUSH2 0xA21 JUMPI PUSH2 0xA20 PUSH2 0x1222 JUMP JUMPDEST JUMPDEST PUSH1 0x20 MUL PUSH1 0x20 ADD ADD DUP2 SWAP1 MSTORE POP DUP5 DUP3 PUSH1 0x3 DUP2 MLOAD DUP2 LT PUSH2 0xA41 JUMPI PUSH2 0xA40 PUSH2 0x1222 JUMP JUMPDEST JUMPDEST PUSH1 0x20 MUL PUSH1 0x20 ADD ADD DUP2 SWAP1 MSTORE POP DUP10 DUP2 PUSH0 DUP2 MLOAD DUP2 LT PUSH2 0xA60 JUMPI PUSH2 0xA5F PUSH2 0x1222 JUMP JUMPDEST JUMPDEST PUSH1 0x20 MUL PUSH1 0x20 ADD ADD DUP2 SWAP1 MSTORE POP DUP8 DUP2 PUSH1 0x1 DUP2 MLOAD DUP2 LT PUSH2 0xA80 JUMPI PUSH2 0xA7F PUSH2 0x1222 JUMP JUMPDEST JUMPDEST PUSH1 0x20 MUL PUSH1 0x20 ADD ADD DUP2 SWAP1 MSTORE POP DUP6 DUP2 PUSH1 0x2 DUP2 MLOAD DUP2 LT PUSH2 0xAA0 JUMPI PUSH2 0xA9F PUSH2 0x1222 JUMP JUMPDEST JUMPDEST PUSH1 0x20 MUL PUSH1 0x20 ADD ADD DUP2 SWAP1 MSTORE POP DUP4 DUP2 PUSH1 0x3 DUP2 MLOAD DUP2 LT PUSH2 0xAC0 JUMPI PUSH2 0xABF PUSH2 0x1222 JUMP JUMPDEST JUMPDEST PUSH1 0x20 MUL PUSH1 0x20 ADD ADD DUP2 SWAP1 MSTORE POP PUSH2 0xAD5 DUP3 DUP3 PUSH2 0xAE5 JUMP JUMPDEST SWAP3 POP POP POP SWAP9 SWAP8 POP POP POP POP POP POP POP POP JUMP JUMPDEST PUSH0 DUP2 MLOAD DUP4 MLOAD EQ PUSH2 0xAF3 JUMPI PUSH0 DUP1 REVERT JUMPDEST PUSH0 DUP4 MLOAD SWAP1 POP PUSH0 PUSH1 0x6 DUP3 PUSH2 0xB06 SWAP2 SWAP1 PUSH2 0x133F JUMP JUMPDEST SWAP1 POP PUSH0 DUP2 PUSH8 0xFFFFFFFFFFFFFFFF DUP2 GT ISZERO PUSH2 0xB23 JUMPI PUSH2 0xB22 PUSH2 0xF52 JUMP JUMPDEST JUMPDEST PUSH1 0x40 MLOAD SWAP1 DUP1 DUP3 MSTORE DUP1 PUSH1 0x20 MUL PUSH1 0x20 ADD DUP3 ADD PUSH1 0x40 MSTORE DUP1 ISZERO PUSH2 0xB51 JUMPI DUP2 PUSH1 0x20 ADD PUSH1 0x20 DUP3 MUL DUP1 CALLDATASIZE DUP4 CALLDATACOPY DUP1 DUP3 ADD SWAP2 POP POP SWAP1 POP JUMPDEST POP SWAP1 POP PUSH0 JUMPDEST DUP4 DUP2 LT ISZERO PUSH2 0xDC9 JUMPI DUP7 DUP2 DUP2 MLOAD DUP2 LT PUSH2 0xB71 JUMPI PUSH2 0xB70 PUSH2 0x1222 JUMP JUMPDEST JUMPDEST PUSH1 0x20 MUL PUSH1 0x20 ADD ADD MLOAD PUSH0 ADD MLOAD DUP3 PUSH0 PUSH1 0x6 DUP5 PUSH2 0xB8B SWAP2 SWAP1 PUSH2 0x133F JUMP JUMPDEST PUSH2 0xB95 SWAP2 SWAP1 PUSH2 0x127C JUMP JUMPDEST DUP2 MLOAD DUP2 LT PUSH2 0xBA6 JUMPI PUSH2 0xBA5 PUSH2 0x1222 JUMP JUMPDEST JUMPDEST PUSH1 0x20 MUL PUSH1 0x20 ADD ADD DUP2 DUP2 MSTORE POP POP DUP7 DUP2 DUP2 MLOAD DUP2 LT PUSH2 0xBC5 JUMPI PUSH2 0xBC4 PUSH2 0x1222 JUMP JUMPDEST JUMPDEST PUSH1 0x20 MUL PUSH1 0x20 ADD ADD MLOAD PUSH1 0x20 ADD MLOAD DUP3 PUSH1 0x1 PUSH1 0x6 DUP5 PUSH2 0xBE1 SWAP2 SWAP1 PUSH2 0x133F JUMP JUMPDEST PUSH2 0xBEB SWAP2 SWAP1 PUSH2 0x127C JUMP JUMPDEST DUP2 MLOAD DUP2 LT PUSH2 0xBFC JUMPI PUSH2 0xBFB PUSH2 0x1222 JUMP JUMPDEST JUMPDEST PUSH1 0x20 MUL PUSH1 0x20 ADD ADD DUP2 DUP2 MSTORE POP POP DUP6 DUP2 DUP2 MLOAD DUP2 LT PUSH2 0xC1B JUMPI PUSH2 0xC1A PUSH2 0x1222 JUMP JUMPDEST JUMPDEST PUSH1 0x20 MUL PUSH1 0x20 ADD ADD MLOAD PUSH0 ADD MLOAD PUSH1 0x1 PUSH1 0x2 DUP2 LT PUSH2 0xC39 JUMPI PUSH2 0xC38 PUSH2 0x1222 JUMP JUMPDEST JUMPDEST PUSH1 0x20 MUL ADD MLOAD DUP3 PUSH1 0x2 PUSH1 0x6 DUP5 PUSH2 0xC4E SWAP2 SWAP1 PUSH2 0x133F JUMP JUMPDEST PUSH2 0xC58 SWAP2 SWAP1 PUSH2 0x127C JUMP JUMPDEST DUP2 MLOAD DUP2 LT PUSH2 0xC69 JUMPI PUSH2 0xC68 PUSH2 0x1222 JUMP JUMPDEST JUMPDEST PUSH1 0x20 MUL PUSH1 0x20 ADD ADD DUP2 DUP2 MSTORE POP POP DUP6 DUP2 DUP2 MLOAD DUP2 LT PUSH2 0xC88 JUMPI PUSH2 0xC87 PUSH2 0x1222 JUMP JUMPDEST JUMPDEST PUSH1 0x20 MUL PUSH1 0x20 ADD ADD MLOAD PUSH0 ADD MLOAD PUSH0 PUSH1 0x2 DUP2 LT PUSH2 0xCA5 JUMPI PUSH2 0xCA4 PUSH2 0x1222 JUMP JUMPDEST JUMPDEST PUSH1 0x20 MUL ADD MLOAD DUP3 PUSH1 0x3 PUSH1 0x6 DUP5 PUSH2 0xCBA SWAP2 SWAP1 PUSH2 0x133F JUMP JUMPDEST PUSH2 0xCC4 SWAP2 SWAP1 PUSH2 0x127C JUMP JUMPDEST DUP2 MLOAD DUP2 LT PUSH2 0xCD5 JUMPI PUSH2 0xCD4 PUSH2 0x1222 JUMP JUMPDEST JUMPDEST PUSH1 0x20 MUL PUSH1 0x20 ADD ADD DUP2 DUP2 MSTORE POP POP DUP6 DUP2 DUP2 MLOAD DUP2 LT PUSH2 0xCF4 JUMPI PUSH2 0xCF3 PUSH2 0x1222 JUMP JUMPDEST JUMPDEST PUSH1 0x20 MUL PUSH1 0x20 ADD ADD MLOAD PUSH1 0x20 ADD MLOAD PUSH1 0x1 PUSH1 0x2 DUP2 LT PUSH2 0xD13 JUMPI PUSH2 0xD12 PUSH2 0x1222 JUMP JUMPDEST JUMPDEST PUSH1 0x20 MUL ADD MLOAD DUP3 PUSH1 0x4 PUSH1 0x6 DUP5 PUSH2 0xD28 SWAP2 SWAP1 PUSH2 0x133F JUMP JUMPDEST PUSH2 0xD32 SWAP2 SWAP1 PUSH2 0x127C JUMP JUMPDEST DUP2 MLOAD DUP2 LT PUSH2 0xD43 JUMPI PUSH2 0xD42 PUSH2 0x1222 JUMP JUMPDEST JUMPDEST PUSH1 0x20 MUL PUSH1 0x20 ADD ADD DUP2 DUP2 MSTORE POP POP DUP6 DUP2 DUP2 MLOAD DUP2 LT PUSH2 0xD62 JUMPI PUSH2 0xD61 PUSH2 0x1222 JUMP JUMPDEST JUMPDEST PUSH1 0x20 MUL PUSH1 0x20 ADD ADD MLOAD PUSH1 0x20 ADD MLOAD PUSH0 PUSH1 0x2 DUP2 LT PUSH2 0xD80 JUMPI PUSH2 0xD7F PUSH2 0x1222 JUMP JUMPDEST JUMPDEST PUSH1 0x20 MUL ADD MLOAD DUP3 PUSH1 0x5 PUSH1 0x6 DUP5 PUSH2 0xD95 SWAP2 SWAP1 PUSH2 0x133F JUMP JUMPDEST PUSH2 0xD9F SWAP2 SWAP1 PUSH2 0x127C JUMP JUMPDEST DUP2 MLOAD DUP2 LT PUSH2 0xDB0 JUMPI PUSH2 0xDAF PUSH2 0x1222 JUMP JUMPDEST JUMPDEST PUSH1 0x20 MUL PUSH1 0x20 ADD ADD DUP2 DUP2 MSTORE POP POP DUP1 DUP1 PUSH1 0x1 ADD SWAP2 POP POP PUSH2 0xB56 JUMP JUMPDEST POP PUSH2 0xDD2 PUSH2 0xEED JUMP JUMPDEST PUSH0 PUSH1 0x20 DUP3 PUSH1 0x20 DUP7 MUL PUSH1 0x20 DUP7 ADD PUSH1 0x8 PUSH2 0x7D0 GAS SUB STATICCALL SWAP1 POP DUP1 PUSH0 DUP2 SUB PUSH2 0xDF2 JUMPI INVALID JUMPDEST POP DUP1 PUSH2 0xDFC JUMPI PUSH0 DUP1 REVERT JUMPDEST PUSH0 DUP3 PUSH0 PUSH1 0x1 DUP2 LT PUSH2 0xE10 JUMPI PUSH2 0xE0F PUSH2 0x1222 JUMP JUMPDEST JUMPDEST PUSH1 0x20 MUL ADD MLOAD EQ ISZERO SWAP6 POP POP POP POP POP POP SWAP3 SWAP2 POP POP JUMP JUMPDEST PUSH1 0x40 MLOAD DUP1 PUSH1 0xA0 ADD PUSH1 0x40 MSTORE DUP1 PUSH2 0xE37 PUSH2 0xE6B JUMP JUMPDEST DUP2 MSTORE PUSH1 0x20 ADD PUSH2 0xE44 PUSH2 0xEC7 JUMP JUMPDEST DUP2 MSTORE PUSH1 0x20 ADD PUSH2 0xE51 PUSH2 0xEC7 JUMP JUMPDEST DUP2 MSTORE PUSH1 0x20 ADD PUSH2 0xE5E PUSH2 0xEC7 JUMP JUMPDEST DUP2 MSTORE PUSH1 0x20 ADD PUSH1 0x60 DUP2 MSTORE POP SWAP1 JUMP JUMPDEST PUSH1 0x40 MLOAD DUP1 PUSH1 0x40 ADD PUSH1 0x40 MSTORE DUP1 PUSH0 DUP2 MSTORE PUSH1 0x20 ADD PUSH0 DUP2 MSTORE POP SWAP1 JUMP JUMPDEST PUSH1 0x40 MLOAD DUP1 PUSH1 0x60 ADD PUSH1 0x40 MSTORE DUP1 PUSH1 0x3 SWAP1 PUSH1 0x20 DUP3 MUL DUP1 CALLDATASIZE DUP4 CALLDATACOPY DUP1 DUP3 ADD SWAP2 POP POP SWAP1 POP POP SWAP1 JUMP JUMPDEST PUSH1 0x40 MLOAD DUP1 PUSH1 0x80 ADD PUSH1 0x40 MSTORE DUP1 PUSH1 0x4 SWAP1 PUSH1 0x20 DUP3 MUL DUP1 CALLDATASIZE DUP4 CALLDATACOPY DUP1 DUP3 ADD SWAP2 POP POP SWAP1 POP POP SWAP1 JUMP JUMPDEST PUSH1 0x40 MLOAD DUP1 PUSH1 0x40 ADD PUSH1 0x40 MSTORE DUP1 PUSH2 0xEDA PUSH2 0xF0F JUMP JUMPDEST DUP2 MSTORE PUSH1 0x20 ADD PUSH2 0xEE7 PUSH2 0xF0F JUMP JUMPDEST DUP2 MSTORE POP SWAP1 JUMP JUMPDEST PUSH1 0x40 MLOAD DUP1 PUSH1 0x20 ADD PUSH1 0x40 MSTORE DUP1 PUSH1 0x1 SWAP1 PUSH1 0x20 DUP3 MUL DUP1 CALLDATASIZE DUP4 CALLDATACOPY DUP1 DUP3 ADD SWAP2 POP POP SWAP1 POP POP SWAP1 JUMP JUMPDEST PUSH1 0x40 MLOAD DUP1 PUSH1 0x40 ADD PUSH1 0x40 MSTORE DUP1 PUSH1 0x2 SWAP1 PUSH1 0x20 DUP3 MUL DUP1 CALLDATASIZE DUP4 CALLDATACOPY DUP1 DUP3 ADD SWAP2 POP POP SWAP1 POP POP SWAP1 JUMP JUMPDEST PUSH0 PUSH1 0x40 MLOAD SWAP1 POP SWAP1 JUMP JUMPDEST PUSH0 DUP1 REVERT JUMPDEST PUSH0 DUP1 REVERT JUMPDEST PUSH0 PUSH1 0x1F NOT PUSH1 0x1F DUP4 ADD AND SWAP1 POP SWAP2 SWAP1 POP JUMP JUMPDEST PUSH32 0x4E487B7100000000000000000000000000000000000000000000000000000000 PUSH0 MSTORE PUSH1 0x41 PUSH1 0x4 MSTORE PUSH1 0x24 PUSH0 REVERT JUMPDEST PUSH2 0xF88 DUP3 PUSH2 0xF42 JUMP JUMPDEST DUP2 ADD DUP2 DUP2 LT PUSH8 0xFFFFFFFFFFFFFFFF DUP3 GT OR ISZERO PUSH2 0xFA7 JUMPI PUSH2 0xFA6 PUSH2 0xF52 JUMP JUMPDEST JUMPDEST DUP1 PUSH1 0x40 MSTORE POP POP POP JUMP JUMPDEST PUSH0 PUSH2 0xFB9 PUSH2 0xF31 JUMP JUMPDEST SWAP1 POP PUSH2 0xFC5 DUP3 DUP3 PUSH2 0xF7F JUMP JUMPDEST SWAP2 SWAP1 POP JUMP JUMPDEST PUSH0 DUP2 SWAP1 POP SWAP2 SWAP1 POP JUMP JUMPDEST PUSH2 0xFDC DUP2 PUSH2 0xFCA JUMP JUMPDEST DUP2 EQ PUSH2 0xFE6 JUMPI PUSH0 DUP1 REVERT JUMPDEST POP JUMP JUMPDEST PUSH0 DUP2 CALLDATALOAD SWAP1 POP PUSH2 0xFF7 DUP2 PUSH2 0xFD3 JUMP JUMPDEST SWAP3 SWAP2 POP POP JUMP JUMPDEST PUSH0 PUSH1 0x40 DUP3 DUP5 SUB SLT ISZERO PUSH2 0x1012 JUMPI PUSH2 0x1011 PUSH2 0xF3E JUMP JUMPDEST JUMPDEST PUSH2 0x101C PUSH1 0x40 PUSH2 0xFB0 JUMP JUMPDEST SWAP1 POP PUSH0 PUSH2 0x102B DUP5 DUP3 DUP6 ADD PUSH2 0xFE9 JUMP JUMPDEST PUSH0 DUP4 ADD MSTORE POP PUSH1 0x20 PUSH2 0x103E DUP5 DUP3 DUP6 ADD PUSH2 0xFE9 JUMP JUMPDEST PUSH1 0x20 DUP4 ADD MSTORE POP SWAP3 SWAP2 POP POP JUMP JUMPDEST PUSH0 DUP1 REVERT JUMPDEST PUSH0 PUSH8 0xFFFFFFFFFFFFFFFF DUP3 GT ISZERO PUSH2 0x1068 JUMPI PUSH2 0x1067 PUSH2 0xF52 JUMP JUMPDEST JUMPDEST PUSH1 0x20 DUP3 MUL SWAP1 POP SWAP2 SWAP1 POP JUMP JUMPDEST PUSH0 DUP1 REVERT JUMPDEST PUSH0 PUSH2 0x1089 PUSH2 0x1084 DUP5 PUSH2 0x104E JUMP JUMPDEST PUSH2 0xFB0 JUMP JUMPDEST SWAP1 POP DUP1 PUSH1 0x20 DUP5 MUL DUP4 ADD DUP6 DUP2 GT ISZERO PUSH2 0x10A3 JUMPI PUSH2 0x10A2 PUSH2 0x1073 JUMP JUMPDEST JUMPDEST DUP4 JUMPDEST DUP2 DUP2 LT ISZERO PUSH2 0x10CC JUMPI DUP1 PUSH2 0x10B8 DUP9 DUP3 PUSH2 0xFE9 JUMP JUMPDEST DUP5 MSTORE PUSH1 0x20 DUP5 ADD SWAP4 POP POP PUSH1 0x20 DUP2 ADD SWAP1 POP PUSH2 0x10A5 JUMP JUMPDEST POP POP POP SWAP4 SWAP3 POP POP POP JUMP JUMPDEST PUSH0 DUP3 PUSH1 0x1F DUP4 ADD SLT PUSH2 0x10EA JUMPI PUSH2 0x10E9 PUSH2 0x104A JUMP JUMPDEST JUMPDEST PUSH1 0x2 PUSH2 0x10F7 DUP5 DUP3 DUP6 PUSH2 0x1077 JUMP JUMPDEST SWAP2 POP POP SWAP3 SWAP2 POP POP JUMP JUMPDEST PUSH0 PUSH1 0x80 DUP3 DUP5 SUB SLT ISZERO PUSH2 0x1115 JUMPI PUSH2 0x1114 PUSH2 0xF3E JUMP JUMPDEST JUMPDEST PUSH2 0x111F PUSH1 0x40 PUSH2 0xFB0 JUMP JUMPDEST SWAP1 POP PUSH0 PUSH2 0x112E DUP5 DUP3 DUP6 ADD PUSH2 0x10D6 JUMP JUMPDEST PUSH0 DUP4 ADD MSTORE POP PUSH1 0x40 PUSH2 0x1141 DUP5 DUP3 DUP6 ADD PUSH2 0x10D6 JUMP JUMPDEST PUSH1 0x20 DUP4 ADD MSTORE POP SWAP3 SWAP2 POP POP JUMP JUMPDEST PUSH0 PUSH2 0x100 DUP3 DUP5 SUB SLT ISZERO PUSH2 0x1163 JUMPI PUSH2 0x1162 PUSH2 0xF3E JUMP JUMPDEST JUMPDEST PUSH2 0x116D PUSH1 0x60 PUSH2 0xFB0 JUMP JUMPDEST SWAP1 POP PUSH0 PUSH2 0x117C DUP5 DUP3 DUP6 ADD PUSH2 0xFFD JUMP JUMPDEST PUSH0 DUP4 ADD MSTORE POP PUSH1 0x40 PUSH2 0x118F DUP5 DUP3 DUP6 ADD PUSH2 0x1100 JUMP JUMPDEST PUSH1 0x20 DUP4 ADD MSTORE POP PUSH1 0xC0 PUSH2 0x11A3 DUP5 DUP3 DUP6 ADD PUSH2 0xFFD JUMP JUMPDEST PUSH1 0x40 DUP4 ADD MSTORE POP SWAP3 SWAP2 POP POP JUMP JUMPDEST PUSH0 DUP1 PUSH2 0x140 DUP4 DUP6 SUB SLT ISZERO PUSH2 0x11C6 JUMPI PUSH2 0x11C5 PUSH2 0xF3A JUMP JUMPDEST JUMPDEST PUSH0 PUSH2 0x11D3 DUP6 DUP3 DUP7 ADD PUSH2 0x114D JUMP JUMPDEST SWAP3 POP POP PUSH2 0x100 PUSH2 0x11E5 DUP6 DUP3 DUP7 ADD PUSH2 0x10D6 JUMP JUMPDEST SWAP2 POP POP SWAP3 POP SWAP3 SWAP1 POP JUMP JUMPDEST PUSH0 DUP2 ISZERO ISZERO SWAP1 POP SWAP2 SWAP1 POP JUMP JUMPDEST PUSH2 0x1203 DUP2 PUSH2 0x11EF JUMP JUMPDEST DUP3 MSTORE POP POP JUMP JUMPDEST PUSH0 PUSH1 0x20 DUP3 ADD SWAP1 POP PUSH2 0x121C PUSH0 DUP4 ADD DUP5 PUSH2 0x11FA JUMP JUMPDEST SWAP3 SWAP2 POP POP JUMP JUMPDEST PUSH32 0x4E487B7100000000000000000000000000000000000000000000000000000000 PUSH0 MSTORE PUSH1 0x32 PUSH1 0x4 MSTORE PUSH1 0x24 PUSH0 REVERT JUMPDEST PUSH32 0x4E487B7100000000000000000000000000000000000000000000000000000000 PUSH0 MSTORE PUSH1 0x11 PUSH1 0x4 MSTORE PUSH1 0x24 PUSH0 REVERT JUMPDEST PUSH0 PUSH2 0x1286 DUP3 PUSH2 0xFCA JUMP JUMPDEST SWAP2 POP PUSH2 0x1291 DUP4 PUSH2 0xFCA JUMP JUMPDEST SWAP3 POP DUP3 DUP3 ADD SWAP1 POP DUP1 DUP3 GT ISZERO PUSH2 0x12A9 JUMPI PUSH2 0x12A8 PUSH2 0x124F JUMP JUMPDEST JUMPDEST SWAP3 SWAP2 POP POP JUMP JUMPDEST PUSH32 0x4E487B7100000000000000000000000000000000000000000000000000000000 PUSH0 MSTORE PUSH1 0x12 PUSH1 0x4 MSTORE PUSH1 0x24 PUSH0 REVERT JUMPDEST PUSH0 PUSH2 0x12E6 DUP3 PUSH2 0xFCA JUMP JUMPDEST SWAP2 POP PUSH2 0x12F1 DUP4 PUSH2 0xFCA JUMP JUMPDEST SWAP3 POP DUP3 PUSH2 0x1301 JUMPI PUSH2 0x1300 PUSH2 0x12AF JUMP JUMPDEST JUMPDEST DUP3 DUP3 MOD SWAP1 POP SWAP3 SWAP2 POP POP JUMP JUMPDEST PUSH0 PUSH2 0x1316 DUP3 PUSH2 0xFCA JUMP JUMPDEST SWAP2 POP PUSH2 0x1321 DUP4 PUSH2 0xFCA JUMP JUMPDEST SWAP3 POP DUP3 DUP3 SUB SWAP1 POP DUP2 DUP2 GT ISZERO PUSH2 0x1339 JUMPI PUSH2 0x1338 PUSH2 0x124F JUMP JUMPDEST JUMPDEST SWAP3 SWAP2 POP POP JUMP JUMPDEST PUSH0 PUSH2 0x1349 DUP3 PUSH2 0xFCA JUMP JUMPDEST SWAP2 POP PUSH2 0x1354 DUP4 PUSH2 0xFCA JUMP JUMPDEST SWAP3 POP DUP3 DUP3 MUL PUSH2 0x1362 DUP2 PUSH2 0xFCA JUMP JUMPDEST SWAP2 POP DUP3 DUP3 DIV DUP5 EQ DUP4 ISZERO OR PUSH2 0x1379 JUMPI PUSH2 0x1378 PUSH2 0x124F JUMP JUMPDEST JUMPDEST POP SWAP3 SWAP2 POP POP JUMP INVALID LOG2 PUSH5 0x6970667358 0x22 SLT KECCAK256 0xB6 SUB GASLIMIT NUMBER DUP5 0xEA 0xD1 CREATE2 0xF6 PUSH21 0x99E7E39C50612C13D7B32D2E816E97A716207937A9 SUB PUSH5 0x736F6C6343 STOP ADDMOD OR STOP CALLER "
		},
		"gasEstimates": {
			"creation": {
				"codeDepositCost": "1009200",
				"executionCost": "1045",
				"totalCost": "1010245"
			},
			"external": {
				"verifyTx(((uint256,uint256),(uint256[2],uint256[2]),(uint256,uint256)),uint256[2])": "infinite"
			},
			"internal": {
				"verify(uint256[] memory,struct Verifier.Proof memory)": "infinite",
				"verifyingKey()": "infinite"
			}
		},
		"methodIdentifiers": {
			"verifyTx(((uint256,uint256),(uint256[2],uint256[2]),(uint256,uint256)),uint256[2])": "43cd76fc"
		}
	},
	"abi": [
		{
			"inputs": [
				{
					"components": [
						{
							"components": [
								{
									"internalType": "uint256",
									"name": "X",
									"type": "uint256"
								},
								{
									"internalType": "uint256",
									"name": "Y",
									"type": "uint256"
								}
							],
							"internalType": "struct Pairing.G1Point",
							"name": "a",
							"type": "tuple"
						},
						{
							"components": [
								{
									"internalType": "uint256[2]",
									"name": "X",
									"type": "uint256[2]"
								},
								{
									"internalType": "uint256[2]",
									"name": "Y",
									"type": "uint256[2]"
								}
							],
							"internalType": "struct Pairing.G2Point",
							"name": "b",
							"type": "tuple"
						},
						{
							"components": [
								{
									"internalType": "uint256",
									"name": "X",
									"type": "uint256"
								},
								{
									"internalType": "uint256",
									"name": "Y",
									"type": "uint256"
								}
							],
							"internalType": "struct Pairing.G1Point",
							"name": "c",
							"type": "tuple"
						}
					],
					"internalType": "struct Verifier.Proof",
					"name": "proof",
					"type": "tuple"
				},
				{
					"internalType": "uint256[2]",
					"name": "input",
					"type": "uint256[2]"
				}
			],
			"name": "verifyTx",
			"outputs": [
				{
					"internalType": "bool",
					"name": "r",
					"type": "bool"
				}
			],
			"stateMutability": "view",
			"type": "function"
		}
	]
}